:100000000C9414040C9431040C9431040C943104B9
:100010000C9431040C9431040C9431040C9431048C
:100020000C9431040C94CA0F0C9431040C943104D8
:100030000C94F91D0C9431040C9431040C94C51DDE
:100040000C9431040C9431040C94F90E0C94E1439B
:100050000C94180B0C9431040C9404060C94310489
:100060000C9406110C9431040C94A31C0C943104D0
:100070000C94B6430C9431040C9431040A0A0D001C
:100080004E65757472616C0048656164696E67489D
:100090006F6C64000A0D436F6E74726F6C3A2000CF
:1000A0000A0D537570706F727420666F722047501E
:1000B0005320617420326E642055415254000A0D61
:1000C000537570706F727420666F722047505320A2
:1000D0006174203173742055415254000A0D5375D8
:1000E00070706F727420666F72204D6963726F4D0D
:1000F00061673320436F6D70617373004F4B0A0D5E
:10010000000A0D43616C6962726174696E672061F7
:1001100069722070726573737572652073656E7392
:100120006F722E2E000A0D414343206E6F742063C0
:10013000616C6962726174656421000A0D3D3D3D28
:100140003D3D3D3D3D3D3D3D3D3D3D3D3D3D3D3DDF
:100150003D3D3D3D3D3D3D3D3D3D3D000A0D466C37
:1001600069676874436F6E74726F6C0A0D486172D0
:1001700064776172653A25642E25640A0D536F66B3
:1001800074776172653A5625642E256425632000D4
:100190002E005A5F52616E67653A2020253469004F
:1001A000595F52616E67653A202025346900585FB7
:1001B00052616E67653A2020253469004D4D332029
:1001C00052616E6765005A5F4F66667365743A20C8
:1001D0002025336900595F4F66667365743A2020A5
:1001E00025336900585F4F66667365743A20202591
:1001F0003369004D4D33204F666673657400416C62
:10020000743A2025642E252E3364206D004C6174D1
:100210003A2025642E252E3364252E336420646510
:1002200067004C6F6E3A2025642E252E3364252EF0
:1002300033642064656700536174733A2025642039
:100240004669783A203F3F00536174733A20256431
:10025000204669783A20334400536174733A20256C
:1002600064204669783A20324400536174733A201E
:100270002564204669783A204E6F004E6F20475023
:10028000532064617461210048693A253469202053
:1002900043663A253469200047733A2534692020A3
:1002A00059613A25346920004E693A253469202085
:1002B000526F3A253469200045787465726E436F39
:1002C0006E74726F6C20200052616E67653A253340
:1002D000692D25336900506F736974696F6E3A2018
:1002E00025336900536574706F696E74202025335F
:1002F0006900536572766F202000506F343A2025D4
:10030000336920506F383A2025336900506F333AF3
:100310002025336920506F373A2025336900506F0C
:10032000323A2025336920506F363A202533690050
:10033000506F313A2025336920506F353A202533EC
:1003400069004F6666436F757273653A202535699B
:100350000048656164696E673A2020202535690090
:10036000436F757273653A2020202025356900435C
:100370006F6D706173732020202020202000524375
:100380002D4C6576656C3A2025356900566F6C7486
:100390006167653A2020253569004865696768749A
:1003A0002025346920282533692900526F6C6C2080
:1003B0002020253469202825336929004E69636B84
:1003C0002020202534692028253369290041434312
:1003D000202D2053656E736F7200596177202025A0
:1003E0003469202825336929282533692900526F6B
:1003F0006C6C202534692028253369292825336928
:1004000029004E69636B202534692028253369292A
:10041000282533692900596177202025346920284F
:100420002533692900526F6C6C20253469202825FA
:10043000336929004E69636B2025346920282533F0
:1004400069290059617720202534692028253369DE
:100450002900526F6C6C20253469202825336929C6
:10046000004E69636B2025346920282533692900F3
:100470004779726F202D2053656E736F7200503371
:100480003A253469202050343A253469200050310F
:100490003A253469202050323A25346920004773C8
:1004A0003A253469202059613A25346920004E6983
:1004B0003A2534692020526F3A25346920004337A9
:1004C0003A253469202043383A25346920004335E1
:1004D0003A253469202043363A25346920004333D5
:1004E0003A253469202043343A25346920004331C9
:1004F0003A253469202043323A2534692000486582
:100500006164696E673A20202025356900526F6C5E
:100510006C3A202020202020253569004E69636B2D
:100520003A20202020202025356900417474697408
:100530007564650048656967687420436F6E7472FE
:100540006F6C004E6F20004F66667365742020202C
:10055000203A253569004169722050726573732E07
:100560003A2535690053657420506F696E743A20DE
:10057000253569004865696768743A202020202580
:1005800035690028632920486F6C676572204275C1
:1005900073730053657474696E673A202564200094
:1005A00048573A5625642E25642053573A25642E21
:1005B00025642563002B204D696B726F4B6F70743F
:1005C0006572202B005B25695D005B25695D000A73
:1005D0000D5573696E6720506172616D6574657247
:1005E00020536574202564000A0D496E69742E201D
:1005F000454550524F4D3A2047656E6572617469AA
:100600006E672044656661756C742D506172616D12
:10061000657465722E2E2E0000008F001E01AD0144
:100620003B02CA025803E603740402058F051B0649
:10063000A7063307BE074808D2085B09E3096B0A1F
:10064000F20A780BFD0B810C040D860D070E870E48
:10065000060F840F00107B10F5106E11E5115B1270
:10066000CF124213B31323149214FE146A15D31538
:100670003B16A11605176717C81727188318DE1829
:1006800037198E19E319361A871AD61A231B6E1BCF
:10069000B61BFD1B411C831CC31C001D3C1D751D8E
:1006A000AB1DE01D121E421E6F1E9A1EC31EE91EC8
:1006B0000D1F2E1F4D1F691F841F9B1FB01FC31FBF
:1006C000D31FE11FEC1FF51FFB1FFF1F00200001C0
:1006D0000203040405060708090A0B0B0C0D0E0F94
:1006E000101111121314151516171818191A1B1BAF
:1006F0001C1D1D1E1F1F20212122232324242525EC
:10070000262727282829292A2A2B2B2C2C2D2D2D4A
:100710002E2E2F2F303030313132323233333334CA
:100720003434353535363636373737373838383963
:100730003939393A3A3A3A3B3B3B3B3C3C3C3C3C0E
:100740003D3D3D3D3E3E3E3E3E3F3F3F3F3F3F40C5
:100750004040404040414141414141424242424289
:100760004242434343434343434444444444444454
:100770004445454545454545454546464646464624
:1007800046464647474747474747474747474848FA
:1007900048484848484848484849494949494949D2
:1007A000494949494949494A4A4A4A4A4A4A4A4AB0
:1007B0004A4A4A4A4A4B4B4B4B4B4B4B4B4B4B4B8E
:1007C0004B4B4B4B4B4B4C4C4C4C4C4C4C4C4C4C6F
:1007D0004C4C4C4C4C4C4C4C4C4D4D4D4D4D4D4D52
:1007E0004D4D4D4D4D4D4D4D4D4D4D4D4D4D4D4E38
:1007F0004E4E4E4E4E4E4E4E4E4E4E4E4E4E4E4E19
:100800004E4E4E4E4E4E4E4E4E4F4F4F4F4F4F4F01
:100810004F4F4F4F4F4F4F4F4F4F4F4F4F4F4F4FE8
:100820004F4F4F4F4F4F4F4F11241FBECFEFD0E1CF
:10083000DEBFCDBF13E0A0E0B1E0E8E6F3EA02C01E
:1008400005900D92A83CB107D9F718E0A8ECB3E0E9
:1008500001C01D92AA3CB107E1F70E9433040C9439
:10086000B3510C940000CF93DF93F89414B815B8EB
:10087000189B0EC0199B02C08DE001C08BE08093D5
:10088000000184B1836084B980910001289812C06E
:10089000199B08C084E18093000184B1836084B90E
:1008A00084E107C08AE08093000184B1836084B949
:1008B0008AE0289A8C3010F4299801C0299A84B7CC
:1008C000877F84BF80916000886180936000109270
:1008D000600080ED97E09093E4038093E30310922F
:1008E00061071092600710928204109281041092A6
:1008F000800410927F0410927E0410927D048091F7
:1009000000018A3011F0843111F4289801C0289A2E
:100910000E94B70E0E94A50F0E94D306809100018D
:100920008B3010F00E9459430E94911D0E94E910E3
:100930000E94441C0E94974778942091000188E609
:1009400090E09F938F9387E490E09F938F931F9203
:100950001F92822F6AE00E941B51892F99279F9333
:100960008F93822F0E941B5199279F938F938CE521
:1009700091E09F938F931F920E94150C8BE391E05F
:100980009F938F931F920E94150C8DB79EB7409630
:100990000FB6F8949EBF0FBE8DBF809100018C30C2
:1009A00010F4299A01C029980E94924284E00E9482
:1009B00012408050944050F085E291E09F938F93D5
:1009C0001F920E94150C0F900F900F9084EF91E0F2
:1009D0000E94E50EEC01CE010E94EE0E8823D9F3B1
:1009E0008091CA0780FF20C081E091E09F938F93A0
:1009F0001F920E94150C88EE93E00E94E50EEC0118
:100A00000E94C5140F900F900F90CE010E94EE0E21
:100A10008823D9F38CEF90E09F938F931F920E94CD
:100A2000150C0F900F900F908CED90E09F938F938B
:100A30001F920E94150C0F900F900F908091000153
:100A40008A3019F48EEB90E002C080EA90E09F9328
:100A50008F931F920E94150C0F900F900F900E9481
:100A60000128809100018A3011F0843111F4289816
:100A700001C0289A80ED97E09093E4038093E3030C
:100A800085E580936A0684E990E09F938F931F9297
:100A90000E94150C8091CA070F900F900F9082FF53
:100AA00003C088E890E002C080E890E09F938F93B5
:100AB0001F920E94150C0F900F900F908CE790E002
:100AC0009F938F931F920E94150C0E94021588E835
:100AD00093E190936D0380936C030F900F900F90B0
:100AE0008091E0038823E1F31092E0030E94BE2985
:100AF0000E944427209100012A3011F0243111F482
:100B0000289801C0289A80910301882321F0815000
:100B1000809303010EC01092740610928E041092FE
:100B20008D041092900410928F04109292041092EF
:100B3000910480916C0390916D03892B01F585E000
:100B400090E090936D0380936C030E94711C8091E0
:100B50000603909107038F5F9F4F09F580916C0406
:100B600080FF1DC080E197E29093E4038093E3034C
:100B700080E890E0909307038093060310C0809173
:100B80006C0390916D03019790936D0380936C03B8
:100B90002A3011F0243111F4289801C0289A80914C
:100BA000E003882321F080916C0480FD02C00E9444
:100BB00023080E949A09CE010E94EE0E882309F1B3
:100BC00020910E0330910F038091DA07992728179F
:100BD000390794F480E093E0909307038093060331
:100BE0008091E3039091E403892B31F480E797E14E
:100BF0009093E4038093E30384E190E00E94E50E88
:100C0000EC010E94D31B6CCF1F920F920FB60F9274
:100C100011248F939F93EF93FF9380910201882378
:100C2000E1F48091DC039091DD0301969093DD0364
:100C30008093DC03FC01E954F94FE081ED3019F0B9
:100C40008639910539F41092DD031092DC0381E0BE
:100C500080930201E093C60004C01092DD0310925D
:100C6000DC03FF91EF919F918F910F900FBE0F903A
:100C70001F901895DC0120E030E040E050E0E7EB09
:100C8000F6E005C08191280F311D4F5F5F4F4A1775
:100C90005B07C1F73F70C90136E0969587953A9595
:100CA000E1F7835CFD01E954F94F808311962F73BE
:100CB000235CFD01E954F94F2083A854B94F8DE01E
:100CC0008C93109202018091B7068093C60008951C
:100CD0003091D103365043E063E046C0E42FFF2754
:100CE000E653FA4F90814F5FE42FFF27E653FA4F08
:100CF00020814F5FE42FFF27E653FA4F70814F5F4B
:100D0000E42FFF274350E653FA4F50812D53E62F2F
:100D1000FF279D53990F990F822F82958F70982BE3
:100D2000E653FA4F9083E62FEF5F313009F1972FAA
:100D30009D53FF272295207F892F86958695282B06
:100D4000E653FA4F2083E62FEE5F33503F3F81F0AA
:100D50004C5FFF279295990F990F907C5D53952BCF
:100D6000E653FA4F90836D5F332309F0B7CFE62F38
:100D70008DEC95E09093D3038093D203E350E093FE
:100D8000D40308951F93182F8A3019F48DE00E9420
:100D9000C2068091C00085FFFCCF1093C60080E0A2
:100DA00090E01F9108951F931FB7F8948091C100A0
:100DB0008F778093C1008091C1008F7B8093C100A9
:100DC000589A5098599A519A1092C5008AE2809385
:100DD000C4008091C00082608093C00088E180934D
:100DE000C1008091C2008F778093C2008091C200C1
:100DF0008F7B8093C2008091C2008F7D8093C20060
:100E00008091C2008F7E8093C2008091C200877F54
:100E10008093C2008091C1008B7F8093C10080913C
:100E2000C20084608093C2008091C200826080937F
:100E3000C20002C08091C6008091C00087FDFACF39
:100E40008091C10080688093C1008091C10080645E
:100E50008093C10080910401909105010E94E50EEC
:100E600090934E0780934D071092D0031092D303B6
:100E70001092D2031092D40381E080930201109269
:100E8000600687E48093610687E0809364068AE0C9
:100E900080936206109263061FBF1F910895DF9230
:100EA000EF92FF920F931F93CF93DF93CDB7DEB7EF
:100EB00022970FB6F894DEBF0FBECDBF9D85AE85DD
:100EC00083E28093B7069F599093B8068C858093F0
:100ED000B906CE010F969A838983AA2341F4EE24A2
:100EE000FF2460E070E003E010E0B0E092C0EF8427
:100EF000F888CE0143969A83898369897A89A150BB
:100F0000F2CFF701EB0FF11D9081BF5F6150704090
:100F1000A9F4AA2319F4DD2440E042C0E981FA8152
:100F2000E080F1803496FA83E9833497628173819B
:100F3000A1506115710509F471C0B0E0F701EB0F24
:100F4000F11D4081BF5F61507040A1F4AA2309F4F4
:100F500067C0E981FA81E080F1803496FA83E98301
:100F6000349762817381A1506115710511F4DD24FC
:100F700016C0B0E0F701EB0FF11DD080BF5F6150EC
:100F8000704071F4AA2361F0E981FA81E080F18078
:100F90003496FA83E983349762817381A150B0E07B
:100FA000892F86958695835CF801E954F94F8083F3
:100FB0005527892F99278370907024E0880F991FF7
:100FC0002A95E1F79A01F4E036952795FA95E1F72D
:100FD000822B835CF801E854F94F80834F70507086
:100FE000440F551F440F551F8D2D8295869586956C
:100FF0008370842B835CF801E754F94F80838FE37F
:10100000D8228DE3D80EF801E654F94FD0820C5F58
:101010001F4F6115710509F074CF04C040E0B0E0C6
:10102000DD24BECFC8010E943A0622960FB6F8947E
:10103000DEBF0FBECDBFDF91CF911F910F91FF900B
:10104000EF90DF90089580910201882309F471C127
:101050008091C8038823F1F0809102018823D1F0A8
:101060008AE090E09F938F9380E696E09F938F9322
:1010700081E08F938F9386E58F930E944F071092A4
:10108000C8032DB73EB7295F3F4F0FB6F8943EBF58
:101090000FBE2DBF8091CA038823C1F18091020148
:1010A0008823A1F10E940B1584E190E09F938F9318
:1010B0008091CF0324E1829FC0011124865E9C4F62
:1010C0009F938F9381E090E09F938F938FEC93E0B9
:1010D0009F938F9382E08F9381E08F9388E48F9327
:1010E0000E944F078091CF038F5F8093CF032DB76E
:1010F0003EB7255F3F4F0FB6F8943EBF0FBE2DBFE2
:10110000843010F01092CF031092CA038091CB0369
:10111000882371F180910201882351F10E940B15FF
:1011200080E590E09F938F938AE193E09F938F9364
:1011300021E030E03F932F9389E193E09F938F93D9
:101140003F932F9389E094E09F938F9383E08F9355
:1011500081E08F938CE48F930E944F071092CB0312
:101160008DB79EB70F960FB6F8949EBF0FBE8DBF7A
:10117000209101012F3F59F180E190E09F938F93DF
:10118000822F992734E0880F991F3A95E1F78A5FFB
:101190009E4F9F938F9381E090E09F938F9381E088
:1011A00091E09F938F9382E08F9381E08F9381E40E
:1011B0008F930E944F078FEF809301012DB73EB7A9
:1011C000255F3F4F0FB6F8943EBF0FBE2DBF8091F5
:1011D0004F078823E9F0809102018823C9F081E05C
:1011E00090E09F938F938FE497E09F938F9381E09C
:1011F0008F938F9382E48F930E944F0710924F0733
:101200008DB79EB707960FB6F8949EBF0FBE8DBFE1
:101210008091040190910501892B41F080914D0747
:1012200090914E070E94EE0E882321F48091CC030A
:10123000882341F180910201882321F182E490E02A
:101240009F938F9385E796E09F938F9381E08F9391
:101250008F9384E48F930E944F07809104019091B3
:1012600005010E94E50E90934E0780934D07109262
:10127000CC032DB73EB7295F3F4F0FB6F8943EBF62
:101280000FBE2DBF8091C9038823E9F08091020130
:101290008823C9F08BE090E09F938F938AE696E0D5
:1012A0009F938F9381E08F938F9387E48F930E9416
:1012B0004F071092C9038DB79EB707960FB6F894E3
:1012C0009EBF0FBE8DBF8091CE03882381F0809199
:1012D0000201882361F01F9281E08F9384E58F9350
:1012E0000E944F071092CE030F900F900F908091A5
:1012F000CD038823F1F0809102018823D1F08EE1A3
:1013000090E09F938F938CE597E09F938F9381E07C
:101310008F938F9380E58F930E944F071092CD0398
:101320002DB73EB7295F3F4F0FB6F8943EBF0FBEB3
:101330002DBF08950F931F93CF93DF93CDB7DEB7E3
:1013400022970FB6F894DEBF0FBECDBF8091D003B9
:10135000882309F462C10E9468068091CB05823619
:1013600009F0DDC08091CC05813721F1823720F46E
:10137000803709F0D4C01AC0833709F470C08437AD
:1013800009F0CDC0E091D203F091D3038081918127
:10139000A281B3818093D5039093D603A093D70302
:1013A000B093D8038FEF80930301B9C081E080939D
:1013B000CD03B5C00091D2031091D303F801808111
:1013C0008F3F29F482E00E948942F8018083E091F6
:1013D000D203F091D3038081882311F481E004C00B
:1013E0008081863010F085E08083E091D203F09117
:1013F000D30380810E945640E091D203F091D30341
:1014000080818A83809102018823E1F389E48983C2
:1014100087E590E09F938F9382EC97E09F938F9363
:1014200021E030E03F932F93CE0101969F938F935D
:101430003F932F93CE0102969F938F9383E08F93D8
:1014400081E08F9381E58F930E944F078DB79EB700
:101450000F960FB6F8949EBF0FBE8DBF60C0E0918F
:10146000D203F091D30380818823E9F18081863013
:10147000D0F581818934B9F5A2ECB7E0329687E5E1
:1014800001900D928150E1F7E091D203F091D303E6
:1014900080810E943E406091ED0777278827992739
:1014A00024EC39E040E050E00E94FC50609375036A
:1014B0007093760380937703909378036091EE079F
:1014C0007727882799270E94FC50609379037093AF
:1014D0007A0380937B0390937C030E9422408A834B
:1014E0000E94792901C01A82809102018823E1F3C8
:1014F00081E090E09F938F93CE0102969F938F930C
:1015000081E08F938F9383E58F930E944F07EDB710
:10151000FEB737960FB6F894FEBF0FBEEDBF8091B1
:10152000CC05873609F45BC0883648F48236E9F08A
:10153000843609F458C0813609F067C009C08C367A
:10154000E1F1863709F447C0883609F05EC020C053
:10155000E091D203F091D303808180930101803226
:1015600098F08FE1809301010FC0AAE6B6E0E09108
:10157000D203F091D3038BE001900D928150E1F7FB
:101580008091730680934F078FEF809303013DC0D6
:101590008FEF80930301E091D203F091D303808118
:1015A00090910A04892B80930A04882311F01092E9
:1015B000CF0381E08093CA0328C08FEF809303019B
:1015C000E091D203F091D30380818093090481E0FC
:1015D0008093CB031AC081E08093C80316C081E0DA
:1015E0008093C90312C0E091D203F091D3038081AC
:1015F0002AE0829FC0011124909305018093040189
:10160000892B19F081E08093CC031092D3031092C0
:10161000D2031092D4031092D00322960FB6F894FE
:10162000DEBF0FBECDBFDF91CF911F910F91089507
:101630001F920F920FB60F9211241F932F933F9377
:101640004F935F936F937F938F939F93AF93BF93CA
:10165000CF93DF93EF93FF931091C6008091000129
:101660008A3019F4812F0E94A54E8091D0038823DF
:1016700009F06EC06091D903662371F4133279F4D6
:101680001093CA0581E08093D90383E290E09093A0
:10169000DB038093DA035CC0663908F055C0A62FDF
:1016A000BB272091DA033091DB031D3069F0A6538C
:1016B000BA4F1C936F5F6093D903210F311D309394
:1016C000DB032093DA0344C0FD01E853FA4F908115
:1016D000ED01C753DA4F8881A901491B5109481B05
:1016E00051095F705093DB034093DA032081CA01F4
:1016F00056E0969587955A95E1F7835C8217F9F441
:101700009881842F8F73835C8917C9F4A653BA4FCD
:101710001C936F5F6093D10381E08093D00380912D
:10172000CC05823571F488E190E02CE00FB6F89496
:10173000A895809360000FBE2093600002C01092B5
:10174000D0031092D90304C01092D9031092D00391
:10175000FF91EF91DF91CF91BF91AF919F918F91C9
:101760007F916F915F914F913F912F911F910F90BA
:101770000FBE0F901F901895982F809150078130C1
:1017800069F480910B04E82FFF27E65EFC4F9083FD
:101790008F5F80930B0421E030E005C0892F0E9409
:1017A000C206282F3327C90108951F93182F04C09C
:1017B00080E30E94BC0B11501116D4F31F910895C1
:1017C0001F93182F04C080E20E94BC0B1150111609
:1017D000D4F31F9108950F931F93CF93DF938C0140
:1017E000EB0108C0F8010F5F1F4FE4918E2F0E949C
:1017F000BC0B21972097B1F7DF91CF911F910F91EB
:1018000008950F931F93CF93DF938C01EB0106C0D4
:10181000F80181918F010E94BC0B21972097C1F79D
:10182000DF91CF911F910F9108952F923F924F9288
:101830005F926F927F928F929F92AF92BF92CF9260
:10184000DF92EF92FF920F931F93CF93DF93CDB769
:10185000DEB7E3970FB6F894DEBF0FBECDBF299673
:101860008FAD299780935007CE01855B9F4F9D8355
:101870008C832B968EAD9FAD2B979FA78EA722248E
:101880003324210102C0130124010EA51FA502C0AB
:101890000F5F1F4FF801F490FF2019F0F5E2FF16DB
:1018A000B9F7B8018EA59FA5681B790B11F00E94AE
:1018B000EB0BFF2009F442C20F5F1F4F1FA70EA7BB
:1018C0001982AC81BD811BAA1AAA9FEF99ABEEA524
:1018D000FFA5CF0101969FA78EA7B49095E7B916F3
:1018E00021F08B2D8062883789F4EBA9E0FF07C0D7
:1018F0002D903D904D905C901397149607C08D915C
:101900009C9111971C01442455241296F0E2BF16B5
:1019100021F489818823D9F685C083E2B81609F4B9
:1019200083C09AE2B91621F0EDE2BE1669F408C050
:10193000FD011296E081EAABE7FFC9CFE195EAAB82
:10194000FBA9F061FF7D72C08BE2B81609F46AC092
:101950009EE2B916B1F52EA53FA52F5F3F4FEEA52C
:10196000FFA584918A3221F0B82E20E030E01BC020
:10197000FD0112964081518157FF02C04FEF5FEF8A
:1019800049AB3FA72EA7A3CFC90103E0880F991F3A
:101990000A95E1F7220F331F280F391F2B0D311D38
:1019A00020533040B49031968B2D80538A3060F3B1
:1019B000FFA7EEA7A90137FF02C04FEF5FEF49ABCA
:1019C0008DCFF0E3BF1631F48BA984FD80CF806208
:1019D0008BAB7DCF8B2D81538930E8F420E030E054
:1019E000C901F3E0880F991FFA95E1F7220F331F21
:1019F000280F391F2B0D311D20533040EEA5FFA5B8
:101A0000CF0101969FA78EA7B4908B2D80538A306B
:101A100038F32AAB63CF98E6B91651F4EBA9E4602A
:101A2000EBAB55CFB98253CFFBA9F860FBAB4FCFDF
:101A30008CE6B81621F49BA991609BAB48CFBD837F
:101A4000AC83E3E6BE1639F41296BD83AC831297DD
:101A50008C918E8318C1F4E4BF1639F084E6B81671
:101A600039F099E6B91659F503C0EBA9E160EBAB83
:101A7000FBA9F0FF08C01496BD83AC835E904E9026
:101A80003E902E900AC01296BD83AC839E918E919B
:101A90001C01442437FC4094542C57FC03C08AE0BA
:101AA00088AB92C05094409430942094211C311CF7
:101AB000411C511C8DE289839AE098AB85C0EFE40C
:101AC000BE1629F0FFE6BF1639F488E061C09BA975
:101AD00091609BABE8E056C0F0E7BF1671F4129638
:101AE000BD83AC839E918E911C01442455248BA907
:101AF00080648BAB78E7B72E5EC0E3E7BE16D9F5FE
:101B00001296BD83AC83DE90CE90C114D10489F4CB
:101B100088E28E838EE68F8385E788878CE68987C7
:101B20008A8789E28B871C8666E0C62ED12CCC0E74
:101B3000DD1EF9A9F7FD13C04F2F552747FD50951E
:101B400060E070E0C6010E94874F009711F419A968
:101B50000DC08C1919A981174CF4182F07C0F60174
:101B600001900020E9F731971E2F1C1919824201BC
:101B7000310140E094C085E5B81631F095E7B9161B
:101B800049F4EAE0E8AB1FC0FBA9F160FBAB8AE0D7
:101B900088AB19C098E5B91621F0E8E7BE1609F040
:101BA0006EC0FBA9F3FD02C080E1F2CF2114310425
:101BB0004104510419F490E198AB05C0EBA9E0642D
:101BC000EBABF0E1F8AB198289A987FD03C09BA9B3
:101BD0009F7D9BAB211431044104510461F4E9A9B8
:101BE000EE2349F46624772443015EE2C52ED12C0E
:101BF000CC0EDD1E3EC04EE2C42ED12CCC0EDD1E1E
:101C0000F8A9EF2EFF2400271127C201B101A80176
:101C100097010E944E516A3020F430E3A32EA60EA5
:101C200008C027E5A22EA60E88E5B81611F49FED90
:101C3000A922F601A2926F01C201B101A801970188
:101C40000E944E5139014A012E143F0440065106AC
:101C500018F019012A01D9CFF8A9F83051F48BA94D
:101C600083FF07C090E3A91621F080E3F601829379
:101C70006F01CE018C19182F125D49A910C0BB202D
:101C800009F45CC0BE8219824201310100E096E095
:101C9000C92ED12CCC0EDD1E11E021E005C0212F74
:101CA000042F011B07FD00E08981882319F0812F93
:101CB0008F5F07C09BA996FD02C0812F02C0822FB3
:101CC0008E5FA82EA00EEBA9EE2EFF2480E3482EF7
:101CD000512C4E205F204114510421F48AA98A1905
:101CE0000E94E00B8981882329F061E070E0CE0139
:101CF000019609C0E6FE09C080E38A83BB8262E0E8
:101D000070E0CE0102960E94010CF0E24F165104E1
:101D100021F48AA98A190E94D50B802F0E94D50B25
:101D2000612F772767FD7095C6010E94010CE4FEC4
:101D3000AACD8AA98A190E94E00BA5CDE3960FB619
:101D4000F894DEBF0FBECDBFDF91CF911F910F91F1
:101D5000FF90EF90DF90CF90BF90AF909F908F90CB
:101D60007F906F905F904F903F902F9008959FB716
:101D7000F894809100018A3019F4529A5A9802C05E
:101D80003F9A479884B1886184B985B1877E85B9C7
:101D900084B58F7A84BD84B5836A84BD85B5877325
:101DA00085BD85B5887F826085BD17BC88E788BD05
:101DB00016BC80916E00897F80936E0080916E00CA
:101DC000816080936E009FBF08952091DE03309163
:101DD000DF03280F391FC901019708952091DE0301
:101DE0003091DF03821B930B892F990F990B807819
:101DF00008951F920F920FB60F9211242F933F93C5
:101E00004F935F936F937F938F939F93AF93BF9302
:101E1000EF93FF938091E50381508093E5038F3F1B
:101E2000B9F489E08093E503809108038F5F8170A6
:101E300080930803882319F481E08093E003809164
:101E4000DE039091DF0301969093DF038093DE031E
:101E50008091E3039091E403892BB1F08091E30337
:101E60009091E40301979093E4038093E3038091BE
:101E7000E3039091E403209106033091070382234A
:101E80009323892BD1F406C08FEF9FEF9093070324
:101E900080930603809100018A3039F404C05A9A75
:101EA00005C0479A03C05A9801C047988091CA0755
:101EB000887241F00E945C4705C0809100018A3021
:101EC00081F7EDCFFF91EF91BF91AF919F918F91EE
:101ED0007F916F915F914F913F912F910F900FBE26
:101EE0000F901F9018952091DE033091DF03280F8B
:101EF000391F2150304005C080917A00886C809352
:101F00007A008091DE039091DF03A901481B590BF1
:101F1000CA01892F990F990B87FFEECF0895209161
:101F2000DE033091DF03280F391F215030408091AC
:101F3000DE039091DF03A901481B590BCA01892FC9
:101F4000990F990B87FFF3CF08959FB7F894579A8D
:101F50005F983E9A4698E0EBF0E080818F70808336
:101F6000808183608083E1EBF0E0808184738083F3
:101F70008081846080831092B2008AE08093B300F5
:101F8000E0E7F0E080818A7F8083808182608083C7
:101F90009FBF08951F920F920FB60F9211240F93B7
:101FA0001F932F933F934F935F936F937F938F93E1
:101FB0009F93AF93BF93EF93FF938091000183367C
:101FC00008F0F4C08091090390910A0384309105D0
:101FD00020F4019708F0ADC0D1C0049709F0DDC02E
:101FE00080E390E09093E7038093E60380910B03F6
:101FF00090910C039C01220F331F280F391F8091F1
:1020000094039927880F991F280F391F3695279514
:102010003695279530930C0320930B038091E603AC
:102020009091E703820F931F9093E7038093E60359
:10203000809108086091E40720912C0430912D04D0
:1020400040912E0450912F0480FF12C00091E603AE
:102050001091E7037727882799270E94FC5020E0FA
:1020600030E440E050E00E947051020F131F11C095
:102070000091E6031091E7037727882799270E94AC
:10208000FC5020E030E440E050E00E947051021B20
:10209000130B1093E7030093E6038091E6039091FE
:1020A000E7032091E50743E0249F90011124821764
:1020B000930728F43093E7032093E60310C02091A0
:1020C000E6033091E7038091E607849FC001112465
:1020D0008217930720F49093E7038093E60380919F
:1020E000E6039091E7039093A00680939F0680916A
:1020F000E6039091E7036FEF70E00E9427518D9700
:1021000060F48091E6039091E703835B9F4F909387
:10211000E7038093E60383E101C080E680930D032B
:102120008091E6039091E70380958093B30083EC60
:1021300032C08091E6039091E7038F3F910581F0D3
:1021400078F05F9A83E08093B0008091E6039091ED
:10215000E7038F5F90409093E7038093E6031DC0F1
:1021600083E88093B00080910D038093B30081E0F9
:1021700090E090930A03809309030FC08091E707D2
:102180009927880F991F880F991F90930A038093AE
:1021900009035F9883E08093B000809109039091D8
:1021A0000A03019790930A0380930903FF91EF912B
:1021B000BF91AF919F918F917F916F915F914F915F
:1021C0003F912F911F910F910F900FBE0F901F9075
:1021D00018959FB7F89411B812B88FEF80937E00CE
:1021E000ECE7F0E080818F7180838081807E808346
:1021F000AAE7B0E087E28C93EBE7F0E08081887F8C
:1022000080838C91886C8C939FBF08951F920F924E
:102210000FB60F921124CF92DF92EF92FF920F939D
:102220001F932F933F934F935F936F937F938F935E
:102230009F93AF93BF93CF93DF93EF93FF938091DF
:102240007A00877380937A0080910704C82EC39424
:10225000C0920704853009F47CC0863090F4823047
:1022600009F440C0833030F48823F1F0813009F064
:10227000B8C22FC0833009F43FC0843009F0B1C226
:1022800058C0883009F4C1C0893038F4863009F468
:1022900071C0873009F0A5C29BC0893009F4D2C053
:1022A0008A3009F09EC2ECC180917800909179004B
:1022B000909306048093050481E080930804809144
:1022C000FD039091FE0301969093FE038093FD031E
:1022D00078C2809178009091790090930404809363
:1022E000030491C08091780090917900909302044A
:1022F0008093010484E0C1C140910E0350910F030B
:1023000080917800909179009A01220F331F240F59
:10231000351F63E070E00E942751260F371F369566
:1023200027953695279530930F0320930E0386E06B
:10233000A4C18091260490912704209178003091C7
:102340007900821B930B9093F4038093F30387E04F
:1023500094C180917800909179002091240430916B
:102360002504821B930B9093F6038093F503109240
:10237000080427C2809100018A3069F480917800B6
:10238000909179002091050430910604820F931FEB
:102390009695879517C040910504509106048431A5
:1023A00059F42091780030917900240F351F8FEF78
:1023B00093E0821B930B06C0809178009091790086
:1023C000840F951F9093EF038093EE0381E055C136
:1023D0008091000120910304309104048A3049F473
:1023E0008091780090917900820F931F9695879540
:1023F00006C08091780090917900820F931F90938E
:10240000ED038093EC0382E038C1809100012091BC
:102410000104309102048A3049F48091780090914F
:102420007900820F931F9695879506C0809178005A
:1024300090917900820F931F9093EB038093EA03AE
:1024400085E01BC16091780070917900E0902804CC
:10245000F090290400912A0410912B04882777FD1D
:102460008095982F0E943A50A80197010E94944F9E
:102470000E941D507093F8036093F7032091F703B7
:102480003091F803E091F503F091F6038091F303A6
:102490009091F40397FF03C0909581959F4F64E05E
:1024A00070E00E943B51EB01CF01F7FF03C0909514
:1024B00081959F4F64E070E00E943B51260F371FCB
:1024C0002C0F3D1F3093F8032093F7038091F703FF
:1024D0009091F80302970CF43EC06091280470912B
:1024E000290480912A0490912B0420E030E84BE3EA
:1024F00054E40E94445088230CF078C06091280472
:102500007091290480912A0490912B042AE037EDE0
:1025100043EA5CE30E94954F60932804709329047A
:1025200080932A0490932B0480916A0490916B0409
:10253000845F914008F05AC060912804709129048A
:1025400080912A0490912B042DEC3CEC4CEC5DE343
:102550000E94954F43C08091F7039091F8038F5FDD
:102560009F4F0CF043C06091280470912904809122
:102570002A0490912B0420E030E849E054E40E94C2
:10258000475018169CF56091280470912904809199
:102590002A0490912B042AE037ED43EA5CE30E9481
:1025A000944F609328047093290480932A04909395
:1025B0002B0480916A0490916B04845F9140B0F485
:1025C000609128047091290480912A0490912B0431
:1025D0002DEC3CEC4CEC5DE30E94944F609328049E
:1025E0007093290480932A0490932B04809178009F
:1025F000909179009093E9038093E80320915C0423
:1026000030915D0440915E0450915F048091F70326
:102610009091F803AA2797FDA095BA2F280F391F8C
:102620004A1F5B1F20935C0430935D0440935E045B
:1026300050935F04E0905C04F0905D0400915E04B0
:1026400010915F0460915C0470915D0480915E0460
:1026500090915F0420E034E040E050E00E9470512F
:10266000E21AF30A040B150BE0925C04F0925D048D
:1026700000935E0410935F0483E080930804A1C07C
:10268000E0917800F09179008091FF03909100042F
:10269000E80FF91FF0930004E093FF038091F90322
:1026A0008F5F8093F9038091F903853008F499C016
:1026B000809178009091790090931803809317038C
:1026C0004091FB035091FC038091FA03992787FD09
:1026D00090952FEF30E0829F6001839FD00C929FF6
:1026E000D00C11242091510730915207CA01A3E068
:1026F000880F991FAA95E1F7841B950B60918303BE
:1027000077272C0D3D1D2E1B3F0B409193045091BC
:102710009404241B350BA901649F9001659F300D23
:10272000749F300D1124820F931F68E070E00E94A7
:102730003B517093FC036093FB03E0901303F09014
:1027400014030091150310911603BF01882777FD2C
:102750008095982FA8019701220F331F441F551F02
:102760002E0D3F1D401F511F620F731F841F951FA9
:1027700024E030E040E050E00E94705120931303C9
:10278000309314034093150350931603209151077F
:10279000309152078091130390911403A091150377
:1027A000B0911603C20ED31EC81AD90AD09294044F
:1027B000C09293041092F903109200041092FF0348
:1027C00010C080917C00807E90910804892B8093BA
:1027D0007C00CC2079F080917A00886C80937A001C
:1027E00009C0109208041092070480917C00807E3A
:1027F00080937C00FF91EF91DF91CF91BF91AF91DA
:102800009F918F917F916F915F914F913F912F9108
:102810001F910F91FF90EF90DF90CF900F900FBE20
:102820000F901F9018950F931F931092F003109222
:10283000F1031092F2030CE810E0133019F40B309E
:1028400008F009E08091EA039091EB038C5F9340DC
:1028500024F48091100381500CC08091EA03909180
:10286000EB038750944014F411E006C080911003EC
:102870008F5F8093100310E08091EC039091ED0343
:102880008C5F934024F48091110381500AC08091A1
:10289000EC039091ED038750944034F08091110344
:1028A0008F5F8093110301C01F5F8091EE039091B1
:1028B000EF038C5F934024F48091120381500AC08F
:1028C0008091EE039091EF038750944034F0809113
:1028D00012038F5F8093120301C01F5F87E0809314
:1028E0000F040E945B1C809110038A3028F481E061
:1028F0008093F0038AE006C0863F30F081E0809349
:10290000F00385EF80931003809111038A3028F43F
:1029100081E08093F1038AE006C0863F30F081E0D9
:102920008093F10385EF80931103809112038A3025
:1029300028F481E08093F2038AE006C0863F30F0FD
:1029400081E08093F20385EF8093120380910F045E
:102950008823E1F71092F90380917A00886C8093C4
:102960007A008091F9038823E1F30A3020F48AE0A9
:1029700090E00E94730F015009F05FCF86E490E071
:102980000E94730F1F910F9108951F9383E00E947F
:102990008942182F853108F01A5017BD1092FA039A
:1029A00084E690E00E94730F8091170390911803C2
:1029B00082559340C8F410E017C017BD82E390E041
:1029C0000E94730F80E991E09F938F931F920E9462
:1029D000150C80911703909118030F900F900F9092
:1029E0008255934018F01F5F1A3F38F3612F83E040
:1029F0000E940A40109353078CE291E00E94730FEB
:102A00001F910895EAE1F3E080E2819393E0EA36D2
:102A1000F907D9F708959F92AF92BF92CF92DF92B4
:102A2000EF92FF920F931F9380910A04282F332770
:102A3000C90181709070682F882351F0809109043A
:102A4000882311F0815002C08091190380930904FA
:102A5000A9014270507021FF0CC09091090480912F
:102A60001903981719F41092090403C09F5F9093FB
:102A70000904662321F0452B11F010920904EAE1C4
:102A8000F3E080E2819393E0EA36F907D9F7909179
:102A9000190380910904981710F490930904809108
:102AA0000904282F33278A3040F481E180930B04F6
:102AB0003F932F938AEC95E007C080E180930B044D
:102AC0003F932F9385EC95E09F938F9381E08F93B5
:102AD0000E94150C0F900F900F900F900F90109177
:102AE0000904173009F46DC3183098F4133009F451
:102AF00027C1143038F4113009F469C0123008F0DD
:102B0000C9C01DC0153009F4EBC1163008F00BC365
:102B10006BC11B3009F44AC41C3038F4193009F475
:102B2000ABC31A3008F004C471C31D3009F4A4C546
:102B30001D3008F48DC41E3009F015C6D6C510929C
:102B40000B0485EB95E09F938F9311E01F930E94F8
:102B5000150C84E180930B042091000188E690E03D
:102B60009F938F9387E490E09F938F931F921F9280
:102B7000822F6AE00E941B51892F99279F938F9380
:102B8000822F0E941B5199279F938F9380EA95E093
:102B90009F938F931F930E94150C88E280930B04E0
:102BA0000E94224099279F938F9383E995E09F93FA
:102BB0008F931F930E94150C8CE380930B0483E882
:102BC00095E09F938F931F930E94150C3DC48091B5
:102BD000CA0780FF47C010920B0480919304909124
:102BE00094049F938F9384E795E09F938F931F9313
:102BF0000E94150C84E180930B04809195049091C0
:102C000096049F938F9385E695E09F938F931F93F0
:102C10000E94150C88E280930B0480911703909119
:102C200018039F938F9386E595E09F938F931F934F
:102C30000E94150C8CE380930B0480915307992715
:102C40009F938F9387E495E09F938F931F930E94A8
:102C5000150C8DB79EB744960FB6F8949EBF0FBE65
:102C60008DBF86C584E180930B0483E495E09F9338
:102C70008F931F930E94150C88E280930B0484E3CA
:102C800095E09F938F931F930E94150C8DB79EB76D
:102C90000696E2CF10920B048BE295E09F938F9300
:102CA00011E01F930E94150C84E180930B04609146
:102CB0002C0470912D0480912E0490912F0420E01B
:102CC00034E040E050E00E9470515F934F933F9397
:102CD0002F938CE195E09F938F931F930E94150C87
:102CE00088E280930B0460913404709135048091E4
:102CF00036049091370420E034E040E050E00E9438
:102D000070515F934F933F932F938DE095E09F9386
:102D10008F931F930E94150C8CE380930B0480917A
:102D20006F03909170039F938F938EEF94E09F9326
:102D30008F931F930E94150C8DB79EB746968CCF2C
:102D400010920B04809160079091610720915E07BB
:102D500030915F079F938F933F932F938EEE94E074
:102D60009F938F9311E01F930E94150C84E1809331
:102D70000B04809164079091650720916207309160
:102D800063079F938F933F932F938EED94E09F93D0
:102D90008F931F930E94150C88E280930B048091FF
:102DA00068079091690720916607309167079F93A4
:102DB0008F933F932F938EEC94E09F938F931F9369
:102DC0000E94150C8CE380930B0480916C0790910A
:102DD0006D0720916A0730916B079F938F933F9304
:102DE0002F938EEB94E09BC210920B04E091C307EB
:102DF000FF27EE0FFF1FE45AF84F20813181E09149
:102E0000C207FF27EE0FFF1FE45AF84F8081918120
:102E10003F932F939F938F938EEA94E09F938F938A
:102E200011E01F930E94150C84E180930B04E09144
:102E3000C507FF27EE0FFF1FE45AF84F20813181AD
:102E4000E091C407FF27EE0FFF1FE45AF84F80817F
:102E500091813F932F939F938F938EE994E09F935B
:102E60008F931F930E94150C88E280930B04E091CE
:102E7000C707FF27EE0FFF1FE45AF84F208131816B
:102E8000E091C607FF27EE0FFF1FE45AF84F80813D
:102E900091813F932F939F938F938EE894E09F931C
:102EA0008F931F930E94150C8CE380930B04E09189
:102EB000C907FF27EE0FFF1FE45AF84F2081318129
:102EC000E091C807FF27EE0FFF1FE45AF84F8081FB
:102ED00091813F932F939F938F938EE794E01FC22E
:102EE00010920B0480E794E09F938F9311E01F935F
:102EF0000E94150C0F900F900F9080910001E091AF
:102F00001A04F0911B048D3038F48B3008F04CC05B
:102F10008A3009F0A1C004C0843109F09DC044C0CA
:102F200084E180930B0420911A0430911B0480915A
:102F3000EA039091EB033F932F93821B930B9F9394
:102F40008F9381E694E09F938F931F930E94150CBB
:102F500088E280930B0420911C0430911D04809121
:102F6000EC039091ED033F932F93821B930B9F9360
:102F70008F9382E594E09F938F931F930E94150C8B
:102F80008CE380930B0480911E0490911F04209188
:102F9000EE033091EF039F938F93821B930B9F93CC
:102FA0008F9383E494E04FC084E180930B042091DD
:102FB000EA033091EB03CF0162E070E00E943B51E5
:102FC0007F936F932E1B3F0B3F932F9384E394E0EB
:102FD0009F938F9311E01F930E94150C88E28093BA
:102FE0000B04E0911C04F0911D042091EC0330913E
:102FF000ED03CF0162E070E00E943B517F936F933D
:103000002E1B3F0B3F932F9385E294E09F938F936A
:103010001F930E94150C8CE380930B0420911E04D7
:1030200030911F04E091EE03F091EF03C90162E0DB
:1030300070E00E943B517F936F932E1B3F0B3F9399
:103040002F9386E194E09F938F931F930E94150C1A
:103050008DB79EB7459600CE84E180930B042091F6
:10306000EA033091EB038091100399279F938F938C
:10307000CF0162E070E00E943B517F936F932E1B63
:103080003F0B3F932F9382E094E09F938F9311E047
:103090001F930E94150C88E280930B04E0911C049E
:1030A000F0911D042091EC033091ED038091110308
:1030B00099279F938F93CF0162E070E00E943B516C
:1030C0007F936F932E1B3F0B3F932F938EEE93E0D6
:1030D0009F938F931F930E94150C8CE380930B0496
:1030E00020911E0430911F04E091EE03F091EF0354
:1030F0008091120399279F938F93C90162E070E03A
:103100000E943B517F936F932E1B3F0B3F932F9356
:103110008AED93E09F938F931F930E94150C8DB7B8
:103120009EB74B9699CD10920B048DEC93E09F9334
:103130008F9311E01F930E94150C84E180930B0480
:1031400080912404909125042091F5033091F60399
:103150009F938F933F932F938CEB93E09F938F9349
:103160001F930E94150C88E280930B048091260423
:10317000909127042091F3033091F4039F938F9350
:103180003F932F938BEA93E09F938F931F930E941B
:10319000150C8CE380930B04609128047091290432
:1031A00080912A0490912B040E941D507F936F936D
:1031B0008091A7079091A8079F938F938AE993E046
:1031C0003EC184E180930B0480910E0390910F0324
:1031D0009F938F938CE893E09F938F9311E01F93BD
:1031E0000E94150C88E280930B0480911304909147
:1031F00014049F938F938EE793E09F938F931F9375
:103200000E94150C8DB79EB70A9626CD10920B041E
:103210008FE693E09F938F9311E01F930E94150C0C
:1032200084E180930B0480917103909172039F93CA
:103230008F9380E693E09F938F931F930E94150CCA
:1032400088E280930B0480916F03909170039F93A9
:103250008F9381E593E09F938F931F930E94150CAA
:103260008CE380930B0480916004909161049F93A0
:103270008F9382E493E06EC210920B0480917504E8
:10328000909176049F938F9380916D0490916E043A
:103290009F938F9380E393E09F938F9311E01F930D
:1032A0000E94150C84E180930B0480917704909127
:1032B00078049F938F9380916F04909170049F93F3
:1032C0008F938EE193E09F938F931F930E94150C31
:1032D00088E280930B048091790490917A049F9303
:1032E0008F9380917104909172049F938F938CE0DF
:1032F00093E09F938F931F930E94150C8CE3809310
:103300000B0480917B0490917C049F938F93809118
:103310007304909174049F938F938AEF92E09F932C
:103320008F931F930E94150C8DB79EB74C9694CC2B
:1033300010920B0482EF92E09F938F9311E01F9302
:103340000E94150C84E180930B04809194039927CB
:103350009F938F9384EE92E09F938F931F930E948D
:10336000150C88E280930B048091E6039091E703AB
:103370009F938F9386ED92E09F938F931F930E946C
:10338000150C8CE380930B048091E60799279F939B
:103390008F938091E50799279F938F9388EC92E014
:1033A0009F938F931F930E94150C53CC10920B0484
:1033B00088EB92E09F938F9311E01F930E94150C6E
:1033C00084E180930B0480916E06992787FD909588
:1033D0009F938F9380916D06992787FD90959F937A
:1033E0008F9388EA92E09F938F931F930E94150C0E
:1033F00088E280930B0480916F06992787FD909552
:103400009F938F938091700699279F938F9388E95C
:1034100092E09F938F931F930E94150C8CE38093EF
:103420000B048091740699279F938F938091710666
:10343000992787FD90959F938F9388E892E09F93BB
:103440008F931F930E94150C8DB79EB7489604CC9E
:103450008091BD05882371F410920B048BE792E0F4
:103460009F938F9381E08F930E94150C0F900F9084
:103470000F907EC120919805223071F02330B1F079
:10348000809197052223E1F410920B0499279F93D2
:103490008F938AE692E01BC010920B0480919705EF
:1034A00099279F938F9389E592E011C010920B04A6
:1034B0008091970599279F938F9388E492E007C0A6
:1034C00010920B0499279F938F9387E392E09F9329
:1034D0008F9381E08F930E94150C0F900F900F90A7
:1034E0000F900F90A0909905B0909A05C0909B0501
:1034F000D0909C05C601B50120E836E948E950E0C6
:103500000E9470517B018C0184E180930B04C801FF
:10351000B70120E137E240E050E00E9470512AE01C
:1035200030E040E050E00E947051C90137FF03C015
:10353000909581959F4F9F938F93C801B70120E18C
:1035400037E240E050E00E947051C90137FF03C0EC
:10355000909581959F4F9F938F93C601B50120E869
:1035600036E948E950E00E9470513F932F9382E280
:1035700092E09F938F9381E0982E9F920E94150C6A
:10358000A0909D05B0909E05C0909F05D090A0058D
:10359000C601B50120E836E948E950E00E947051C3
:1035A0007B018C0188E280930B04C801B70120E104
:1035B00037E240E050E00E9470512AE030E040E005
:1035C00050E00E947051C90137FF03C0909581956A
:1035D0009F4F9F938F93C801B70120E137E240E0EE
:1035E00050E00E947051C90137FF03C0909581954A
:1035F0009F4F9F938F93C601B50120E836E948E9B4
:1036000050E00E9470513F932F938DE092E09F9382
:103610008F939F920E94150CE090A105F090A20557
:103620000091A3051091A4058CE380930B04C801BD
:10363000B70128EE33E040E050E00E9470519B015A
:1036400077FF03C0309521953F4F3F932F93C801DB
:10365000B70128EE33E040E050E00E9470513F9304
:103660002F938EEF91E09F938F939F920E94150C62
:103670008DB79EB74996F0CA10920B0483EF91E084
:103680009F938F9311E01F930E94150C84E1809308
:103690000B048091B708992787FD90959F938F938E
:1036A00084EE91E09F938F931F930E94150C88E204
:1036B00080930B048091B808992787FD90959F937C
:1036C0008F9385ED91E09F938F931F930E94150C2C
:1036D0008CE380930B048091B908992787FD90951E
:1036E0009F938F9386EC91E035C010920B048CEB86
:1036F00091E09F938F9311E01F930E94150C84E13A
:1037000080930B048091BA089091BB089F938F938C
:103710008EEA91E09F938F931F930E94150C88E28D
:1037200080930B048091BC089091BD089F938F9368
:1037300080EA91E09F938F931F930E94150C8CE376
:1037400080930B048091BE089091BF089F938F9344
:1037500082E991E09F938F931F930E94150C8DB780
:103760009EB7429679CA115010931903109209041A
:1037700010920A041F910F91FF90EF90DF90CF906D
:10378000BF90AF909F90089587B18C6087B94298A1
:10379000439810920C0480E880936A0310920D0401
:1037A00080936B03089580910E04815080930E04E2
:1037B0008F3F09F068C084E080930E048091F70782
:1037C0008B3F80F080919A03873E28F08091F60726
:1037D00088231CF124C08A3028F48091F6078823BE
:1037E000F4F01BC080910C04815080930C048F3F37
:1037F000B9F480919A03815080930C0480916A03FC
:10380000813011F480E801C0869580936A0380912D
:103810006A039091F607892311F0429A01C04298F9
:103820008091F9078B3F88F080919B03873E28F0B9
:103830008091F807882324F106C08A3030F4809103
:10384000F80787FF1DC04398089580910D048150AB
:1038500080930D048F3FB9F480919B038150809336
:103860000D0480916B03813011F480E801C08695CE
:1038700080936B0380916B039091F807892311F07B
:10388000439A0895439808959FB7F8943998389AC1
:1038900088B1836088B9E9EBF0E080818C7F808318
:1038A0008AE28093B80010920F04109210041092D4
:1038B00011049FBF089585EA8093BC00089584E9B0
:1038C0008093BC0008958093BB0085E88093BC0082
:1038D000089585EC8093BC00089585E88093BC0032
:1038E0000895EF92FF920F931F938CEBE82EF12C2B
:1038F00084E9F701808310920F040BEB10E0F801CC
:10390000808180931004109210041092110480E8BA
:10391000F70180831092BD001092BA00F801108266
:103920001092B9001092B8000E94441C85EAF70179
:103930008083F801108285E8F70180831F910F9141
:10394000FF90EF9008951F920F920FB60F921124DF
:103950008F939F93EF93FF9380910F048F5F8093DA
:103960000F048150853009F465C0863090F48230B0
:1039700009F447C0833030F4882309F1813009F01D
:10398000B8C022C0833009F44EC0843009F0B1C001
:103990004FC0883009F478C0893038F4863009F493
:1039A00052C0873009F0A5C06DC08A3009F483C0C9
:1039B0008A3008F46EC08B3009F09BC07EC08091C5
:1039C0001004880F8E5A0EC080911004813081F04F
:1039D000813030F0823079F0833009F099C00EC028
:1039E0008091A0078093BB0085E88093BC0090C0C5
:1039F0008091B207F7CF8091A907F4CF8091C107DA
:103A0000F1CF84E98093BC0080911004833040F4AE
:103A1000809110048F5F8093100410920F0462C095
:103A2000109210045FC080911104880F8D5ADACF74
:103A300085ECDBCFE0911104FF278091BB00EC5AAD
:103A4000F84F8083D1CFE0911104FF278091BB0014
:103A5000E85AF84F8083809111048F5F809311049E
:103A600080911104843010F01092110484E9809345
:103A7000BC0010920F048AE090E090936D03809355
:103A80006C0346C088E9AECF80911204880F805F36
:103A9000A9CF80911204813041F0813018F082303A
:103AA000B9F506C0809110039DCF809111039ACF84
:103AB0008091120397CF80E895CF84E98093BC0072
:103AC0008AE090E090936D0380936C0380911204E0
:103AD000823050F4809112048F5F8093120487E04B
:103AE00080930F0485EA81CF1092120410920F0484
:103AF0000FC084E98093BC0010920F048AE090E02C
:103B000090936D0380936C03109210041092110433
:103B1000FF91EF919F918F910F900FBE0F901F908B
:103B200018959FB7F89456985E9A8AB180638AB9BF
:103B30008BB18F7C8BB9809100018A3011F4539A3C
:103B40005B98809180008C708093800080918100D0
:103B5000837E8093810080918100836C80938100BB
:103B6000809182008F738093820080916F00897FA3
:103B700080936F0080916F00816280936F0010923C
:103B80001404109213049FBF08951F920F920FB652
:103B90000F9211242F933F935F936F937F938F9393
:103BA0009F93AF93BF9380911504882391F4209144
:103BB000130430911404809113049091140468E06C
:103BC00070E00E943B51261B370B30931404209366
:103BD000130410921504BF91AF919F918F917F9123
:103BE0006F915F913F912F910F900FBE0F901F909B
:103BF00018951F920F920FB60F9211240F931F93D7
:103C00002F933F934F935F936F937F938F939F93E4
:103C1000AF93BF93CF93DF93EF93FF9320918600F1
:103C2000309187008091160490911704281B390B5E
:103C300080918600909187009093170480931604DA
:103C4000C9018D5494400091180410911904835FA8
:103C50009A4188F4043011053CF010926E03809173
:103C600015048F5F8093150481E090E09093190410
:103C70008093180498C00E3011050CF094C0C9014F
:103C80008B5F9040845B914008F072C0E901C25D97
:103C9000D140F801EE0FFF1FE45AF84F8081918167
:103CA0009E01281B390BC90137FF03C090958195F0
:103CB0009F4F069784F48091130490911404883CDC
:103CC00091054CF480911304909114040A969093FA
:103CD000140480931304F801EE0FFF1FE45AF84F09
:103CE00020813181C901880F991F820F931F8C0F8A
:103CF0009D1F64E070E00E943B519B01CE01019644
:103D0000861797071CF42150304006C021976C1786
:103D10007D0714F42F5F3F4F80911304909114049A
:103D2000E801CC0FDD1F833C9105BCF0FE01E45A95
:103D3000F84F80819181A901481B590BCA0163E0AA
:103D400070E00E943B51CB01880F991F860F971F8F
:103D5000C658D84F9983888304C0C658D84F198253
:103D60001882F801EE0FFF1FE45AF84F31832083C9
:103D7000F8013196F0931904E0931804E530F10549
:103D800011F45D9A06C05D98E630F10511F45C9A75
:103D900001C05C98809100018A3029F4379711F4B2
:103DA0005B9A01C05B988091130490911404892B55
:103DB00049F0809113049091140401979093140496
:103DC00080931304FF91EF91DF91CF91BF91AF9159
:103DD0009F918F917F916F915F914F913F912F9123
:103DE0001F910F910F900FBE0F901F9018952F925B
:103DF0003F924F925F926F927F928F929F92AF927B
:103E0000BF92CF92DF92EF92FF920F931F93CF93C7
:103E1000DF93CDB7DEB762970FB6F894DEBF0FBE63
:103E2000CDBF8091EE039091EF03C0901E04D0901F
:103E30001F04C81AD90AD092B107C092B007809166
:103E4000EC039091ED03988B8F87A0911C04B091A7
:103E50001D04BA8BA98BE091EA03F091EB03FE8776
:103E6000ED8780911A0490911B049C878B87609149
:103E7000F5037091F603E0909807F09099070027FA
:103E8000F7FC0095102F882777FD8095982F2CE060
:103E900030E040E050E00E94FC50E60EF71E081FA4
:103EA000191FC801B70122E030E040E050E00E9455
:103EB000705130939907209398076091F3037091A4
:103EC000F403E090BB07F090BC070027F7FC0095D7
:103ED000102F882777FD8095982F2CE030E040E068
:103EE00050E00E94FC50E60EF71E081F191FC80183
:103EF000B70122E030E040E050E00E947051309382
:103F0000BC072093BB072091F7033091F803609121
:103F1000A7077091A807882777FD8095982F4427D9
:103F200037FD4095542F620F731F841F951F22E0A9
:103F300030E040E050E00E9470513093A807209399
:103F4000A7072091F5033091F603C901880F991F47
:103F5000820F931F880F991F880F991FAA2797FD1B
:103F6000A095BA2F209154043091550440915604E5
:103F700050915704280F391F4A1F5B1F2093540488
:103F80003093550440935604509357042091F30303
:103F90003091F403C901880F991F820F931F880F76
:103FA000991F880F991FAA2797FDA095BA2F2091D6
:103FB00058043091590440915A0450915B04280FE1
:103FC000391F4A1F5B1F20935804309359044093B4
:103FD0005A0450935B042091F5033091F6038091CD
:103FE000640490916504820F931F909365048093FD
:103FF00064042091F3033091F4038091660490915E
:104000006704820F931F90936704809366048091E6
:104010006804909169040196909369048093680400
:104020003601882477FC8094982C2090500430909E
:1040300051044090520450905304260C371C481CE5
:10404000591C2092500430925104409252045092D4
:1040500053048091B3079091B407A091B507B09134
:10406000B607860D971DA81DB91D8093B3079093C1
:10407000B407A093B507B093B6078837E7E19E076A
:10408000E7E0AE07E0E0BE0764F088579741A7403D
:10409000B0408093B3079093B407A093B507B09353
:1040A000B6078091B3079091B407A091B507B0917E
:1040B000B607B7FF0CC08858984EA84FBF4F8093E3
:1040C000B3079093B407A093B507B093B607F091E8
:1040D0009B04FA87FF2309F07EC080919C0488230B
:1040E00009F079C08091CA0786FF75C0E0909603F9
:1040F000FF24002711272091400430914104409172
:10410000420450914304C401B3010E94FC5020E0DA
:1041100038E040E050E00E947051CA01B901A801A6
:1041200097010E94FC5020E030E140E050E00E9406
:10413000705159016A012093DB043093DC044093F1
:10414000DD045093DE0420914804309149044091ED
:104150004A0450914B04C401B3010E94FC5020E07A
:1041600038E040E050E00E947051CA01B901A80156
:1041700097010E94FC5020E030E140E050E00E94B6
:1041800070512093D7043093D8044093D9045093AE
:10419000DA04D601C501D7FE07C0B095A095909569
:1041A00081959F4FAF4FBF4F81389105A105B10554
:1041B00074F457FF07C050954095309521953F4FB7
:1041C0004F4F5F4F2138310541055105A4F081E083
:1041D0008093630410C01092D7041092D8041092F8
:1041E000D9041092DA041092DB041092DC041092CD
:1041F000DD041092DE048091DB049091DC04A09138
:10420000DD04B091DE048E839F83A887B9878091F7
:10421000D7049091D804A091D904B091DA048A838C
:104220009B83AC83BD8380919703682E7724882479
:104230009924EF84F888A989BA89EA1AFB0AEE81E1
:10424000FF81EE0EFF1E6A817B818C819D81A4011E
:1042500093010E94FC5020E032E040E050E00E94D8
:104260007051E20EF31EF092AF07E092AE07970195
:10427000442737FD4095542F80914C0490914D0474
:10428000A0914E04B0914F04820F931FA41FB51F3D
:1042900080934C0490934D04A0934E04B0934F042C
:1042A0008091970490919804E81AF90A0027F7FC86
:1042B0000095102F8091480490914904A0914A04E0
:1042C000B0914B04E80EF91E0A1F1B1FE092480430
:1042D000F092490400934A0410934B04A090790390
:1042E000B0907A03C0907B03D0907C03AE14BF04DF
:1042F000C006D106C4F480E197E2A0E0B0E08A19DC
:104300009B09AC09BD098093480490934904A0938C
:104310004A04B0934B0480934C0490934D04A093B3
:104320004E04B0934F0422273327A9012A193B09D1
:104330004C095D098091480490914904A0914A0478
:10434000B0914B0482179307A407B507B4F4D601C4
:10435000C50180519742A040B0408093480490939B
:104360004904A0934A04B0934B0480934C04909367
:104370004D04A0934E04B0934F048091EC039091B0
:10438000ED030F9734F488E19CEF9093AF0780938F
:10439000AE078091EC039091ED03079734F480E32E
:1043A00098EF9093AF078093AE07F0910001F983E7
:1043B000FA30A9F48091EC039091ED03835F934070
:1043C00034F088EE93E09093AF078093AE0780912E
:1043D000EC039091ED038A5F9340DCF014C0809170
:1043E000EC039091ED03855E974034F088EE93E006
:1043F0009093AF078093AE078091EC039091ED030B
:10440000835F974034F080ED97E09093AF078093FF
:10441000AE07ED84FE848B859C85E81AF90AAA8193
:10442000BB81EA1AFB0A6E817F8188859985A40188
:1044300093010E94FC5020E032E040E050E00E94F6
:104440007051E21AF30AF092BA07E092B9079701A5
:10445000442737FD4095542F8091440490914504A2
:10446000A0914604B0914704820F931FA41FB51F6B
:104470008093440490934504A0934604B09347046A
:104480008091990490919A04E81AF90A0027F7FCA0
:104490000095102F8091400490914104A091420416
:1044A000B0914304E80EF91E0A1F1B1FE09240045E
:1044B000F09241040093420410934304A0907503CA
:1044C000B0907603C0907703D0907803AE14BF0409
:1044D000C006D106C4F488EA91E6A0E0B0E08A19EB
:1044E0009B09AC09BD098093400490934104A093BB
:1044F0004204B09343048093440490934504A093F2
:104500004604B093470422273327A9012A193B09FF
:104510004C095D098091400490914104A0914204AE
:10452000B091430482179307A407B507B4F4D601EA
:10453000C501885A9146A040B040809340049093B2
:104540004104A0934204B0934304809344049093A5
:104550004504A0934604B09347048091EA039091E8
:10456000EB030F9734F488E19CEF9093BA078093A4
:10457000B9078091EA039091EB03079734F480E345
:1045800098EF9093BA078093B907B981BA30A9F42C
:104590008091EA039091EB03835F934034F088EEBF
:1045A00093E09093BA078093B9078091EA039091C2
:1045B000EB038A5F9340DCF014C08091EA03909192
:1045C000EB03855E974034F088EE93E09093BA0752
:1045D0008093B9078091EA039091EB03835F974042
:1045E00034F080ED97E09093BA078093B9078091FB
:1045F0007A00886C80937A0020923C0430923D04CB
:1046000040923E0450923F048091400490914104B6
:10461000A0914204B091430480932C0490932D0404
:10462000A0932E04B0932F048091480490914904E4
:10463000A0914A04B0914B048093340490933504C4
:10464000A0933604B09337048091440490914504BC
:10465000A0914604B09147048093300490933104B4
:10466000A0933204B093330480914C0490914D0494
:10467000A0914E04B0914F04809338049093390474
:10468000A0933A04B0933B048091CA0787FF3FC0D0
:10469000BA85BB23E1F580919C048823C1F5209164
:1046A000B9073091BA07293C310524F0C90180527D
:1046B000934007C0EFEF28333E076CF4C901805EDA
:1046C0009C4F220F331F220F331F280F391F3093A7
:1046D000BA072093B9072091AE073091AF07293C64
:1046E000310524F0C9018052934007C0FFEF283301
:1046F0003F076CF4C901805E9C4F220F331F220FCD
:10470000331F280F391F3093AF072093AE076296EF
:104710000FB6F894DEBF0FBECDBFDF91CF911F91D2
:104720000F91FF90EF90DF90CF90BF90AF909F9050
:104730008F907F906F905F904F903F902F90089553
:104740001F938091130490911404813A91050CF405
:1047500099C38091CD078B3F98F08B3F19F48091DE
:104760006D040EC08C3F19F480916F0409C08D3F19
:1047700019F48091710404C08E3F21F48091730478
:10478000809384038091CC078B3F98F08B3F19F482
:1047900080916D040EC08C3F19F480916F0409C0A4
:1047A0008D3F19F48091710404C08E3F21F48091F3
:1047B00073048093830380918303882319F41092F8
:1047C000830305C0843618F084E6809383038091C8
:1047D000CE078B3F98F08B3F19F480916D040EC08B
:1047E0008C3F19F480916F0409C08D3F19F48091BA
:1047F000710404C08E3F21F480917304809385037B
:1048000080918503882319F41092850305C08436AE
:1048100018F084E6809385038091D0078B3F98F051
:104820008B3F19F480916D040EC08C3F19F4809178
:104830006F0409C08D3F19F48091710404C08E3F4C
:1048400021F480917304809386038091D7078B3F76
:1048500098F08B3F19F480916D040EC08C3F19F4D1
:1048600080916F0409C08D3F19F48091710404C0D8
:104870008E3F21F480917304809387038091D80741
:104880008B3F98F08B3F19F480916D040EC08C3FE4
:1048900019F480916F0409C08D3F19F4809171045F
:1048A00004C08E3F21F4809173048093880380912B
:1048B00088038B3010F48AE002C08F3F11F480939C
:1048C00088038091D9078B3F98F08B3F19F4809132
:1048D0006D040EC08C3F19F480916F0409C08D3FA8
:1048E00019F48091710404C08E3F21F48091730407
:1048F000809389038091DE078B3F98F08B3F19F4FA
:1049000080916D040EC08C3F19F480916F0409C032
:104910008D3F19F48091710404C08E3F21F4809181
:10492000730480938B038091DF078B3F98F08B3F5C
:1049300019F480916D040EC08C3F19F480916F04BE
:1049400009C08D3F19F48091710404C08E3F21F499
:104950008091730480938C038091E0078B3F98F0E3
:104960008B3F19F480916D040EC08C3F19F4809137
:104970006F0409C08D3F19F48091710404C08E3F0B
:1049800021F48091730480938D038091E1078B3F24
:1049900098F08B3F19F480916D040EC08C3F19F490
:1049A00080916F0409C08D3F19F48091710404C097
:1049B0008E3F21F48091730480938E038091E207EF
:1049C0008B3F98F08B3F19F480916D040EC08C3FA3
:1049D00019F480916F0409C08D3F19F4809171041E
:1049E00004C08E3F21F48091730480938F038091E3
:1049F000F2078B3F98F08B3F19F480916D040EC045
:104A00008C3F19F480916F0409C08D3F19F4809197
:104A1000710404C08E3F21F480917304809390034D
:104A20008091F3078B3F98F08B3F19F480916D04D0
:104A30000EC08C3F19F480916F0409C08D3F19F4AA
:104A40008091710404C08E3F21F48091730480939F
:104A500091038091F4078B3F98F08B3F19F480917C
:104A60006D040EC08C3F19F480916F0409C08D3F16
:104A700019F48091710404C08E3F21F48091730475
:104A8000809392038091F5078B3F98F08B3F19F448
:104A900080916D040EC08C3F19F480916F0409C0A1
:104AA0008D3F19F48091710404C08E3F21F48091F0
:104AB0007304809393038091E3078B3F98F08B3FBF
:104AC00019F480916D040EC08C3F19F480916F042D
:104AD00009C08D3F19F48091710404C08E3F21F408
:104AE00080917304809394038091E8078B3F98F042
:104AF0008B3F19F480916D040EC08C3F19F48091A6
:104B00006F0409C08D3F19F48091710404C08E3F79
:104B100021F480917304809395038091EB078B3F80
:104B200098F08B3F19F480916D040EC08C3F19F4FE
:104B300080916F0409C08D3F19F48091710404C005
:104B40008E3F21F480917304809396038091EC074B
:104B50008B3F98F08B3F19F480916D040EC08C3F11
:104B600019F480916F0409C08D3F19F4809171048C
:104B700004C08E3F21F48091730480939703809149
:104B8000F1078B3F98F08B3F19F480916D040EC0B4
:104B90008C3F19F480916F0409C08D3F19F4809106
:104BA000710404C08E3F21F48091730480939803B4
:104BB0008091F7078B3F98F08B3F19F480916D043B
:104BC0000EC08C3F19F480916F0409C08D3F19F419
:104BD0008091710404C08E3F21F48091730480930E
:104BE0009A0380919A03823010F481E002C08F3FD3
:104BF00011F480939A038091F9078B3F98F08B3FD3
:104C000019F480916D040EC08C3F19F480916F04EB
:104C100009C08D3F19F48091710404C08E3F21F4C6
:104C20008091730480939B0380919B03823010F4E6
:104C300081E002C08F3F11F480939B038091FA07BB
:104C40008B3F98F08B3F19F480916D040EC08C3F20
:104C500019F480916F0409C08D3F19F4809171049B
:104C600004C08E3F21F48091730480939C03809153
:104C7000FB078B3F98F08B3F19F480916D040EC0B9
:104C80008C3F19F480916F0409C08D3F19F4809115
:104C9000710404C08E3F21F48091730480939D03BE
:104CA0008091FC078B3F98F08B3F19F480916D0445
:104CB0000EC08C3F19F480916F0409C08D3F19F428
:104CC0008091710404C08E3F21F48091730480931D
:104CD0009E038091FD078B3F98F08B3F19F48091E4
:104CE0006D040EC08C3F19F480916F0409C08D3F94
:104CF00019F48091710404C08E3F21F480917304F3
:104D000080939F038091FE078B3F98F08B3F19F4AF
:104D100080916D040EC08C3F19F480916F0409C01E
:104D20008D3F19F48091710404C08E3F21F480916D
:104D300073048093A0038091FF078B3F98F08B3F13
:104D400019F480916D040EC08C3F19F480916F04AA
:104D500009C08D3F19F48091710404C08E3F21F485
:104D6000809173048093A103809104088B3F98F095
:104D70008B3F19F480916D040EC08C3F19F4809123
:104D80006F0409C08D3F19F48091710404C08E3FF7
:104D900021F4809173048093A2038091A2038B304D
:104DA00010F48AE002C08F3F11F48093A203809137
:104DB00002088B3F98F08B3F19F480916D040EC070
:104DC0008C3F19F480916F0409C08D3F19F48091D4
:104DD000710404C08E3F21F4809173048093A30377
:104DE000809103088B3F98F08B3F19F480916D04FC
:104DF0000EC08C3F19F480916F0409C08D3F19F4E7
:104E00008091710404C08E3F21F4809173048093DB
:104E1000A403809106088B3F98F08B3F19F4809192
:104E20006D040EC08C3F19F480916F0409C08D3F52
:104E300019F48091710404C08E3F21F480917304B1
:104E40008093990310918B03612F772767FD7095ED
:104E5000872F972F0E943A5017FF06C020E030E0BE
:104E600040E853E40E94954F27E137EB41ED58E3CA
:104E70000E94B45060937F037093800380938103FA
:104E8000909382031F91089580916C0480FD25C04A
:104E90001092B2071092A0071092A9071092C107B2
:104EA0008091D503882311F08093A0078091D603C9
:104EB000882311F08093B2078091D703882311F0E3
:104EC0008093C1078091D803882311F08093A907AC
:104ED00080916C04857F80936C048091A007992752
:104EE0009093900680938F068091B20799279093B4
:104EF0009206809391068091C1079927909394061A
:104F0000809393068091A9079927909396068093A2
:104F1000950610920F040E945B1C08958091000179
:104F20008D3011F40E94131480917A00877380935E
:104F30007A008091EA039091EB039093BA078093F3
:104F4000B9078091EC039091ED039093AF078093A4
:104F5000AE078091EE039091EF039093B107809399
:104F6000B0076091F5037091F603882777FD80956F
:104F7000982F2CE030E040E050E00E94FC5070930D
:104F80009907609398076091F3037091F403882761
:104F900077FD8095982F0E94FC507093BC0760931A
:104FA000BB078091F7039091F8039093A807809333
:104FB000A70780917A00886C80937A006091ED0752
:104FC00077278827992724EC39E040E050E00E94B9
:104FD000FC506093750370937603809377039093EE
:104FE00078036091EE077727882799270E94FC5065
:104FF0006093790370937A0380937B0390937C038F
:1050000008951092250410922404109227041092FF
:10501000260480E090E0A0E0B0E080932804909324
:105020002904A0932A04B0932B0410921B0410921D
:105030001A0410921D0410921C0410921F04109266
:105040001E0410929603109297031092FA030E9486
:105050008E2784E690E00E94730F0E948E27809135
:10506000CA0780FF10C08091170390911803875BD7
:10507000934038F480911703909118038E5E92400C
:1050800010F40E94C5144091EA035091EB03509331
:105090001B0440931A042091EC033091ED033093EC
:1050A0001D0420931C048091EE039091EF039093D4
:1050B0001F0480931E0430932104209320045093F6
:1050C00023044093220484E00E94124080509440C4
:1050D00058F18091BB079091BC0797FF03C0909552
:1050E00081959F4F6CE070E00E943B5170932704C4
:1050F00060932604809198079091990797FF03C0C9
:10510000909581959F4F6CE070E00E943B517093A9
:105110002504609324046091E8037091E9038827D3
:1051200077FD8095982F17C084E00E9412409093DD
:1051300025048093240486E00E9412409093270463
:105140008093260488E00E941240AA2797FDA0952C
:10515000BA2FBC01CD010E943A506093280470938D
:10516000290480932A0490932B04109240041092F7
:10517000410410924204109243041092440410928D
:10518000450410924604109247041092480410926D
:10519000490410924A0410924B0410924C0410924D
:1051A0004D0410924E0410924F041092500410922D
:1051B000510410925204109253041092BA071092A4
:1051C000B9071092AF071092AE071092B107109274
:1051D000B00784E690E00E94730F809113039091D2
:1051E0001403A0911503B091160390935207809376
:1051F00051071092FC031092FB0310925C04109272
:105200005D0410925E0410925F0480916F03909190
:105210007003909372038093710382E390E0909304
:10522000E4038093E3036091ED07772788279927AC
:1052300024EC39E040E050E00E94FC506856754C88
:105240008F4F9F4F6093750370937603809377031E
:10525000909378036091EE077727882799270E941B
:10526000FC506856754C8F4F9F4F60937903709335
:105270007A0380937B0390937C0310927E031092B9
:105280007D03109286041092850410928804109277
:10529000870460916F0370917003882777FD809574
:1052A000982F2BE035E040E050E00E94FC506093E6
:1052B000B3077093B4078093B5079093B607109225
:1052C000B8071092B70780916C04846080936C04D7
:1052D0008FEF8093A5038091F0079927A4E0880FB2
:1052E000991FAA95E1F78093A60380E28093A70314
:1052F00008951F93182F0EC080916C0480FD0CC080
:1053000084E690E09093E4038093E3038AEF90E0D7
:105310000E948F0F115080F71F9108958091C2074E
:10532000E82FFF27EE0FFF1FE45AF84F808191818D
:105330008D5E9F4F14F01092A903808191818A5B4A
:105340009F4FDCF48091A9038823B9F481E0809316
:10535000A903809162048F5F80936204809162044C
:10536000853028F4809162040E947929089588EE9E
:1053700093E09093E4038093E30308952F923F9288
:105380004F925F926F927F928F929F92AF92BF9255
:10539000CF92DF92EF92FF920F931F93CF93DF9301
:1053A000CDB7DEB7A3970FB6F894DEBF0FBECDBF63
:1053B0000E94F71E409100014C3010F4299A01C060
:1053C000299820918304309184048091D407682F18
:1053D0007727665F7F4F7C836B836217730714F4B4
:1053E0003C832B838091130490911404883791059A
:1053F0000CF074C080910301882399F48091060316
:10540000909107038F5F9F4F61F488E99AE390932F
:10541000E4038093E30380E09CE090930703809390
:1054200006038091C1049091C204009731F0019766
:105430009093C2048093C10405C080916C048E7E59
:1054400080936C044A3011F0443111F4289A01C061
:10545000289880916A0490916B04895E934008F4C7
:105460002BC48091DB07E82FFF27FC83EB8380911F
:105470006C04806180936C04E091C2072E2F332767
:10548000220F331FF901E658F84F11821082A091C4
:10549000C307BB27AA0FBB1FFD01E658F84F1182B7
:1054A0001082E091C5074E2F5527440F551FCA01A2
:1054B0008658984FFC0111821082245A384FF90106
:1054C00011821082A45AB84F11961C921E92445A0F
:1054D000584FDA0111961C921E92F6C38091130464
:1054E000909114048D3891050CF4EEC380916C04F6
:1054F0008F7E80936C048091DC0722E3829FC00141
:1055000011249093C2048093C104EB81FC81B9976C
:105510008CF080916C0480FF0DC080916A049091A2
:105520006B04FFEF8F3F9F07D9F1019690936B04B7
:1055300080936A0480916A0490916B048F3F910577
:1055400009F070F51092D3041092D4041092D5048F
:105550001092D6041092CF041092D0041092D1046D
:105560001092D20410928204109281048A3F910515
:10557000E1F481E090E09093B9048093B804109234
:10558000500410925104109252041092530410923D
:10559000CB041092CC041092CD041092CE0405C01E
:1055A00080916C04826080936C0420916D04309132
:1055B0006E048091C607E82FFF27EE0FFF1FE45A05
:1055C000F84F8081918182599F4F281739071CF429
:1055D0002F5F3F4F0CC08081918182599F4F82176E
:1055E00093074CF42115310531F0215030403093B0
:1055F0006E0420936D0420916F04309170048091AB
:10560000C707E82FFF27EE0FFF1FE45AF84F8081EE
:10561000918182599F4F281739071CF42F5F3F4F04
:105620000CC08081918182599F4F821793074CF45F
:105630002115310531F02150304030937004209312
:105640006F0420917104309172048091C807E82F93
:10565000FF27EE0FFF1FE45AF84F80819181825996
:105660009F4F281739071CF42F5F3F4F0CC08081D4
:10567000918182599F4F821793074CF42115310570
:1056800031F0215030403093720420937104209106
:105690007304309174048091C907E82FFF27EE0F3F
:1056A000FF1FE45AF84F8081918182599F4F28173C
:1056B00039071CF42F5F3F4F0CC0808191818259C4
:1056C0009F4F821793074CF42115310531F021507B
:1056D000304030937404209373042091750430910A
:1056E000760480916E0790916F0782599F4F28171B
:1056F00039071CF42F5F3F4F0EC080916E079091C9
:105700006F0782599F4F821793074CF4211531057B
:1057100031F021503040309376042093750420916D
:1057200077043091780480917007909171078259C5
:105730009F4F281739071CF42F5F3F4F0EC08091F1
:1057400070079091710782599F4F821793074CF40D
:105750002115310531F021503040309378042093E9
:1057600077042091790430917A04809172079091A6
:10577000730782599F4F281739071CF42F5F3F4F3B
:105780000EC0809172079091730782599F4F8217C4
:1057900093074CF42115310531F0215030403093FE
:1057A0007A042093790420917B0430917C048091C9
:1057B00074079091750782599F4F281739071CF479
:1057C0002F5F3F4F0EC080917407909175078259EB
:1057D0009F4F821793074CF42115310531F021506A
:1057E000304030937C0420937B0480916D04909131
:1057F0006E0497FF05C010926E0410926D040AC0EB
:105800008F3F910539F034F08FEF90E090936E0464
:1058100080936D0480916F049091700497FF05C090
:105820001092700410926F040AC08F3F910539F0F6
:1058300034F08FEF90E09093700480936F04809128
:1058400071049091720497FF05C010927204109237
:1058500071040AC08F3F910539F034F08FEF90E06A
:1058600090937204809371048091730490917404F6
:1058700097FF05C010927404109273040AC08F3F02
:10588000910539F034F08FEF90E090937404809399
:105890007304809175049091760497FF05C010926F
:1058A0007604109275040AC08F3F910539F034F0E8
:1058B0008FEF90E090937604809375048091770445
:1058C0009091780497FF05C01092780410927704A5
:1058D0000AC08F3F910539F034F08FEF90E090933C
:1058E0007804809377048091790490917A0497FFEB
:1058F00005C010927A04109279040AC08F3F910576
:1059000039F034F08FEF90E090937A04809379042B
:1059100080917B0490917C0497FF05C010927C04D9
:1059200010927B040AC08F3F910539F034F08FEF5D
:1059300090E090937C0480937B04E091C407FF2760
:10594000EE0FFF1FE45AF84F808191818135910558
:105950000CF415C180916C0480FD11C18091C507C4
:10596000E82FFF27EE0FFF1FE45AF84F8081918147
:105970008C3491050CF4C3C08091C0048F5F809378
:10598000C004893C08F4FBC01092C0044C3010F4F1
:10599000299801C0299A10926B0410926A04809190
:1059A000C207282F3327D901AA0FBB1FA45AB84F0B
:1059B0008D919C911197873491059CF48091C30738
:1059C000E82FFF27EE0FFF1FE45AF84F80819181E7
:1059D00097FF03C0909581959F4F873491050CF4F4
:1059E0006BC08091C307682F7727DB01AA0FBB1F0D
:1059F000A45AB84F8D919C911197873491053CF032
:105A0000F901EE0FFF1FE45AF84F808191818D91CB
:105A10009C918734910564F0F901EE0FFF1FE45A61
:105A2000F84F808191818734910514F042E001C0E4
:105A300041E0FB01EE0FFF1FE45AF84F8081918196
:105A4000863491055CF4F901EE0FFF1FE45AF84F1C
:105A500080819181873491050CF043E0FB01EE0FCA
:105A6000FF1FE45AF84F808191818A5B9F4F5CF45D
:105A7000F901EE0FFF1FE45AF84F808191818734BE
:105A800091050CF044E0660F771F645A784FDB01F4
:105A90008D919C918A5B9F4F5CF4220F331F245A97
:105AA000384FF90180819181863491050CF445E0ED
:105AB000842F0E9431401CC08091CA078872C1F0B7
:105AC0008081918197FF03C0909581959F4F4E975C
:105AD0007CF48D919C918A5B9F4F54F481E080937C
