:100000000C94C8030C94E5030C94E5030C94E503ED
:100010000C94E5030C94E5030C94E5030C94E503C0
:100020000C94E5030C9402100C94E5030C94E50386
:100030000C94C11D0C94E5030C94E5030C948D1DE8
:100040000C94E5030C94E5030C94310F0C94E50338
:100050000C94540B0C94E5030C94AF050C94E5033D
:100060000C943E110C94E5030C946B1C0C94E5036A
:100070000A0A0D004E65757472616C004865616412
:10008000696E67486F6C64000A0D436F6E74726F1F
:100090006C3A20000A0D537570706F727420666F91
:1000A000722047505320617420317374205541529F
:1000B00054000A0D537570706F727420666F722051
:1000C0004D4B334D414720436F6D70617373004F4B
:1000D0004B0A0D000A0D43616C6962726174696EAE
:1000E0006720616972207072657373757265207321
:1000F000656E736F722E2E000A0D414343206E6FA2
:10010000742063616C6962726174656421000A0D18
:100110003D3D3D3D3D3D3D3D3D3D3D3D3D3D3D3D0F
:100120003D3D3D3D3D3D3D3D3D3D3D3D3D3D000A6F
:100130000D466C69676874436F6E74726F6C0A0D5C
:1001400048617264776172653A25642E25640A0DF0
:10015000536F6674776172653A5625642E2564255F
:100160006320002E00416C743A2025642E252E3326
:1001700064206D004C61743A2025642E252E336472
:10018000252E336420646567004C6F6E3A20256429
:100190002E252E3364252E33642064656700536159
:1001A00074733A202564204669783A203F3F005313
:1001B0006174733A202564204669783A20334400FC
:1001C000536174733A202564204669783A2032449A
:1001D00000536174733A202564204669783A204EB2
:1001E0006F004E6F204750532064617461210048B6
:1001F000693A253469202043663A2534692000474E
:10020000733A253469202059613A25346920004E1B
:10021000693A2534692020526F3A25346920004517
:10022000787465726E436F6E74726F6C202000522A
:10023000616E67653A2533692D25336900506F7308
:100240006974696F6E3A2025336900536574706F65
:10025000696E74202025336900536572766F202003
:1002600000506F343A2025336920506F383A2025EA
:10027000336900506F333A2025336920506F373A85
:100280002025336900506F323A2025336920506FA2
:10029000363A2025336900506F313A2025336920E2
:1002A000506F353A20253369004F6666436F75728B
:1002B00073653A202535690048656164696E673A5F
:1002C00020202025356900436F757273653A202020
:1002D000202025356900436F6D70617373202020E5
:1002E000202020200052432D4C6576656C3A202555
:1002F000356900566F6C746167653A202025356951
:1003000000486569676874202534692028253369A9
:100310002900526F6C6C2020202534692028253359
:100320006929004E69636B20202025346920282527
:1003300033692900414343202D2053656E736F724A
:100340000059617720202534692028253369292820
:100350002533692900526F6C6C20253469202825CB
:100360003369292825336929004E69636B202534B8
:10037000692028253369292825336929005961779F
:10038000202025346920282533692900526F6C6CA0
:1003900020253469202825336929004E69636B20A4
:1003A00025346920282533692900596177202025C3
:1003B000346920282533692900526F6C6C2025345C
:1003C00069202825336929004E69636B202534692B
:1003D000202825336929004779726F202D20536525
:1003E0006E736F720050333A253469202050343ACE
:1003F000253469200050313A253469202050323AA2
:10040000253469200047733A253469202059613A20
:1004100025346920004E693A2534692020526F3A0C
:10042000253469200043373A253469202043383A7F
:10043000253469200043353A253469202043363A73
:10044000253469200043333A253469202043343A67
:10045000253469200043313A253469202043323A5B
:10046000253469200048656164696E673A20202060
:1004700025356900526F6C6C3A2020202020202501
:100480003569004E69636B3A2020202020202535F5
:1004900069004174746974756465004865696768CA
:1004A0007420436F6E74726F6C004E6F20004F6645
:1004B00066736574202020203A25356900416972F1
:1004C0002050726573732E3A253569005365742088
:1004D000506F696E743A2025356900486569676810
:1004E000743A202020202535690028632920486F90
:1004F0006C67657220427573730053657474696E1E
:10050000673A202564200048573A5625642E256412
:100510002053573A25642E25642563002B204D690E
:100520006B726F4B6F70746572202B005B25695D79
:10053000005B25695D000A0D5573696E6720506187
:1005400072616D6574657220536574202564000ABC
:100550000D496E69742E20454550524F4D3A204743
:10056000656E65726174696E672044656661756C5D
:10057000742D506172616D657465722E2E2E0000AF
:10058000008F001E01AD013B02CA025803E603744E
:100590000402058F051B06A7063307BE074808D2CD
:1005A000085B09E3096B0AF20A780BFD0B810C0466
:1005B0000D860D070E870E060F840F00107B10F5B9
:1005C000106E11E5115B12CF124213B31323149274
:1005D00014FE146A15D3153B16A11605176717C824
:1005E0001727188318DE1837198E19E319361A875A
:1005F0001AD61A231B6E1BB61BFD1B411C831CC382
:100600001C001D3C1D751DAB1DE01D121E421E6F02
:100610001E9A1EC31EE91E0D1F2E1F4D1F691F842B
:100620001F9B1FB01FC31FD31FE11FEC1FF51FFB34
:100630001FFF1F002000010203040405060708092C
:100640000A0B0B0C0D0E0F101111121314151516A9
:10065000171818191A1B1B1C1D1D1E1F1F202121D6
:1006600022232324242525262727282829292A2A26
:100670002B2B2C2C2D2D2D2E2E2F2F303030313199
:100680003232323333333434343535353636363727
:10069000373737383838393939393A3A3A3A3B3BCB
:1006A0003B3B3C3C3C3C3C3D3D3D3D3E3E3E3E3E7E
:1006B0003F3F3F3F3F3F404040404040414141413C
:1006C0004141424242424242424343434343434305
:1006D00044444444444444444545454545454545D2
:1006E00045464646464646464646474747474747A5
:1006F000474747474748484848484848484848487F
:1007000049494949494949494949494949494A4A57
:100710004A4A4A4A4A4A4A4A4A4A4A4A4B4B4B4B35
:100720004B4B4B4B4B4B4B4B4B4B4B4B4B4C4C4C16
:100730004C4C4C4C4C4C4C4C4C4C4C4C4C4C4C4CF9
:100740004D4D4D4D4D4D4D4D4D4D4D4D4D4D4D4DD9
:100750004D4D4D4D4D4D4E4E4E4E4E4E4E4E4E4EBF
:100760004E4E4E4E4E4E4E4E4E4E4E4E4E4E4E4EA9
:100770004F4F4F4F4F4F4F4F4F4F4F4F4F4F4F4F89
:100780004F4F4F4F4F4F4F4F4F4F4F4F4F4F4F00C8
:1007900011241FBECFEFD0E1DEBFCDBF13E0A0E03C
:1007A000B1E0E4EEFAE902C005900D92A83CB10771
:1007B000D9F718E0A8ECB3E001C01D92A831B10749
:1007C000E1F70E94E7030C94714D0C940000CF9365
:1007D000DF93F89414B815B8189B0EC0199B02C08B
:1007E0008DE001C08BE08093000184B1836084B907
:1007F00080910001289812C0199B08C084E1809361
:10080000000184B1836084B984E107C08AE08093E9
:10081000000184B1836084B98AE0289A8C3010F496
:10082000299801C0299A84B7877F84BF809160008E
:100830008861809360001092600080ED97E0909353
:10084000E4038093E3031092580710925707109225
:100850008204109281041092800410927F041092FE
:100860007E0410927D04809100018A3011F0843161
:1008700011F4289801C0289A0E94EF0E0E94DD0F03
:100880000E947E060E94591D0E9421110E940C1C8C
:100890000E940B4378942091000188E690E09F939A
:1008A0008F9387E490E09F938F931F921F92822FE4
:1008B0006AE00E94D94C892F99279F938F93822FAA
:1008C0000E94D94C99279F938F938FE291E09F9339
:1008D0008F931F920E944D0C8EE091E09F938F9317
:1008E0001F920E944D0C2DB73EB7205F3F4F0FB6B1
:1008F000F8943EBF0FBE2DBF809100018C3010F4E4
:10090000299A01C029980E94444284E00E94C43F71
:100910008050944050F088EF90E09F938F931F9207
:100920000E944D0C0F900F900F9084EF91E00E9469
:100930001D0FEC01CE010E94260F8823D9F3809170
:10094000C10780FF20C084ED90E09F938F931F929A
:100950000E944D0C88EE93E00E941D0FEC010E9456
:10096000FD140F900F900F90CE010E94260F882348
:10097000D9F38FEC90E09F938F931F920E944D0CC0
:100980000F900F900F9082EB90E09F938F931F92A8
:100990000E944D0C84E990E09F938F931F920E94D8
:1009A0004D0C0E94C927809100012DB73EB72A5FE8
:1009B0003F4F0FB6F8943EBF0FBE2DBF8A3011F0E7
:1009C000843111F4289801C0289A80ED97E0909323
:1009D000E4038093E30385E58093610688E890E073
:1009E0009F938F931F920E944D0C8091C1070F908F
:1009F0000F900F9082FF03C08CE790E002C084E765
:100A000090E09F938F931F920E944D0C0F900F9038
:100A10000F9080E790E09F938F931F920E944D0C60
:100A20000E943A1588E893E190936D0380936C03DC
:100A30000F900F900F908091E0038823E1F31092C4
:100A4000E0030E9486290E940C27209100012A3091
:100A500011F0243111F4289801C0289A80910301E3
:100A6000882321F08150809303010EC010926B0601
:100A700010928E0410928D041092900410928F04A4
:100A8000109292041092910480916C0390916D03E6
:100A9000892B01F585E090E090936D0380936C03C2
:100AA0000E94391C80910603909107038F5F9F4F2E
:100AB00009F580916C0480FF1DC080E197E290935E
:100AC000E4038093E30380E890E09093070380932E
:100AD000060310C080916C0390916D030197909371
:100AE0006D0380936C032A3011F0243111F428989F
:100AF00001C0289A8091E003882321F080916C0442
:100B000080FD02C00E94D6070E94B109CE010E945A
:100B1000260F882309F120910E0330910F03809155
:100B2000D10799272817390794F480E093E0909330
:100B30000703809306038091E3039091E403892BDC
:100B400031F480E797E19093E4038093E30384E139
:100B500090E00E941D0FEC010E949B1B6CCF1F9226
:100B60000F920FB60F9211248F939F93EF93FF93E1
:100B7000809102018823E1F48091DC039091DD03F0
:100B800001969093DD038093DC03FC01E255F94F5D
:100B9000E081ED3019F08639910539F41092DD03CA
:100BA0001092DC0381E080930201E093C60004C050
:100BB0001092DD031092DC03FF91EF919F918F91D2
:100BC0000F900FBE0F901F901895DC0120E030E0D1
:100BD00040E050E0EEEAF6E005C08191280F311DBB
:100BE0004F5F5F4F4A175B07C1F73F70C90136E09F
:100BF000969587953A95E1F7835CFD01E255F94FAB
:100C0000808311962F73235CFD01E255F94F2083F9
:100C1000A155B94F8DE08C93109202018091AE06E0
:100C20008093C60008953091D103365043E063E0CD
:100C300046C0E42FFF27E154FA4F90814F5FE42F25
:100C4000FF27E154FA4F20814F5FE42FFF27E15443
:100C5000FA4F70814F5FE42FFF274350E154FA4F62
:100C600050812D53E62FFF279D53990F990F822F07
:100C700082958F70982BE154FA4F9083E62FEF5FA7
:100C8000313009F1972F9D53FF272295207F892F1F
:100C900086958695282BE154FA4F2083E62FEE5F48
:100CA00033503F3F81F04C5FFF279295990F990F8A
:100CB000907C5D53952BE154FA4F90836D5F332305
:100CC00009F0B7CFE62F82EC95E09093D3038093A1
:100CD000D203E350E093D40308951F93182F8A3072
:100CE00019F48DE00E946D068091C00085FFFCCF55
:100CF0001093C60080E090E01F9108951F931FB7E6
:100D0000F8948091C1008F778093C1008091C100D9
:100D10008F7B8093C100589A5098599A519A10929B
:100D2000C5008AE28093C4008091C00082608093F5
:100D3000C00088E18093C1008091C2008F778093CA
:100D4000C2008091C2008F7B8093C2008091C2005C
:100D50008F7D8093C2008091C2008F7E8093C200FD
:100D60008091C200877F8093C2008091C1008B7FF9
:100D70008093C1008091C20084608093C200809102
:100D8000C20082608093C20002C08091C600809140
:100D9000C00087FDFACF8091C10080688093C100B8
:100DA0008091C10080648093C10080910401909182
:100DB00005010E941D0F90934507809344071092F0
:100DC000D0031092D3031092D2031092D40381E087
:100DD000809302018CED90E00E941D0F90935606C7
:100DE000809355061092570687E48093580687E053
:100DF00080935B068AE08093590610925A061FBFC3
:100E00001F910895DF92EF92FF920F931F93CF935C
:100E1000DF93CDB7DEB722970FB6F894DEBF0FBED3
:100E2000CDBF9D85AE8583E28093AE069F5990939A
:100E3000AF068C858093B006CE010F969A83898386
:100E4000AA2341F4EE24FF2460E070E003E010E008
:100E5000B0E092C0EF84F888CE0143969A838983EC
:100E600069897A89A150F2CFF701EB0FF11D9081CA
:100E7000BF5F61507040A9F4AA2319F4DD2440E05B
:100E800042C0E981FA81E080F1803496FA83E983F7
:100E9000349762817381A1506115710509F471C0A5
:100EA000B0E0F701EB0FF11D4081BF5F6150704072
:100EB000A1F4AA2309F467C0E981FA81E080F180F6
:100EC0003496FA83E983349762817381A150611566
:100ED000710511F4DD2416C0B0E0F701EB0FF11D30
:100EE000D080BF5F6150704071F4AA2361F0E98146
:100EF000FA81E080F1803496FA83E9833497628145
:100F00007381A150B0E0892F86958695835CF801A6
:100F1000E255F94F80835527892F99278370907068
:100F200024E0880F991F2A95E1F79A01F4E036959D
:100F30002795FA95E1F7822B835CF801E155F94F8B
:100F400080834F705070440F551F440F551F8D2DD7
:100F50008295869586958370842B835CF801E05595
:100F6000F94F80838FE3D8228DE3D80EF801EF5438
:100F7000F94FD0820C5F1F4F6115710509F074CFD6
:100F800004C040E0B0E0DD24BECFC8010E94E5050A
:100F900022960FB6F894DEBF0FBECDBFDF91CF9182
:100FA0001F910F91FF90EF90DF90089580910201C3
:100FB000882309F4D5C18091C8038823F1F080917A
:100FC00002018823D1F08AE090E09F938F9387E518
:100FD00096E09F938F9381E08F938F9386E58F9315
:100FE0000E9402071092C8032DB73EB7295F3F4FFA
:100FF0000FB6F8943EBF0FBE2DBF8091CA03882361
:10100000C1F1809102018823A1F10E94431584E17E
:1010100090E09F938F938091CF0324E1829FC00142
:101020001124865E9C4F9F938F9381E090E09F9365
:101030008F938FEC93E09F938F9382E08F9381E067
:101040008F9388E48F930E9402078091CF038F5F74
:101050008093CF032DB73EB7255F3F4F0FB6F8946F
:101060003EBF0FBE2DBF843010F01092CF03109200
:10107000CA038091CB03882371F1809102018823F8
:1010800051F10E94431580E590E09F938F938AE190
:1010900093E09F938F9321E030E03F932F9389E17A
:1010A00093E09F938F933F932F9389E094E09F93D6
:1010B0008F9383E08F9381E08F938CE48F930E94D2
:1010C00002071092CB038DB79EB70F960FB6F89418
:1010D0009EBF0FBE8DBF209101012F3F59F180E1CE
:1010E00090E09F938F93822F992734E0880F991F68
:1010F0003A95E1F78A5F9E4F9F938F9381E090E04E
:101100009F938F9381E091E09F938F9382E08F93E1
:1011100081E08F9381E48F930E9402078FEF809389
:1011200001012DB73EB7255F3F4F0FB6F8943EBF84
:101130000FBE2DBF809146078823E9F08091020100
:101140008823C9F081E090E09F938F9386E497E035
:101150009F938F9381E08F938F9382E48F930E946C
:101160000207109246078DB79EB707960FB6F89400
:101170009EBF0FBE8DBF8091040190910501892B08
:1011800041F080914407909145070E94260F8823E3
:1011900021F48091CC03882341F1809102018823BE
:1011A00021F182E490E09F938F938CE696E09F93E9
:1011B0008F9381E08F938F9384E48F930E94020733
:1011C00080910401909105010E941D0F90934507A5
:1011D000809344071092CC032DB73EB7295F3F4F51
:1011E0000FB6F8943EBF0FBE2DBF8091C903882370
:1011F000E9F0809102018823C9F08BE090E09F9391
:101200008F9381E696E09F938F9381E08F938F93E6
:1012100087E48F930E9402071092C9038DB79EB78F
:1012200007960FB6F8949EBF0FBE8DBF80915506EE
:10123000909156060E94260F882309F45CC0809185
:101240000201882309F457C060912C0470912D0489
:1012500080912E0490912F042CE630E040E050E085
:101260000E942E4D30931108209310086091340491
:101270007091350480913604909137042CE630E06B
:1012800040E050E00E942E4D309313082093120846
:1012900080918C038093140880918D0380931508AE
:1012A000809162048093160888E090E09F938F936A
:1012B00080E198E09F938F9381E08F9383E08F93F9
:1012C00087E78F930E940207809162042DB73EB793
:1012D000295F3F4F0FB6F8943EBF0FBE2DBF85303C
:1012E00010F01092620483E690E00E941D0F90932C
:1012F0005606809355068091CE03882381F0809115
:101300000201882361F01F9281E08F9384E58F931F
:101310000E9402071092CE030F900F900F908091C1
:10132000CD038823E9F0809102018823C9F08EE182
:1013300090E09F938F9383E597E09F938F9381E055
:101340008F938F9380E58F930E9402071092CD03B5
:101350008DB79EB707960FB6F8949EBF0FBE8DBF90
:1013600008950F931F93CF93DF93CDB7DEB72297E6
:101370000FB6F894DEBF0FBECDBF8091D003882397
:1013800009F487C10E9413068091C005823609F0D6
:1013900002C18091C105813709F448C0823730F419
:1013A0008B3459F0803709F0F6C03CC0833709F41C
:1013B00092C0843709F0EFC021C0E091D203F091D0
:1013C000D303808191819093700380936F03809108
:1013D0006F03909170032091710330917203821B0F
:1013E000930B845E9D4F68E671E00E94F94C845B2C
:1013F00090409093610480936004CDC0E091D2034B
:10140000F091D30380819181A281B3818093D50330
:101410009093D603A093D703B093D8038FEF809314
:101420000301B9C081E08093CD03B5C00091D20320
:101430001091D303F80180818F3F29F482E00E944C
:101440003B42F8018083E091D203F091D303808185
:10145000882311F481E004C08081863010F085E09B
:101460008083E091D203F091D30380810E940840F1
:10147000E091D203F091D30380818A8380910201AD
:101480008823E1F389E4898387E590E09F938F9334
:1014900089EB97E09F938F9321E030E03F932F9368
:1014A000CE0101969F938F933F932F93CE01029687
:1014B0009F938F9383E08F9381E08F9381E58F9348
:1014C0000E9402078DB79EB70F960FB6F8949EBF85
:1014D0000FBE8DBF60C0E091D203F091D303808135
:1014E0008823E9F180818630D0F581818934B9F58E
:1014F000A9EBB7E0329687E501900D928150E1F7B4
:10150000E091D203F091D30380810E94F03F60917B
:10151000E40777278827992724EC39E040E050E05A
:101520000E94BA4C6093750370937603809377039F
:10153000909378036091E5077727882799270E9481
:10154000BA4C6093790370937A0380937B039093F2
:101550007C030E94D43F8A830E94412901C01A82E1
:10156000809102018823E1F381E090E09F938F93C3
:10157000CE0102969F938F9381E08F938F9383E5A3
:101580008F930E940207EDB7FEB737960FB6F89417
:10159000FEBF0FBEEDBF8091C105873609F45BC069
:1015A000883648F48236E9F0843609F458C081362A
:1015B00009F067C009C08C36E1F1863709F447C0ED
:1015C000883609F05EC020C0E091D203F091D303C9
:1015D000808180930101803298F08FE18093010136
:1015E0000FC0A1E6B6E0E091D203F091D3038BE007
:1015F00001900D928150E1F780916A068093460731
:101600008FEF809303013DC08FEF80930301E09142
:10161000D203F091D303808190910A04892B8093A7
:101620000A04882311F01092CF0381E08093CA034B
:1016300028C08FEF80930301E091D203F091D30390
:1016400080818093090481E08093CB031AC081E0FC
:101650008093C80316C081E08093C90312C0E09153
:10166000D203F091D30380812AE0829FC00111242C
:101670009093050180930401892B19F081E08093F8
:10168000CC031092D3031092D2031092D403109281
:10169000D00322960FB6F894DEBF0FBECDBFDF9108
:1016A000CF911F910F9108951F920F920FB60F9235
:1016B00011241F932F933F934F935F936F937F93C7
:1016C0008F939F93AF93BF93CF93DF93EF93FF934A
:1016D0001091C600812F0E94634A8091D003882315
:1016E00009F06EC06091D903662371F4133279F466
:1016F0001093BF0581E08093D90383E290E090933B
:10170000DB038093DA035CC0663908F055C0A62F6E
:10171000BB272091DA033091DB031D3069F0A1541F
:10172000BA4F1C936F5F6093D903210F311D309323
:10173000DB032093DA0344C0FD01E354FA4F9081A8
:10174000ED01C254DA4F8881A901491B5109481B98
:1017500051095F705093DB034093DA032081CA0183
:1017600056E0969587955A95E1F7835C8217F9F4D0
:101770009881842F8F73835C8917C9F4A154BA4F61
:101780001C936F5F6093D10381E08093D0038091BD
:10179000C105823571F488E190E02CE00FB6F89431
:1017A000A895809360000FBE2093600002C0109245
:1017B000D0031092D90304C01092D9031092D00321
:1017C000FF91EF91DF91CF91BF91AF919F918F9159
:1017D0007F916F915F914F913F912F911F910F904A
:1017E0000FBE0F901F901895982F8091470781305A
:1017F00069F480910B04E82FFF27E65EFC4F90838D
:101800008F5F80930B0421E030E005C0892F0E9498
:101810006D06282F3327C90108951F93182F04C080
:1018200080E30E94F40B11501116D4F31F91089518
:101830001F93182F04C080E20E94F40B1150111660
:10184000D4F31F9108950F931F93CF93DF938C01CF
:10185000EB0108C0F8010F5F1F4FE4918E2F0E942B
:10186000F40B21972097B1F7DF91CF911F910F9142
:1018700008950F931F93CF93DF938C01EB0106C064
:10188000F80181918F010E94F40B21972097C1F7F5
:10189000DF91CF911F910F9108952F923F924F9218
:1018A0005F926F927F928F929F92AF92BF92CF92F0
:1018B000DF92EF92FF920F931F93CF93DF93CDB7F9
:1018C000DEB7E3970FB6F894DEBF0FBECDBF299603
:1018D0008FAD299780934707CE01855B9F4F9D83EE
:1018E0008C832B968EAD9FAD2B979FA78EA722241E
:1018F0003324210102C0130124010EA51FA502C03B
:101900000F5F1F4FF801F490FF2019F0F5E2FF166A
:10191000B9F7B8018EA59FA5681B790B11F00E943D
:10192000230CFF2009F442C20F5F1F4F1FA70EA711
:101930001982AC81BD811BAA1AAA9FEF99ABEEA5B3
:10194000FFA5CF0101969FA78EA7B49095E7B91682
:1019500021F08B2D8062883789F4EBA9E0FF07C066
:101960002D903D904D905C901397149607C08D91EB
:101970009C9111971C01442455241296F0E2BF1645
:1019800021F489818823D9F685C083E2B81609F449
:1019900083C09AE2B91621F0EDE2BE1669F408C0E0
:1019A000FD011296E081EAABE7FFC9CFE195EAAB12
:1019B000FBA9F061FF7D72C08BE2B81609F46AC022
:1019C0009EE2B916B1F52EA53FA52F5F3F4FEEA5BC
:1019D000FFA584918A3221F0B82E20E030E01BC0B0
:1019E000FD0112964081518157FF02C04FEF5FEF1A
:1019F00049AB3FA72EA7A3CFC90103E0880F991FCA
:101A00000A95E1F7220F331F280F391F2B0D311DC7
:101A100020533040B49031968B2D80538A3060F340
:101A2000FFA7EEA7A90137FF02C04FEF5FEF49AB59
:101A30008DCFF0E3BF1631F48BA984FD80CF806297
:101A40008BAB7DCF8B2D81538930E8F420E030E0E3
:101A5000C901F3E0880F991FFA95E1F7220F331FB0
:101A6000280F391F2B0D311D20533040EEA5FFA547
:101A7000CF0101969FA78EA7B4908B2D80538A30FB
:101A800038F32AAB63CF98E6B91651F4EBA9E460BA
:101A9000EBAB55CFB98253CFFBA9F860FBAB4FCF6F
:101AA0008CE6B81621F49BA991609BAB48CFBD830F
:101AB000AC83E3E6BE1639F41296BD83AC8312976D
:101AC0008C918E8318C1F4E4BF1639F084E6B81601
:101AD00039F099E6B91659F503C0EBA9E160EBAB13
:101AE000FBA9F0FF08C01496BD83AC835E904E90B6
:101AF0003E902E900AC01296BD83AC839E918E912B
:101B00001C01442437FC4094542C57FC03C08AE049
:101B100088AB92C05094409430942094211C311C86
:101B2000411C511C8DE289839AE098AB85C0EFE49B
:101B3000BE1629F0FFE6BF1639F488E061C09BA904
:101B400091609BABE8E056C0F0E7BF1671F41296C7
:101B5000BD83AC839E918E911C01442455248BA996
:101B600080648BAB78E7B72E5EC0E3E7BE16D9F58D
:101B70001296BD83AC83DE90CE90C114D10489F45B
:101B800088E28E838EE68F8385E788878CE6898757
:101B90008A8789E28B871C8666E0C62ED12CCC0E04
:101BA000DD1EF9A9F7FD13C04F2F552747FD5095AE
:101BB00060E070E0C6010E94454B009711F419A93E
:101BC0000DC08C1919A981174CF4182F07C0F60104
:101BD00001900020E9F731971E2F1C19198242014C
:101BE000310140E094C085E5B81631F095E7B916AB
:101BF00049F4EAE0E8AB1FC0FBA9F160FBAB8AE067
:101C000088AB19C098E5B91621F0E8E7BE1609F0CF
:101C10006EC0FBA9F3FD02C080E1F2CF21143104B4
:101C20004104510419F490E198AB05C0EBA9E064BC
:101C3000EBABF0E1F8AB198289A987FD03C09BA942
:101C40009F7D9BAB211431044104510461F4E9A947
:101C5000EE2349F46624772443015EE2C52ED12C9D
:101C6000CC0EDD1E3EC04EE2C42ED12CCC0EDD1EAD
:101C7000F8A9EF2EFF2400271127C201B101A80106
:101C800097010E940C4D6A3020F430E3A32EA60E7B
:101C900008C027E5A22EA60E88E5B81611F49FED20
:101CA000A922F601A2926F01C201B101A801970118
:101CB0000E940C4D39014A012E143F044006510682
:101CC00018F019012A01D9CFF8A9F83051F48BA9DD
:101CD00083FF07C090E3A91621F080E3F601829309
:101CE0006F01CE018C19182F125D49A910C0BB20BD
:101CF00009F45CC0BE8219824201310100E096E025
:101D0000C92ED12CCC0EDD1E11E021E005C0212F03
:101D1000042F011B07FD00E08981882319F0812F22
:101D20008F5F07C09BA996FD02C0812F02C0822F42
:101D30008E5FA82EA00EEBA9EE2EFF2480E3482E86
:101D4000512C4E205F204114510421F48AA98A1994
:101D50000E94180C8981882329F061E070E0CE018F
:101D6000019609C0E6FE09C080E38A83BB8262E077
:101D700070E0CE0102960E94390CF0E24F16510439
:101D800021F48AA98A190E940D0C802F0E940D0C43
:101D9000612F772767FD7095C6010E94390CE4FE1C
:101DA000AACD8AA98A190E94180CA5CDE3960FB670
:101DB000F894DEBF0FBECDBFDF91CF911F910F9181
:101DC000FF90EF90DF90CF90BF90AF909F908F905B
:101DD0007F906F905F904F903F902F9008959FB7A6
:101DE000F894809100018A3019F4529A5A9802C0EE
:101DF0003F9A479884B1886184B985B1877E85B957
:101E000084B58F7A84BD84B5836A84BD85B58773B4
:101E100085BD85B5887F826085BD17BC88E788BD94
:101E200016BC80916E00897F80936E0080916E0059
:101E3000816080936E009FBF08952091DE033091F2
:101E4000DF03280F391FC901019708952091DE0390
:101E50003091DF03821B930B892F990F990B8078A8
:101E600008951F920F920FB60F9211242F933F9354
:101E70004F935F936F937F938F939F93AF93BF9392
:101E8000EF93FF938091E50381508093E5038F3FAB
:101E9000B9F489E08093E503809108038F5F817036
:101EA00080930803882319F481E08093E0038091F4
:101EB000DE039091DF0301969093DF038093DE03AE
:101EC0008091E3039091E403892BB1F08091E303C7
:101ED0009091E40301979093E4038093E30380914E
:101EE000E3039091E40320910603309107038223DA
:101EF0009323892BD1F406C08FEF9FEF90930703B4
:101F000080930603809100018A3039F404C05A9A04
:101F100005C0479A03C05A9801C047988091C107ED
:101F2000887241F00E94154305C0809100018A30FB
:101F300081F7EDCFFF91EF91BF91AF919F918F917D
:101F40007F916F915F914F913F912F910F900FBEB5
:101F50000F901F9018952091DE033091DF03280F1A
:101F6000391F2150304005C080917A00886C8093E1
:101F70007A008091DE039091DF03A901481B590B81
:101F8000CA01892F990F990B87FFEECF08952091F1
:101F9000DE033091DF03280F391F2150304080913C
:101FA000DE039091DF03A901481B590BCA01892F59
:101FB000990F990B87FFF3CF08959FB7F894579A1D
:101FC0005F983E9A4698E0EBF0E080818F708083C6
:101FD000808183608083E1EBF0E080818473808383
:101FE0008081846080831092B2008AE08093B30085
:101FF000E0E7F0E080818A7F808380818260808357
:102000009FBF08951F920F920FB60F9211240F9346
:102010001F932F933F934F935F936F937F938F9370
:102020009F93AF93BF93EF93FF938091000183360B
:1020300008F0F4C08091090390910A03843091055F
:1020400020F4019708F0ADC0D1C0049709F0DDC0BD
:1020500080E390E09093E7038093E60380910B0385
:1020600090910C039C01220F331F280F391F809180
:1020700094039927880F991F280F391F36952795A4
:102080003695279530930C0320930B038091E6033C
:102090009091E703820F931F9093E7038093E603E9
:1020A0008091FF076091DB0720912C0430912D0473
:1020B00040912E0450912F0480FF12C00091E6033E
:1020C0001091E7037727882799270E94BA4C20E0D0
:1020D00030E440E050E00E942E4D020F131F11C06B
:1020E0000091E6031091E7037727882799270E943C
:1020F000BA4C20E030E440E050E00E942E4D021B3C
:10210000130B1093E7030093E6038091E60390918D
:10211000E7032091DC0743E0249F900111248217FC
:10212000930728F43093E7032093E60310C020912F
:10213000E6033091E7038091DD07849FC0011124FD
:102140008217930720F49093E7038093E60380912E
:10215000E6039091E703909397068093960680910B
:10216000E6039091E7036FEF70E00E94E54C8D97D6
:1021700060F48091E6039091E703835B9F4F909317
:10218000E7038093E60383E101C080E680930D03BB
:102190008091E6039091E70380958093B30083ECF0
:1021A00032C08091E6039091E7038F3F910581F063
:1021B00078F05F9A83E08093B0008091E60390917D
:1021C000E7038F5F90409093E7038093E6031DC081
:1021D00083E88093B00080910D038093B30081E089
:1021E00090E090930A03809309030FC08091DE076B
:1021F0009927880F991F880F991F90930A0380933E
:1022000009035F9883E08093B00080910903909167
:102210000A03019790930A0380930903FF91EF91BA
:10222000BF91AF919F918F917F916F915F914F91EE
:102230003F912F911F910F910F900FBE0F901F9004
:1022400018959FB7F89411B812B88FEF80937E005D
:10225000ECE7F0E080818F7180838081807E8083D5
:10226000AAE7B0E087E28C93EBE7F0E08081887F1B
:1022700080838C91886C8C939FBF08951F920F92DE
:102280000FB60F921124CF92DF92EF92FF920F932D
:102290001F932F933F934F935F936F937F938F93EE
:1022A0009F93AF93BF93CF93DF93EF93FF9380916F
:1022B0007A00877380937A0080910704C82EC394B4
:1022C000C0920704853009F47CC0863090F48230D7
:1022D00009F440C0833030F48823F1F0813009F0F4
:1022E000B8C22FC0833009F43FC0843009F0B1C2B6
:1022F00058C0883009F4C1C0893038F4863009F4F8
:1023000071C0873009F0A5C29BC0893009F4D2C0E2
:102310008A3009F09EC2ECC18091780090917900DA
:10232000909306048093050481E0809308048091D3
:10233000FD039091FE0301969093FE038093FD03AD
:1023400078C28091780090917900909304048093F2
:10235000030491C0809178009091790090930204D9
:102360008093010484E0C1C140910E0350910F039A
:1023700080917800909179009A01220F331F240FE9
:10238000351F63E070E00E94E54C260F371F36953D
:1023900027953695279530930F0320930E0386E0FB
:1023A000A4C1809126049091270420917800309157
:1023B0007900821B930B9093F4038093F30387E0DF
:1023C00094C18091780090917900209124043091FB
:1023D0002504821B930B9093F6038093F5031092D0
:1023E000080427C2809100018A3069F48091780046
:1023F000909179002091050430910604820F931F7B
:102400009695879517C04091050450910604843134
:1024100059F42091780030917900240F351F8FEF07
:1024200093E0821B930B06C0809178009091790015
:10243000840F951F9093EF038093EE0381E055C1C5
:102440008091000120910304309104048A3049F402
:102450008091780090917900820F931F96958795CF
:1024600006C08091780090917900820F931F90931D
:10247000ED038093EC0382E038C18091000120914C
:102480000104309102048A3049F4809178009091DF
:102490007900820F931F9695879506C080917800EA
:1024A00090917900820F931F9093EB038093EA033E
:1024B00085E01BC16091780070917900E09028045C
:1024C000F090290400912A0410912B04882777FDAD
:1024D0008095982F0E94F84BA80197010E94524BBB
:1024E0000E94DB4B7093F8036093F7032091F7038E
:1024F0003091F803E091F503F091F6038091F30336
:102500009091F40397FF03C0909581959F4F64E0ED
:1025100070E00E94F94CEB01CF01F7FF03C09095EA
:1025200081959F4F64E070E00E94F94C260F371FA1
:102530002C0F3D1F3093F8032093F7038091F7038E
:102540009091F80302970CF43EC0609128047091BA
:10255000290480912A0490912B0420E030E84BE379
:1025600054E40E94024C88230CF078C06091280447
:102570007091290480912A0490912B042AE037ED70
:1025800043EA5CE30E94534B609328047093290450
:1025900080932A0490932B0480916A0490916B0499
:1025A000845F914008F05AC060912804709129041A
:1025B00080912A0490912B042DEC3CEC4CEC5DE3D3
:1025C0000E94534B43C08091F7039091F8038F5FB3
:1025D0009F4F0CF043C060912804709129048091B2
:1025E0002A0490912B0420E030E849E054E40E9452
:1025F000054C18169CF5609128047091290480916F
:102600002A0490912B042AE037ED43EA5CE30E9410
:10261000524B609328047093290480932A0490936A
:102620002B0480916A0490916B04845F9140B0F414
:10263000609128047091290480912A0490912B04C0
:102640002DEC3CEC4CEC5DE30E94524B6093280473
:102650007093290480932A0490932B04809178002E
:10266000909179009093E9038093E80320915C04B2
:1026700030915D0440915E0450915F048091F703B6
:102680009091F803AA2797FDA095BA2F280F391F1C
:102690004A1F5B1F20935C0430935D0440935E04EB
:1026A00050935F04E0905C04F0905D0400915E0440
:1026B00010915F0460915C0470915D0480915E04F0
:1026C00090915F0420E034E040E050E00E942E4D05
:1026D000E21AF30A040B150BE0925C04F0925D041D
:1026E00000935E0410935F0483E080930804A1C00C
:1026F000E0917800F09179008091FF0390910004BF
:10270000E80FF91FF0930004E093FF038091F903B1
:102710008F5F8093F9038091F903853008F499C0A5
:10272000809178009091790090931803809317031B
:102730004091FB035091FC038091FA03992787FD98
:1027400090952FEF30E0829F6001839FD00C929F85
:10275000D00C11242091480730914907CA01A3E009
:10276000880F991FAA95E1F7841B950B609183034D
:1027700077272C0D3D1D2E1B3F0B4091930450914C
:102780009404241B350BA901649F9001659F300DB3
:10279000749F300D1124820F931F68E070E00E9437
:1027A000F94C7093FC036093FB03E0901303F090EB
:1027B00014030091150310911603BF01882777FDBC
:1027C0008095982FA8019701220F331F441F551F92
:1027D0002E0D3F1D401F511F620F731F841F951F39
:1027E00024E030E040E050E00E942E4D209313039F
:1027F0003093140340931503509316032091480718
:10280000309149078091130390911403A09115030F
:10281000B0911603C20ED31EC81AD90AD0929404DE
:10282000C09293041092F903109200041092FF03D7
:1028300010C080917C00807E90910804892B809349
:102840007C00CC2079F080917A00886C80937A00AB
:1028500009C0109208041092070480917C00807EC9
:1028600080937C00FF91EF91DF91CF91BF91AF9169
:102870009F918F917F916F915F914F913F912F9198
:102880001F910F91FF90EF90DF90CF900F900FBEB0
:102890000F901F9018950F931F931092F0031092B2
:1028A000F1031092F2030CE810E0133019F40B302E
:1028B00008F009E08091EA039091EB038C5F93406C
:1028C00024F48091100381500CC08091EA03909110
:1028D000EB038750944014F411E006C0809110037C
:1028E0008F5F8093100310E08091EC039091ED03D3
:1028F0008C5F934024F48091110381500AC0809131
:10290000EC039091ED038750944034F080911103D3
:102910008F5F8093110301C01F5F8091EE03909140
:10292000EF038C5F934024F48091120381500AC01E
:102930008091EE039091EF038750944034F08091A2
:1029400012038F5F8093120301C01F5F87E08093A3
:102950000F040E94231C809110038A3028F481E028
:102960008093F0038AE006C0863F30F081E08093D8
:10297000F00385EF80931003809111038A3028F4CF
:1029800081E08093F1038AE006C0863F30F081E069
:102990008093F10385EF80931103809112038A30B5
:1029A00028F481E08093F2038AE006C0863F30F08D
:1029B00081E08093F20385EF8093120380910F04EE
:1029C0008823E1F71092F90380917A00886C809354
:1029D0007A008091F9038823E1F30A3020F48AE039
:1029E00090E00E94AB0F015009F05FCF86E490E0C9
:1029F0000E94AB0F1F910F9108951F9383E00E94D7
:102A00003B42182F853108F01A5017BD1092FA0377
:102A100084E690E00E94AB0F809117039091180319
:102A200082559340C8F410E017C017BD82E390E0D0
:102A30000E94AB0F83E691E09F938F931F920E94B9
:102A40004D0C80911703909118030F900F900F90E9
:102A50008255934018F01F5F1A3F38F3612F83E0CF
:102A60000E94BC3F10934A078CE291E00E94AB0F9A
:102A70001F910895EAE1F3E080E2819393E0EA3662
:102A8000F907D9F708959F92AF92BF92CF92DF9244
:102A9000EF92FF920F931F9380910A04282F332700
:102AA000C90181709070682F882351F080910904CA
:102AB000882311F0815002C080911903809309048A
:102AC000A9014270507021FF0CC0909109048091BF
:102AD0001903981719F41092090403C09F5F90938B
:102AE0000904662321F0452B11F010920904EAE154
:102AF000F3E080E2819393E0EA36F907D9F7909109
:102B0000190380910904981710F490930904809197
:102B10000904282F33278A3040F481E180930B0485
:102B20003F932F9381E395E007C080E180930B04EE
:102B30003F932F938CE295E09F938F9381E08F9347
:102B40000E944D0C0F900F900F900F900F901091CE
:102B50000904163009F41EC3173090F4123009F43A
:102B6000D0C0133030F4112309F1113009F0C3C57E
:102B700065C0143009F46FC1153008F0E8C117C101
:102B8000193009F4B8C31A3038F4173009F450C3B7
:102B9000183009F0B0C571C31B3009F446C41B30AE
:102BA00008F405C41C3009F0A6C591C410920B04AA
:102BB0008CE195E09F938F9311E01F930E944D0C41
:102BC00084E180930B042091000188E690E09F93BC
:102BD0008F9387E490E09F938F931F921F92822F91
:102BE0006AE00E94D94C892F99279F938F93822F57
:102BF0000E94D94C99279F938F9387E095E09F93EC
:102C00008F931F930E944D0C88E280930B040E94C7
:102C1000D43F99279F938F938AEF94E09F938F934C
:102C20001F930E944D0C8CE380930B048AEE94E07A
:102C30009F938F931F930E944D0C45C48091C107B1
:102C400080FF47C010920B048091930490919404EC
:102C50009F938F938BED94E09F938F931F930E948C
:102C60004D0C84E180930B0480919504909196041F
:102C70009F938F938CEC94E09F938F931F930E946C
:102C80004D0C88E280930B048091170390911803F8
:102C90009F938F938DEB94E09F938F931F930E944C
:102CA0004D0C8CE380930B0480914A0799279F93E6
:102CB0008F938EEA94E09F938F931F930E944D0C05
:102CC0008DB79EB744960FB6F8949EBF0FBE8DBFCA
:102CD00017C584E180930B048AEA94E09F938F9355
:102CE0001F930E944D0C88E280930B048BE994E0C3
:102CF0009F938F931F930E944D0C8DB79EB706969E
:102D0000E2CF10920B0482E994E09F938F9311E03D
:102D10001F930E944D0C84E180930B0460912C045E
:102D200070912D0480912E0490912F0420E034E0C6
:102D300040E050E00E942E4D5F934F933F932F93BE
:102D400083E894E09F938F931F930E944D0C88E239
:102D500080930B04609134047091350480913604A3
:102D60009091370420E034E040E050E00E942E4D86
:102D70005F934F933F932F9384E794E09F938F93B8
:102D80001F930E944D0C8CE380930B0480916F0382
:102D9000909170039F938F9385E694E09F938F9318
:102DA0001F930E944D0C8DB79EB746968CCF109204
:102DB0000B04809157079091580720915507309147
:102DC00056079F938F933F932F9385E594E09F93AE
:102DD0008F9311E01F930E944D0C84E180930B04AC
:102DE00080915B0790915C072091590730915A07B9
:102DF0009F938F933F932F9385E494E09F938F93BA
:102E00001F930E944D0C88E280930B0480915F0712
:102E10009091600720915D0730915E079F938F939B
:102E20003F932F9385E394E09F938F931F930E948A
:102E30004D0C8CE380930B048091630790916407A1
:102E400020916107309162079F938F933F932F9357
:102E500085E294E0A3C210920B04E091BA07FF2729
:102E6000EE0FFF1FED5AF84F20813181E091B90735
:102E7000FF27EE0FFF1FED5AF84F808191813F939E
:102E80002F939F938F9385E194E09F938F9311E00D
:102E90001F930E944D0C84E180930B04E091BC07CA
:102EA000FF27EE0FFF1FED5AF84F20813181E0918F
:102EB000BB07FF27EE0FFF1FED5AF84F808191816E
:102EC0003F932F939F938F9385E094E09F938F93ED
:102ED0001F930E944D0C88E280930B04E091BE0783
:102EE000FF27EE0FFF1FED5AF84F20813181E0914F
:102EF000BD07FF27EE0FFF1FED5AF84F808191812C
:102F00003F932F939F938F9385EF93E09F938F939E
:102F10001F930E944D0C8CE380930B04E091C0073B
:102F2000FF27EE0FFF1FED5AF84F20813181E0910E
:102F3000BF07FF27EE0FFF1FED5AF84F80819181E9
:102F40003F932F939F938F9385EE93E027C2109228
:102F50000B0487ED93E09F938F9311E01F930E94E2
:102F60004D0C0F900F900F9080910001E0911A048A
:102F7000F0911B048D3038F48B3008F04CC08A304F
:102F800009F0A1C004C0843109F09DC044C084E1AF
:102F900080930B0420911A0430911B048091EA0362
:102FA0009091EB033F932F93821B930B9F938F93EF
:102FB00088EC93E09F938F931F930E944D0C88E2BF
:102FC00080930B0420911C0430911D048091EC032C
:102FD0009091ED033F932F93821B930B9F938F93BD
:102FE00089EB93E09F938F931F930E944D0C8CE38A
:102FF00080930B0480911E0490911F042091EE0396
:103000003091EF039F938F93821B930B9F938F932A
:103010008AEA93E04FC084E180930B042091EA0395
:103020003091EB03CF0162E070E00E94F94C7F9396
:103030006F932E1B3F0B3F932F938BE993E09F934E
:103040008F9311E01F930E944D0C88E280930B0434
:10305000E0911C04F0911D042091EC033091ED03EC
:10306000CF0162E070E00E94F94C7F936F932E1BBA
:103070003F0B3F932F938CE893E09F938F931F9385
:103080000E944D0C8CE380930B0420911E04309120
:103090001F04E091EE03F091EF03C90162E070E0DC
:1030A0000E94F94C7F936F932E1B3F0B3F932F93FE
:1030B0008DE793E09F938F931F930E944D0C8DB7E4
:1030C0009EB7459600CE84E180930B042091EA03DD
:1030D0003091EB038091100399279F938F93CF0139
:1030E00062E070E00E94F94C7F936F932E1B3F0BC0
:1030F0003F932F9389E693E09F938F9311E01F9363
:103100000E944D0C88E280930B04E0911C04F09126
:103110001D042091EC033091ED0380911103992758
:103120009F938F93CF0162E070E00E94F94C7F93F0
:103130006F932E1B3F0B3F932F9385E593E09F9357
:103140008F931F930E944D0C8CE380930B0420916E
:103150001E0430911F04E091EE03F091EF03809183
:10316000120399279F938F93C90162E070E00E9438
:10317000F94C7F936F932E1B3F0B3F932F9381E46A
:1031800093E09F938F931F930E944D0C8DB79EB732
:103190004B9699CD10920B0484E393E09F938F9309
:1031A00011E01F930E944D0C84E180930B048091E9
:1031B0002404909125042091F5033091F6039F9308
:1031C0008F933F932F9383E293E09F938F931F936B
:1031D0000E944D0C88E280930B048091260490910C
:1031E00027042091F3033091F4039F938F933F932F
:1031F0002F9382E193E09F938F931F930E944D0C36
:103200008CE380930B0460912804709129048091D1
:103210002A0490912B040E94DB4B7F936F93809143
:103220009E0790919F079F938F9381E093E046C103
:1032300084E180930B0480910E0390910F039F9380
:103240008F9383EF92E09F938F9311E01F930E94DF
:103250004D0C88E280930B04809113049091140428
:103260009F938F9385EE92E09F938F931F930E947D
:103270004D0C8DB79EB70A9626CD10920B0486EDA5
:1032800092E09F938F9311E01F930E944D0C84E175
:1032900080930B0480917103909172039F938F939D
:1032A00087EC92E09F938F931F930E944D0C88E2CE
:1032B00080930B0480916F03909170039F938F9381
:1032C00088EB92E09F938F931F930E944D0C8CE3A9
:1032D00080930B0480916004909161049F938F937D
:1032E00089EA92E09F938F931F930E944D0C8DB7B4
:1032F0009EB74296E8CC10920B0480917504909191
:1033000076049F938F9380916D0490916E049F93A8
:103310008F9387E992E09F938F9311E01F930E9410
:103320004D0C84E180930B04809177049091780494
:103330009F938F9380916F04909170049F938F93CC
:1033400085E892E09F938F931F930E944D0C88E233
:1033500080930B048091790490917A049F938F93CA
:1033600080917104909172049F938F9383E792E010
:103370009F938F931F930E944D0C8CE380930B04BB
:1033800080917B0490917C049F938F938091730430
:10339000909174049F938F9381E692E09F938F9313
:1033A0001F930E944D0C8DB79EB74C968CCC1092FB
:1033B0000B0489E592E09F938F9311E01F930E9485
:1033C0004D0C84E180930B048091940399279F9383
:1033D0008F938BE492E09F938F931F930E944D0CE9
:1033E00088E280930B048091E6039091E7039F931A
:1033F0008F938DE392E09F938F931F930E944D0CC8
:103400008CE380930B048091DD0799279F938F9322
:103410008091DC0799279F938F938FE292E09F938F
:103420008F931F930E944D0C4BCC10920B048FE195
:1034300092E09F938F9311E01F930E944D0C84E1C3
:1034400080930B0480916506992787FD90959F9343
:103450008F9380916406992787FD90959F938F9312
:103460008FE092E09F938F931F930E944D0C88E210
:1034700080930B0480916606992787FD90959F9312
:103480008F938091670699279F938F938FEF91E099
:103490009F938F931F930E944D0C8CE380930B049A
:1034A00080916B0699279F938F9380916806992747
:1034B00087FD90959F938F938FEE91E09F938F93CD
:1034C0001F930E944D0C8DB79EB74896FCCB809100
:1034D000B205882371F410920B0482EE91E09F9361
:1034E0008F9381E08F930E944D0C0F900F900F905F
:1034F00007C120918D05223071F02330B1F0809109
:103500008C052223E1F410920B0499279F938F934B
:1035100081ED91E01BC010920B0480918C059927DE
:103520009F938F9380EC91E011C010920B048091D7
:103530008C0599279F938F938FEA91E007C0109293
:103540000B0499279F938F938EE991E09F938F931C
:1035500081E08F930E944D0C0F900F900F900F9071
:103560000F90A0908E05B0908F05C0909005D090E0
:103570009105C601B50120E836E948E950E00E940E
:103580002E4D7B018C0184E180930B04C801B701AF
:1035900020E137E240E050E00E942E4D2AE030E08A
:1035A00040E050E00E942E4DC90137FF03C09095C6
:1035B00081959F4F9F938F93C801B70120E137E218
:1035C00040E050E00E942E4DC90137FF03C09095A6
:1035D00081959F4F9F938F93C601B50120E836E9EF
:1035E00048E950E00E942E4D3F932F9389E891E0E7
:1035F0009F938F9381E0982E9F920E944D0CA090F4
:103600009205B0909305C0909405D0909505C601A1
:10361000B50120E836E948E950E00E942E4D7B01D3
:103620008C0188E280930B04C801B70120E137E2E6
:1036300040E050E00E942E4D2AE030E040E050E0B3
:103640000E942E4DC90137FF03C0909581959F4F71
:103650009F938F93C801B70120E137E240E050E02B
:103660000E942E4DC90137FF03C0909581959F4F51
:103670009F938F93C601B50120E836E948E950E0F1
:103680000E942E4D3F932F9384E791E09F938F9359
:103690009F920E944D0CE0909605F0909705009146
:1036A0009805109199058CE380930B04C801B7012C
:1036B00028EE33E040E050E00E942E4D9B0177FF62
:1036C00003C0309521953F4F3F932F93C801B70119
:1036D00028EE33E040E050E00E942E4D3F932F93C0
:1036E00085E691E09F938F939F920E944D0C8DB73A
:1036F0009EB74996E8CA1150109319031092090415
:1037000010920A041F910F91FF90EF90DF90CF90DD
:10371000BF90AF909F90089587B18C6087B9429811
:10372000439810920C0480E880936A0310920D0471
:1037300080936B03089580910E04815080930E0452
:103740008F3F09F068C084E080930E048091EE07FB
:103750008B3F80F080919A03873E28F08091ED079F
:1037600088231CF124C08A3028F48091ED07882337
:10377000F4F01BC080910C04815080930C048F3FA7
:10378000B9F480919A03815080930C0480916A036C
:10379000813011F480E801C0869580936A0380919E
:1037A0006A039091ED07892311F0429A01C0429873
:1037B0008091F0078B3F88F080919B03873E28F033
:1037C0008091EF07882324F106C08A3030F480917D
:1037D000EF0787FF1DC04398089580910D04815025
:1037E00080930D048F3FB9F480919B0381508093A7
:1037F0000D0480916B03813011F480E801C086953F
:1038000080936B0380916B039091EF07892311F0F4
:10381000439A0895439808959FB7F8943998389A31
:1038200088B1836088B9E9EBF0E080818C7F808388
:103830008AE28093B80010920F0410921004109244
:1038400011049FBF089585EA8093BC00089584E920
:103850008093BC0008958093BB0085E88093BC00F2
:10386000089585EC8093BC00089585E88093BC00A2
:103870000895EF92FF920F931F938CEBE82EF12C9B
:1038800084E9F701808310920F040BEB10E0F8013C
:10389000808180931004109210041092110480E82B
:1038A000F70180831092BD001092BA00F8011082D7
:1038B0001092B9001092B8000E940C1C85EAF70122
:1038C0008083F801108285E8F70180831F910F91B2
:1038D000FF90EF9008951F920F920FB60F92112450
:1038E0008F939F93EF93FF9380910F048F5F80934B
:1038F0000F048150853009F465C0863090F4823021
:1039000009F447C0833030F4882309F1813009F08D
:10391000B8C022C0833009F44EC0843009F0B1C071
:103920004FC0883009F478C0893038F4863009F403
:1039300052C0873009F0A5C06DC08A3009F483C039
:103940008A3008F46EC08B3009F09BC07EC0809135
:103950001004880F8E5A0EC080911004813081F0BF
:10396000813030F0823079F0833009F099C00EC098
:10397000809197078093BB0085E88093BC0090C03E
:103980008091A907F7CF8091A007F4CF8091B80765
:10399000F1CF84E98093BC0080911004833040F41F
:1039A000809110048F5F8093100410920F0462C006
:1039B000109210045FC080911104880F8D5ADACFE5
:1039C00085ECDBCFE0911104FF278091BB00E55B24
:1039D000F84F8083D1CFE0911104FF278091BB0085
:1039E000E15BF84F8083809111048F5F8093110415
:1039F00080911104843010F01092110484E98093B6
:103A0000BC0010920F048AE090E090936D038093C5
:103A10006C0346C088E9AECF80911204880F805FA6
:103A2000A9CF80911204813041F0813018F08230AA
:103A3000B9F506C0809110039DCF809111039ACFF4
:103A40008091120397CF80E895CF84E98093BC00E2
:103A50008AE090E090936D0380936C038091120450
:103A6000823050F4809112048F5F8093120487E0BB
:103A700080930F0485EA81CF1092120410920F04F4
:103A80000FC084E98093BC0010920F048AE090E09C
:103A900090936D0380936C031092100410921104A4
:103AA000FF91EF919F918F910F900FBE0F901F90FC
:103AB00018959FB7F89456985E9A8AB180638AB930
:103AC0008BB18F7C8BB9809100018A3011F4539AAD
:103AD0005B98809180008C70809380008091810041
:103AE000837E8093810080918100836C809381002C
:103AF000809182008F738093820080916F00897F14
:103B000080936F0080916F00816280936F001092AC
:103B10001404109213049FBF08951F920F920FB6C2
:103B20000F9211242F933F935F936F937F938F9303
:103B30009F93AF93BF9380911504882391F42091B4
:103B4000130430911404809113049091140468E0DC
:103B500070E00E94F94C261B370B3093140420931D
:103B6000130410921504BF91AF919F918F917F9193
:103B70006F915F913F912F910F900FBE0F901F900B
:103B800018951F920F920FB60F9211240F931F9347
:103B90002F933F934F935F936F937F938F939F9355
:103BA000AF93BF93CF93DF93EF93FF932091860062
:103BB000309187008091160490911704281B390BCF
:103BC000809186009091870090931704809316044B
:103BD000C9018D5494400091180410911904835F19
:103BE0009A4188F4043011053CF010926E038091E4
:103BF00015048F5F8093150481E090E09093190481
:103C00008093180498C00E3011050CF094C0C901BF
:103C10008B5F9040845B914008F072C0E901C25D07
:103C2000D140F801EE0FFF1FED5AF84F80819181CE
:103C30009E01281B390BC90137FF03C09095819560
:103C40009F4F069784F48091130490911404883C4C
:103C500091054CF480911304909114040A9690936A
:103C6000140480931304F801EE0FFF1FED5AF84F70
:103C700020813181C901880F991F820F931F8C0FFA
:103C80009D1F64E070E00E94F94C9B01CE010196FB
:103C9000861797071CF42150304006C021976C17F7
:103CA0007D0714F42F5F3F4F80911304909114040B
:103CB000E801CC0FDD1F833C9105BCF0FE01ED5AFD
:103CC000F84F80819181A901481B590BCA0163E01B
:103CD00070E00E94F94CCB01880F991F860F971F47
:103CE000CF58D84F9983888304C0CF58D84F1982B2
:103CF0001882F801EE0FFF1FED5AF84F3183208331
:103D0000F8013196F0931904E0931804E530F105B9
:103D100011F45D9A06C05D98E630F10511F45C9AE5
:103D200001C05C98809100018A3029F4379711F422
:103D30005B9A01C05B988091130490911404892BC5
:103D400049F0809113049091140401979093140406
:103D500080931304FF91EF91DF91CF91BF91AF91C9
:103D60009F918F917F916F915F914F913F912F9193
:103D70001F910F910F900FBE0F901F9018952F92CB
:103D80003F924F925F926F927F928F929F92AF92EB
:103D9000BF92CF92DF92EF92FF920F931F93CF9338
:103DA000DF93CDB7DEB762970FB6F894DEBF0FBED4
:103DB000CDBF8091EE039091EF03C0901E04D09090
:103DC0001F04C81AD90AD092A807C092A7078091E9
:103DD000EC039091ED03988B8F87A0911C04B09118
:103DE0001D04BA8BA98BE091EA03F091EB03FE87E7
:103DF000ED8780911A0490911B049C878B876091BA
:103E0000F5037091F603E0908F07F090900700277C
:103E1000F7FC0095102F882777FD8095982F2CE0D0
:103E200030E040E050E00E94BA4CE60EF71E081F5A
:103E3000191FC801B70122E030E040E050E00E94C5
:103E40002E4D3093900720938F076091F30370916C
:103E5000F403E090B207F090B3070027F7FC009559
:103E6000102F882777FD8095982F2CE030E040E0D8
:103E700050E00E94BA4CE60EF71E081F191FC80139
:103E8000B70122E030E040E050E00E942E4D309338
:103E9000B3072093B2072091F7033091F8036091A4
:103EA0009E0770919F07882777FD8095982F44275C
:103EB00037FD4095542F620F731F841F951F22E01A
:103EC00030E040E050E00E942E4D30939F07209359
:103ED0009E072091F5033091F603C901880F991FC1
:103EE000820F931F880F991F880F991FAA2797FD8C
:103EF000A095BA2F20915404309155044091560456
:103F000050915704280F391F4A1F5B1F20935404F8
:103F10003093550440935604509357042091F30373
:103F20003091F403C901880F991F820F931F880FE6
:103F3000991F880F991FAA2797FDA095BA2F209146
:103F400058043091590440915A0450915B04280F51
:103F5000391F4A1F5B1F2093580430935904409324
:103F60005A0450935B042091F5033091F60380913D
:103F7000640490916504820F931F9093650480936D
:103F800064042091F3033091F403809166049091CE
:103F90006704820F931F9093670480936604809157
:103FA0006804909169040196909369048093680471
:103FB0003601882477FC8094982C2090500430900F
:103FC00051044090520450905304260C371C481C56
:103FD000591C209250043092510440925204509245
:103FE00053048091AA079091AB07A091AC07B091C0
:103FF000AD07860D971DA81DB91D8093AA07909344
:10400000AB07A093AC07B093AD078837E7E19E07F5
:10401000E7E0AE07E0E0BE0764F088579741A740AD
:10402000B0408093AA079093AB07A093AC07B093DE
:10403000AD078091AA079091AB07A091AC07B09112
:10404000AD07B7FF0CC08858984EA84FBF4F80935C
:10405000AA079093AB07A093AC07B093AD07F0917C
:104060009B04FA87FF2309F07EC080919C0488237B
:1040700009F079C08091C10786FF75C0E090960372
:10408000FF240027112720914004309141044091E2
:10409000420450914304C401B3010E94BA4C20E091
:1040A00038E040E050E00E942E4DCA01B901A8015D
:1040B00097010E94BA4C20E030E140E050E00E94BD
:1040C0002E4D59016A012093DA043093DB044093AA
:1040D000DC045093DD042091480430914904409160
:1040E0004A0450914B04C401B3010E94BA4C20E031
:1040F00038E040E050E00E942E4DCA01B901A8010D
:1041000097010E94BA4C20E030E140E050E00E946C
:104110002E4D2093D6043093D7044093D804509367
:10412000D904D601C501D7FE07C0B095A0959095DA
:1041300081959F4FAF4FBF4F81389105A105B105C4
:1041400074F457FF07C050954095309521953F4F27
:104150004F4F5F4F2138310541055105A4F081E0F3
:104160008093630410C01092D6041092D70410926A
:10417000D8041092D9041092DA041092DB04109241
:10418000DC041092DD048091DA049091DB04A091AC
:10419000DC04B091DD048E839F83A887B98780916A
:1041A000D6049091D704A091D804B091D9048A8301
:1041B0009B83AC83BD8380919703682E77248824EA
:1041C0009924EF84F888A989BA89EA1AFB0AEE8152
:1041D000FF81EE0EFF1E6A817B818C819D81A4018F
:1041E00093010E94BA4C20E032E040E050E00E948F
:1041F0002E4DE20EF31EF092A607E092A50797015E
:10420000442737FD4095542F80914C0490914D04E4
:10421000A0914E04B0914F04820F931FA41FB51FAD
:1042200080934C0490934D04A0934E04B0934F049C
:104230008091970490919804E81AF90A0027F7FCF6
:104240000095102F8091480490914904A0914A0450
:10425000B0914B04E80EF91E0A1F1B1FE0924804A0
:10426000F092490400934A0410934B04A090790300
:10427000B0907A03C0907B03D0907C03AE14BF044F
:10428000C006D106C4F480E197E2A0E0B0E08A194C
:104290009B09AC09BD098093480490934904A093FD
:1042A0004A04B0934B0480934C0490934D04A09324
:1042B0004E04B0934F0422273327A9012A193B0942
:1042C0004C095D098091480490914904A0914A04E9
:1042D000B0914B0482179307A407B507B4F4D60135
:1042E000C50180519742A040B0408093480490930C
:1042F0004904A0934A04B0934B0480934C049093D8
:104300004D04A0934E04B0934F048091EC03909120
:10431000ED030F9734F488E19CEF9093A607809308
:10432000A5078091EC039091ED03079734F480E3A7
:1043300098EF9093A6078093A507F0910001F98369
:10434000FA30A9F48091EC039091ED03835F9340E0
:1043500034F088EE93E09093A6078093A5078091B0
:10436000EC039091ED038A5F9340DCF014C08091E0
:10437000EC039091ED03855E974034F088EE93E076
:104380009093A6078093A5078091EC039091ED038D
:10439000835F974034F080ED97E09093A607809379
:1043A000A507ED84FE848B859C85E81AF90AAA810D
:1043B000BB81EA1AFB0A6E817F8188859985A401F9
:1043C00093010E94BA4C20E032E040E050E00E94AD
:1043D0002E4DE21AF30AF092B107E092B00797016E
:1043E000442737FD4095542F809144049091450413
:1043F000A0914604B0914704820F931FA41FB51FDC
:104400008093440490934504A0934604B0934704DA
:104410008091990490919A04E81AF90A0027F7FC10
:104420000095102F8091400490914104A091420486
:10443000B0914304E80EF91E0A1F1B1FE0924004CE
:10444000F09241040093420410934304A09075033A
:10445000B0907603C0907703D0907803AE14BF0479
:10446000C006D106C4F488EA91E6A0E0B0E08A195B
:104470009B09AC09BD098093400490934104A0932B
:104480004204B09343048093440490934504A09362
:104490004604B093470422273327A9012A193B0970
:1044A0004C095D098091400490914104A09142041F
:1044B000B091430482179307A407B507B4F4D6015B
:1044C000C501885A9146A040B04080934004909323
:1044D0004104A0934204B093430480934404909316
:1044E0004504A0934604B09347048091EA03909159
:1044F000EB030F9734F488E19CEF9093B10780931E
:10450000B0078091EA039091EB03079734F480E3BE
:1045100098EF9093B1078093B007B981BA30A9F4AE
:104520008091EA039091EB03835F934034F088EE2F
:1045300093E09093B1078093B0078091EA03909144
:10454000EB038A5F9340DCF014C08091EA03909102
:10455000EB03855E974034F088EE93E09093B107CB
:104560008093B0078091EA039091EB03835F9740BB
:1045700034F080ED97E09093B1078093B00780917D
:104580007A00886C80937A0020923C0430923D043B
:1045900040923E0450923F04809140049091410427
:1045A000A0914204B091430480932C0490932D0475
:1045B000A0932E04B0932F04809148049091490455
:1045C000A0914A04B0914B04809334049093350435
:1045D000A0933604B093370480914404909145042D
:1045E000A0914604B0914704809330049093310425
:1045F000A0933204B093330480914C0490914D0405
:10460000A0914E04B0914F048093380490933904E4
:10461000A0933A04B0933B048091C10787FF3FC049
:10462000BA85BB23E1F580919C048823C1F52091D4
:10463000B0073091B107293C310524F0C9018052FF
:10464000934007C0EFEF28333E076CF4C901805E4A
:104650009C4F220F331F220F331F280F391F309317
:10466000B1072093B0072091A5073091A607293CF8
:10467000310524F0C9018052934007C0FFEF283371
:104680003F076CF4C901805E9C4F220F331F220F3D
:10469000331F280F391F3093A6072093A507629672
:1046A0000FB6F894DEBF0FBECDBFDF91CF911F9143
:1046B0000F91FF90EF90DF90CF90BF90AF909F90C1
:1046C0008F907F906F905F904F903F902F900895C4
:1046D0001F938091130490911404813A91050CF476
:1046E00099C38091C4078B3F98F08B3F19F4809158
:1046F0006D040EC08C3F19F480916F0409C08D3F8A
:1047000019F48091710404C08E3F21F480917304E8
:10471000809384038091C3078B3F98F08B3F19F4FB
:1047200080916D040EC08C3F19F480916F0409C014
:104730008D3F19F48091710404C08E3F21F4809163
:1047400073048093830380918303882319F4109268
:10475000830305C0843618F084E680938303809138
:10476000C5078B3F98F08B3F19F480916D040EC004
:104770008C3F19F480916F0409C08D3F19F480912A
:10478000710404C08E3F21F48091730480938503EB
:1047900080918503882319F41092850305C084361F
:1047A00018F084E6809385038091C7078B3F98F0CB
:1047B0008B3F19F480916D040EC08C3F19F48091E9
:1047C0006F0409C08D3F19F48091710404C08E3FBD
:1047D00021F480917304809386038091CE078B3FF0
:1047E00098F08B3F19F480916D040EC08C3F19F442
:1047F00080916F0409C08D3F19F48091710404C049
:104800008E3F21F480917304809387038091CF07BA
:104810008B3F98F08B3F19F480916D040EC08C3F54
:1048200019F480916F0409C08D3F19F480917104CF
:1048300004C08E3F21F4809173048093880380919B
:1048400088038B3010F48AE002C08F3F11F480930C
:1048500088038091D0078B3F98F08B3F19F48091AB
:104860006D040EC08C3F19F480916F0409C08D3F18
:1048700019F48091710404C08E3F21F48091730477
:10488000809389038091D5078B3F98F08B3F19F473
:1048900080916D040EC08C3F19F480916F0409C0A3
:1048A0008D3F19F48091710404C08E3F21F48091F2
:1048B000730480938B038091D6078B3F98F08B3FD6
:1048C00019F480916D040EC08C3F19F480916F042F
:1048D00009C08D3F19F48091710404C08E3F21F40A
:1048E0008091730480938C038091D7078B3F98F05D
:1048F0008B3F19F480916D040EC08C3F19F48091A8
:104900006F0409C08D3F19F48091710404C08E3F7B
:1049100021F48091730480938D038091D8078B3F9D
:1049200098F08B3F19F480916D040EC08C3F19F400
:1049300080916F0409C08D3F19F48091710404C007
:104940008E3F21F48091730480938E038091D90768
:104950008B3F98F08B3F19F480916D040EC08C3F13
:1049600019F480916F0409C08D3F19F4809171048E
:1049700004C08E3F21F48091730480938F03809153
:10498000E9078B3F98F08B3F19F480916D040EC0BE
:104990008C3F19F480916F0409C08D3F19F4809108
:1049A000710404C08E3F21F48091730480939003BE
:1049B0008091EA078B3F98F08B3F19F480916D044A
:1049C0000EC08C3F19F480916F0409C08D3F19F41B
:1049D0008091710404C08E3F21F480917304809310
:1049E00091038091EB078B3F98F08B3F19F48091F6
:1049F0006D040EC08C3F19F480916F0409C08D3F87
:104A000019F48091710404C08E3F21F480917304E5
:104A1000809392038091EC078B3F98F08B3F19F4C1
:104A200080916D040EC08C3F19F480916F0409C011
:104A30008D3F19F48091710404C08E3F21F4809160
:104A40007304809393038091DA078B3F98F08B3F38
:104A500019F480916D040EC08C3F19F480916F049D
:104A600009C08D3F19F48091710404C08E3F21F478
:104A700080917304809394038091DF078B3F98F0BB
:104A80008B3F19F480916D040EC08C3F19F4809116
:104A90006F0409C08D3F19F48091710404C08E3FEA
:104AA00021F480917304809395038091E2078B3FFA
:104AB00098F08B3F19F480916D040EC08C3F19F46F
:104AC00080916F0409C08D3F19F48091710404C076
:104AD0008E3F21F480917304809396038091E307C5
:104AE0008B3F98F08B3F19F480916D040EC08C3F82
:104AF00019F480916F0409C08D3F19F480917104FD
:104B000004C08E3F21F480917304809397038091B9
:104B1000E8078B3F98F08B3F19F480916D040EC02D
:104B20008C3F19F480916F0409C08D3F19F4809176
:104B3000710404C08E3F21F4809173048093980324
:104B40008091EE078B3F98F08B3F19F480916D04B4
:104B50000EC08C3F19F480916F0409C08D3F19F489
:104B60008091710404C08E3F21F48091730480937E
:104B70009A0380919A03823010F481E002C08F3F43
:104B800011F480939A038091F0078B3F98F08B3F4C
:104B900019F480916D040EC08C3F19F480916F045C
:104BA00009C08D3F19F48091710404C08E3F21F437
:104BB0008091730480939B0380919B03823010F457
:104BC00081E002C08F3F11F480939B038091F10735
:104BD0008B3F98F08B3F19F480916D040EC08C3F91
:104BE00019F480916F0409C08D3F19F4809171040C
:104BF00004C08E3F21F48091730480939C038091C4
:104C0000F2078B3F98F08B3F19F480916D040EC032
:104C10008C3F19F480916F0409C08D3F19F4809185
:104C2000710404C08E3F21F48091730480939D032E
:104C30008091F3078B3F98F08B3F19F480916D04BE
:104C40000EC08C3F19F480916F0409C08D3F19F498
:104C50008091710404C08E3F21F48091730480938D
:104C60009E038091F4078B3F98F08B3F19F480915D
:104C70006D040EC08C3F19F480916F0409C08D3F04
:104C800019F48091710404C08E3F21F48091730463
:104C900080939F038091F5078B3F98F08B3F19F429
:104CA00080916D040EC08C3F19F480916F0409C08F
:104CB0008D3F19F48091710404C08E3F21F48091DE
:104CC00073048093A0038091F6078B3F98F08B3F8D
:104CD00019F480916D040EC08C3F19F480916F041B
:104CE00009C08D3F19F48091710404C08E3F21F4F6
:104CF000809173048093A1038091FB078B3F98F010
:104D00008B3F19F480916D040EC08C3F19F4809193
:104D10006F0409C08D3F19F48091710404C08E3F67
:104D200021F4809173048093A2038091A2038B30BD
:104D300010F48AE002C08F3F11F48093A2038091A7
:104D4000F9078B3F98F08B3F19F480916D040EC0EA
:104D50008C3F19F480916F0409C08D3F19F4809144
:104D6000710404C08E3F21F4809173048093A303E7
:104D70008091FA078B3F98F08B3F19F480916D0476
:104D80000EC08C3F19F480916F0409C08D3F19F457
:104D90008091710404C08E3F21F48091730480934C
:104DA000A4038091FD078B3F98F08B3F19F480910D
:104DB0006D040EC08C3F19F480916F0409C08D3FC3
:104DC00019F48091710404C08E3F21F48091730422
:104DD0008093990310918B03612F772767FD70955E
:104DE000872F972F0E94F84B17FF06C020E030E076
:104DF00040E853E40E94534B27E137EB41ED58E381
:104E00000E94724C60937F037093800380938103B0
:104E1000909382031F91089580916C0480FD25C0BA
:104E20001092A907109297071092A0071092B80746
:104E30008091D503882311F0809397078091D60342
:104E4000882311F08093A9078091D703882311F05C
:104E50008093B8078091D803882311F08093A0072E
:104E600080916C04857F80936C04809197079927CB
:104E700090938706809386068091A907992790933F
:104E80008906809388068091B807992790938B06AE
:104E900080938A068091A007992790938D0680932E
:104EA0008C0610920F040E94231C0895809100012B
:104EB0008D3011F40E944B1480917A008773809397
:104EC0007A008091EA039091EB039093B10780936D
:104ED000B0078091EC039091ED039093A607809327
:104EE000A5078091EE039091EF039093A80780931C
:104EF000A7076091F5037091F603882777FD8095E9
:104F0000982F2CE030E040E050E00E94BA4C7093C3
:104F1000900760938F076091F3037091F4038827E3
:104F200077FD8095982F0E94BA4C7093B3076093D9
:104F3000B2078091F7039091F80390939F078093B5
:104F40009E0780917A00886C80937A006091E407D4
:104F500077278827992724EC39E040E050E00E9429
:104F6000BA4C6093750370937603809377039093A4
:104F700078036091E5077727882799270E94BA4C24
:104F80006093790370937A0380937B0390937C03FF
:104F90000895109225041092240410922704109270
:104FA000260480E090E0A0E0B0E080932804909395
:104FB0002904A0932A04B0932B0410921B0410928E
:104FC0001A0410921D0410921C0410921F041092D7
:104FD0001E0410929603109297031092FA030E94F7
:104FE000562784E690E00E94AB0F0E9456278091DE
:104FF000C10780FF10C08091170390911803875B51
:10500000934038F480911703909118038E5E92407C
:1050100010F40E94FD144091EA035091EB03509369
:105020001B0440931A042091EC033091ED0330935C
:105030001D0420931C048091EE039091EF03909344
:105040001F0480931E043093210420932004509366
:1050500023044093220484E00E94C43F8050944083
:1050600058F18091B2079091B30797FF03C09095D4
:1050700081959F4F6CE070E00E94F94C709327047B
:105080006093260480918F079091900797FF03C04B
:10509000909581959F4F6CE070E00E94F94C709361
:1050A0002504609324046091E8037091E903882744
:1050B00077FD8095982F17C084E00E94C43F90939D
:1050C00025048093240486E00E94C43F9093270423
:1050D0008093260488E00E94C43FAA2797FDA095EC
:1050E000BA2FBC01CD010E94F84B60932804709345
:1050F000290480932A0490932B0410924004109268
:1051000041041092420410924304109244041092FD
:1051100045041092460410924704109248041092DD
:10512000490410924A0410924B0410924C041092BD
:105130004D0410924E0410924F041092500410929D
:10514000510410925204109253041092B10710921D
:10515000B0071092A6071092A5071092A807109208
:10516000A70784E690E00E94AB0F80911303909113
:105170001403A0911503B0911603909349078093EF
:1051800048071092FC031092FB0310925C041092EB
:105190005D0410925E0410925F0480916F03909101
:1051A0007003909372038093710382E390E0909375
:1051B000E4038093E3036091E40777278827992726
:1051C00024EC39E040E050E00E94BA4C6856754C3F
:1051D0008F4F9F4F6093750370937603809377038F
:1051E000909378036091E5077727882799270E9495
:1051F000BA4C6856754C8F4F9F4F609379037093EC
:105200007A0380937B0390937C0310927E03109229
:105210007D031092860410928504109288041092E7
:10522000870460916F0370917003882777FD8095E4
:10523000982F2BE035E040E050E00E94BA4C60939C
:10524000AA077093AB078093AC079093AD071092B9
:10525000AF071092AE0780916C04846080936C0459
:105260008FEF8093A5038091E7079927A4E0880F2B
:10527000991FAA95E1F78093A60380E28093A70384
:1052800008951F93182F0EC080916C0480FD0CC0F0
:1052900084E690E09093E4038093E3038AEF90E048
:1052A0000E94C70F115080F71F9108958091B90790
:1052B000E82FFF27EE0FFF1FED5AF84F80819181F5
:1052C0008D5E9F4F14F01092A903808191818A5BBB
:1052D0009F4FDCF48091A9038823B9F481E0809387
:1052E000A903809162048F5F8093620480916204BD
:1052F000853028F4809162040E944129089588EE47
:1053000093E09093E4038093E30308952F923F92F8
:105310004F925F926F927F928F929F92AF92BF92C5
:10532000CF92DF92EF92FF920F931F93CF93DF9371
:10533000CDB7DEB7A3970FB6F894DEBF0FBECDBFD3
:105340000E94BF1E409100014C3010F4299A01C008
:10535000299820918304309184048091CB07682F91
:105360007727665F7F4F7C836B836217730714F424
:105370003C832B838091130490911404883791050A
:105380000CF074C080910301882399F48091060386
:10539000909107038F5F9F4F61F488E99AE39093A0
:1053A000E4038093E30380E09CE090930703809301
:1053B00006038091C0049091C104009731F00197D9
:1053C0009093C1048093C00405C080916C048E7ECC
:1053D00080936C044A3011F0443111F4289A01C0D2
:1053E000289880916A0490916B04895E934008F438
:1053F0002BC48091D207E82FFF27FC83EB83809199
:105400006C04806180936C04E091B9072E2F3327E0
:10541000220F331FF901EF58F84F11821082A0912B
:10542000BA07BB27AA0FBB1FFD01EF58F84F118227
:105430001082E091BC074E2F5527440F551FCA011B
:105440008F58984FFC01118210822D5A384FF90164
:1054500011821082AD5AB84F11961C921E924D5A6D
:10546000584FDA0111961C921E92F6C380911304D4
:10547000909114048D3891050CF4EEC380916C0466
:105480008F7E80936C048091D30722E3829FC001BA
:1054900011249093C1048093C004EB81FC81B997DF
:1054A0008CF080916C0480FF0DC080916A04909113
:1054B0006B04FFEF8F3F9F07D9F1019690936B0428
:1054C00080936A0480916A0490916B048F3F9105E8
:1054D00009F070F51092D2041092D3041092D40403
:1054E0001092D5041092CE041092CF041092D004E2
:1054F0001092D10410928204109281048A3F910587
:10550000E1F481E090E09093B8048093B7041092A6
:1055100050041092510410925204109253041092AD
:10552000CA041092CB041092CC041092CD0405C092
:1055300080916C04826080936C0420916D043091A2
:105540006E048091BD07E82FFF27EE0FFF1FED5A75
:10555000F84F8081918182599F4F281739071CF499
:105560002F5F3F4F0CC08081918182599F4F8217DE
:1055700093074CF42115310531F021503040309320
:105580006E0420936D0420916F043091700480911B
:10559000BE07E82FFF27EE0FFF1FED5AF84F80815F
:1055A000918182599F4F281739071CF42F5F3F4F75
:1055B0000CC08081918182599F4F821793074CF4D0
:1055C0002115310531F02150304030937004209383
:1055D0006F0420917104309172048091BF07E82F0D
:1055E000FF27EE0FFF1FED5AF84F808191818259FE
:1055F0009F4F281739071CF42F5F3F4F0CC0808145
:10560000918182599F4F821793074CF421153105E0
:1056100031F0215030403093720420937104209176
:105620007304309174048091C007E82FFF27EE0FB8
:10563000FF1FED5AF84F8081918182599F4F2817A3
:1056400039071CF42F5F3F4F0CC080819181825934
:105650009F4F821793074CF42115310531F02150EB
:10566000304030937404209373042091750430917A
:105670007604809165079091660782599F4F28179D
:1056800039071CF42F5F3F4F0EC080916507909142
:10569000660782599F4F821793074CF421153105F5
:1056A00031F02150304030937604209375042091DE
:1056B0007704309178048091670790916807825948
:1056C0009F4F281739071CF42F5F3F4F0EC0809162
:1056D00067079091680782599F4F821793074CF490
:1056E0002115310531F0215030403093780420935A
:1056F00077042091790430917A0480916907909120
:105700006A0782599F4F281739071CF42F5F3F4FB4
:105710000EC08091690790916A0782599F4F821746
:1057200093074CF42115310531F02150304030936E
:105730007A042093790420917B0430917C04809139
:105740006B0790916C0782599F4F281739071CF4FB
:105750002F5F3F4F0EC080916B0790916C0782596D
:105760009F4F821793074CF42115310531F02150DA
:10577000304030937C0420937B0480916D049091A1
:105780006E0497FF05C010926E0410926D040AC05B
:105790008F3F910539F034F08FEF90E090936E04D5
:1057A00080936D0480916F049091700497FF05C001
:1057B0001092700410926F040AC08F3F910539F067
:1057C00034F08FEF90E09093700480936F04809199
:1057D00071049091720497FF05C0109272041092A8
:1057E00071040AC08F3F910539F034F08FEF90E0DB
:1057F0009093720480937104809173049091740467
:1058000097FF05C010927404109273040AC08F3F72
:10581000910539F034F08FEF90E090937404809309
:105820007304809175049091760497FF05C01092DF
:105830007604109275040AC08F3F910539F034F058
:105840008FEF90E0909376048093750480917704B5
:105850009091780497FF05C0109278041092770415
:105860000AC08F3F910539F034F08FEF90E09093AC
:105870007804809377048091790490917A0497FF5B
:1058800005C010927A04109279040AC08F3F9105E6
:1058900039F034F08FEF90E090937A04809379049C
:1058A00080917B0490917C0497FF05C010927C044A
:1058B00010927B040AC08F3F910539F034F08FEFCE
:1058C00090E090937C0480937B04E091BB07FF27DA
:1058D000EE0FFF1FED5AF84F8081918181359105C0
:1058E0000CF415C180916C0480FD11C18091BC073E
:1058F000E82FFF27EE0FFF1FED5AF84F80819181AF
:105900008C3491050CF4C3C08091BF048F5F8093E9
:10591000BF04893C08F4FBC01092BF044C3010F463
:10592000299801C0299A10926B0410926A04809100
:10593000B907282F3327D901AA0FBB1FAD5AB84F7B
:105940008D919C911197873491059CF48091BA07B1
:10595000E82FFF27EE0FFF1FED5AF84F808191814E
:1059600097FF03C0909581959F4F873491050CF464
:105970006BC08091BA07682F7727DB01AA0FBB1F86
:10598000AD5AB84F8D919C911197873491053CF099
:10599000F901EE0FFF1FED5AF84F808191818D9133
:1059A0009C918734910564F0F901EE0FFF1FED5AC9
:1059B000F84F808191818734910514F042E001C055
:1059C00041E0FB01EE0FFF1FED5AF84F80819181FE
:1059D000863491055CF4F901EE0FFF1FED5AF84F84
:1059E00080819181873491050CF043E0FB01EE0F3B
:1059F000FF1FED5AF84F808191818A5B9F4F5CF4C5
:105A0000F901EE0FFF1FED5AF84F80819181873425
:105A100091050CF044E0660F771F6D5A784FDB015B
:105A20008D919C918A5B9F4F5CF4220F331F2D5AFE
:105A3000384FF90180819181863491050CF445E05D
:105A4000842F0E94E33F1CC08091C1078872C1F07F
:105A50008081918197FF03C0909581959F4F4E97CC
:105A60007CF48D919C918A5B9F4F54F481E08093EC
:105A7000620488EE93E09093E4038093E30347C0CD
:105A80000E94D43F0E9408400E94C92739C08081EB
:105A90009181855B9F4FCCF58091BF048F5F809390
:105AA000BF04893CA0F11092BF044C3010F4299837
:105AB00001C0299A6FEF7FEF84E00E94CC3F1092E3
:105AC0006B0410926A040E94C927609124047091AB
:105AD000250484E00E94CC3F609126047091270445
