:100000000C9469020C9486020C9486020C9486026D
:100010000C9486020C9486020C9486020C94860240
:100020000C9486020C94FF0D0C9486020C948602AC
:100030000C949A1A0C9486020C9486020C94661AFC
:100040000C9486020C9486020C94270D0C94860264
:100050000C9485040C9486020C944F040C94860234
:100060000C943B0F0C9486020C9444190C94860259
:100070000A0A0D004E65757472616C004865616412
:10008000696E67486F6C64000A0D436F6E74726F1F
:100090006C3A20000A0D537570706F727420666F91
:1000A00072204E6176694374726C004F4B0A0D00EA
:1000B0000A0D43616C6962726174696E67206169DF
:1000C000722070726573737572652073656E736FDD
:1000D000722E2E000A0D414343206E6F742063611F
:1000E0006C6962726174656421000A0D3D3D3D3D9D
:1000F0003D3D3D3D3D3D3D3D3D3D3D3D3D3D3D3D30
:100100003D3D3D3D3D3D3D3D3D3D000A0D466C695B
:10011000676874436F6E74726F6C0A0D4861726425
:10012000776172653A25642E25640A0D536F6674F3
:10013000776172653A5625642E2564256320002E6A
:100140000048693A253469202043663A25346920FD
:100150000047733A253469202059613A25346920D3
:10016000004E693A2534692020526F3A25346920BF
:100170000045787465726E436F6E74726F6C2020E8
:100180000052616E67653A2533692D253369005049
:100190006F736974696F6E3A202533690053657413
:1001A000706F696E74202025336900536572766F15
:1001B000202000506F343A2025336920506F383AA0
:1001C0002025336900506F333A2025336920506F62
:1001D000373A2025336900506F323A2025336920A1
:1001E000506F363A2025336900506F313A2025335D
:1001F0006920506F353A20253369004F6666436F9A
:10020000757273653A202535690048656164696EC9
:10021000673A20202025356900436F757273653A6F
:100220002020202025356900436F6D706173732095
:100230002020202020200052432D4C6576656C3A0A
:100240002025356900566F6C746167653A2020255A
:100250003569004865696768742025346920282558
:1002600033692900526F6C6C2020202534692028C6
:1002700025336929004E69636B20202025346920CD
:10028000282533692900414343202D2053656E738F
:100290006F72005961772020253469202825336941
:1002A00029282533692900526F6C6C202534692078
:1002B00028253369292825336929004E69636B2075
:1002C00025346920282533692928253369290059CF
:1002D0006177202025346920282533692900526F51
:1002E0006C6C20253469202825336929004E696308
:1002F0006B2025346920282533692900596177202E
:100300002025346920282533692900526F6C6C2020
:10031000253469202825336929004E69636B20251F
:100320003469202825336929004779726F202D20F0
:1003300053656E736F720050333A25346920205034
:10034000343A253469200050313A25346920205050
:10035000323A253469200047733A25346920205900
:10036000613A25346920004E693A253469202052CB
:100370006F3A253469200043373A253469202043F9
:10038000383A253469200043353A25346920204322
:10039000363A253469200043333A25346920204316
:1003A000343A253469200043313A2534692020430A
:1003B000323A253469200048656164696E673A20E5
:1003C000202025356900526F6C6C3A2020202020B7
:1003D00020253569004E69636B3A202020202020BB
:1003E00025356900417474697475646500486569F0
:1003F00067687420436F6E74726F6C004E6F2000DC
:100400004F6666736574202020203A2535690041C7
:1004100069722050726573732E3A253569005365F1
:100420007420506F696E743A2025356900486569FB
:100430006768743A20202020253569002863292028
:10044000486F6C67657220427573730053657474EE
:10045000696E673A202564200048573A5625642E75
:1004600025642053573A25642E25642563002B20EC
:100470004D696B726F4B6F70746572202B005B253A
:10048000695D005B25695D000A0D5573696E672023
:10049000506172616D6574657220536574202564C6
:1004A000000A0D496E69742E20454550524F4D3A51
:1004B0002047656E65726174696E67204465666188
:1004C000756C742D506172616D657465722E2E2E7F
:1004D000000011241FBECFEFD0E1DEBFCDBF13E07F
:1004E000A0E0B1E0E0E3F8E802C005900D92A03C86
:1004F000B107D9F717E0A0ECB3E001C01D92A9380D
:10050000B107E1F70E9488020C9417440C94000094
:10051000CF93DF93F89414B815B8189B0EC0199BAD
:1005200002C08DE001C08BE08093000184B1836044
:1005300084B980910001289812C0199B08C084E1F9
:100540008093000184B1836084B984E107C08AE0AC
:100550008093000184B1836084B98AE0289A8C304A
:1005600010F4299801C0299A84B7877F84BF8091AD
:1005700060008861809360001092600080ED97E0D9
:100580009093DC038093DB03109274061092730641
:1005900010927B0410927A041092790410927804DD
:1005A0001092770410927604809100018A3011F045
:1005B000843111F4289801C0289A0E94F90C0E94F5
:1005C000DA0D0E94B9050E94321A0E941E0F0E9485
:1005D000E5180E94E53E78942091000188E690E0BD
:1005E0009F938F9387E490E09F938F931F921F9226
:1005F000822F6AE00E947F43892F99279F938F93D0
:10060000822F0E947F4399279F938F938BE091E0E5
:100610009F938F931F920E94570A8AEE90E09F93B8
:100620008F931F920E94570A8DB79EB740960FB6C0
:10063000F8949EBF0FBE8DBF809100018C3010F4E6
:10064000299A01C029980E941E3E84E00E949E3B88
:100650008050944050F084ED90E09F938F931F92D0
:100660000E94570A0F900F900F9084EF91E00E9424
:10067000940DEC01CE010E949D0D8823D9F3809149
:10068000DD0680FF20C080EB90E09F938F931F9248
:100690000E94570A88EE93E00E94940DEC010E949C
:1006A000FA120F900F900F90CE010E949D0D88239B
:1006B000D9F38BEA90E09F938F931F920E94570A81
:1006C0000F900F900F9084E990E09F938F931F926B
:1006D0000E94570A0E94B723809100010F900F904B
:1006E0000F908A3011F0843111F4289801C0289AB3
:1006F00080ED97E09093DC038093DB0385E58093A6
:100700007D0588E890E09F938F931F920E94570A7F
:100710008091DD060F900F900F9082FF03C08CE751
:1007200090E002C084E790E09F938F931F920E9415
:10073000570A0F900F900F9080E790E09F938F9350
:100740001F920E94570A0E94371388E893E1909302
:100750006D0380936C030F900F900F908091D803DE
:10076000882309F494C01092D8030E9474250E9433
:10077000FA22209100012A3011F0243111F4289836
:1007800001C0289A80910301882321F08150809331
:1007900003010EC010928705109287041092860400
:1007A000109289041092880410928B0410928A048B
:1007B00080916C0390916D03892B01F585E090E0A9
:1007C00090936D0380936C030E941219809106032D
:1007D000909107038F5F9F4F09F58091650480FF1B
:1007E0001DC080E197E29093DC038093DB0380E8F7
:1007F00090E0909307038093060310C080916C03F0
:1008000090916D03019790936D0380936C032A3050
:1008100011F0243111F4289801C0289A8091D8034E
:10082000882321F08091650480FD02C00E940907A1
:100830000E948008CE010E949D0D882331F12091F5
:100840000E0330910F038091ED0699272817390781
:1008500094F480E093E090930703809306038091E3
:10086000DB039091DC03892B31F480E797E19093CF
:10087000DC038093DB030E94B04184E08093DD03BE
:1008800084E190E00E94940DEC010E947418809124
:10089000DD03882309F062CF0E94153F5FCF1F92CE
:1008A0000F920FB60F9211248F939F93EF93FF93A4
:1008B000809102018823E1F48091D4039091D503C3
:1008C00001969093D5038093D403FC01E653FA4F2D
:1008D000E081ED3019F08639910539F41092D50395
:1008E0001092D40381E080930201E093C60004C01B
:1008F0001092D5031092D403FF91EF919F918F91A5
:100900000F900FBE0F901F9018951F920F920FB669
:100910000F9211242F933F934F935F936F937F9385
:100920008F939F93AF93BF93CF93DF93EF93FF93F7
:100930007091C6008091C803882309F06EC0609151
:10094000D103662371F4733279F47093DD0481E08E
:100950008093D10383E290E09093D3038093D203FA
:100960005CC0663908F055C0A62FBB272091D20382
:100970003091D3037D3069F0A352BB4F7C936F5FFE
:100980006093D103270F311D3093D3032093D203FB
:1009900044C0FD01E552FB4F9081ED01C452DB4F95
:1009A0008881A901491B5109481B51095F70509367
:1009B000D3034093D2032081CA0136E096958795F0
:1009C0003A95E1F7835C8217F9F49881842F8F734D
:1009D000835C8917C9F4A352BB4F7C936F5F60930C
:1009E000C90381E08093C8038091DF04823571F4EC
:1009F00088E190E02CE00FB6F894A8958093600011
:100A00000FBE2093600002C01092C8031092D10361
:100A100004C01092D1031092C803FF91EF91DF91AF
:100A2000CF91BF91AF919F918F917F916F915F9186
:100A30004F913F912F910F900FBE0F901F901895DF
:100A4000DC0120E030E040E050E0EAECF5E005C0F9
:100A50008191280F311D4F5F5F4F4A175B07C1F728
:100A60003F70C90146E0969587954A95E1F7835C0A
:100A7000FD01E653FA4F808311962F73235CFD012D
:100A8000E653FA4F2083A553BA4F8DE08C93109212
:100A900002018091CA058093C60008953091C90370
:100AA000365043E063E046C0E42FFF27E352FB4F9C
:100AB00090814F5FE42FFF27E352FB4F20814F5F70
:100AC000E42FFF27E352FB4F70814F5FE42FFF2796
:100AD0004350E352FB4F50812D53E62FFF279D5388
:100AE000990F990F822F82958F70982BE352FB4FAD
:100AF0009083E62FEF5F313009F1972F9D53FF2749
:100B00002295207F892F86958695282BE352FB4FCF
:100B10002083E62FEE5F33503F3F81F04C5FFF278D
:100B20009295990F990F907C5D53952BE352FB4F53
:100B300090836D5F332309F0B7CFE62F80EE94E00A
:100B40009093CB038093CA03E350E093CC030895C2
:100B50001F93182F8A3019F48DE00E94A805809108
:100B6000C00085FFFCCF1093C60080E090E01F918D
:100B700008951F931FB7F8948091C1008F778093D9
:100B8000C1008091C1008F7B8093C100589A50981A
:100B9000599A519A1092C5008AE28093C4008091BC
:100BA000C00082608093C00088E18093C100809182
:100BB000C2008F778093C2008091C2008F7B8093A8
:100BC000C2008091C2008F7D8093C2008091C200DC
:100BD0008F7E8093C2008091C200877F8093C20085
:100BE0008091C1008B7F8093C1008091C20084609E
:100BF0008093C2008091C20082608093C20002C0D4
:100C00008091C6008091C00087FDFACF8091C1001D
:100C100080688093C1008091C10080648093C1008E
:100C200080910401909105010E94940D90936106BA
:100C3000809360061092C8031092CB031092CA03EF
:100C40001092CC0381E0809302011092730587E437
:100C50008093740587E0809377058AE0809375051B
:100C6000109276051FBF1F910895DF92EF92FF92B9
:100C70000F931F93CF93DF93CDB7DEB722970FB6B5
:100C8000F894DEBF0FBECDBF9D85AE8583E2809315
:100C9000CA059F599093CB058C858093CC05CE01D6
:100CA0000F969A838983AA2341F4EE24FF2460E0FF
:100CB00070E003E010E0B0E092C0EF84F888CE016D
:100CC00043969A83898369897A89A150F2CFF70183
:100CD000EB0FF11D9081BF5F61507040A9F4AA2312
:100CE00019F4DD2440E042C0E981FA81E080F1801E
:100CF0003496FA83E983349762817381A150611538
:100D0000710509F471C0B0E0F701EB0FF11D4081EE
:100D1000BF5F61507040A1F4AA2309F467C0E98164
:100D2000FA81E080F1803496FA83E9833497628116
:100D30007381A1506115710511F4DD2416C0B0E076
:100D4000F701EB0FF11DD080BF5F6150704071F46F
:100D5000AA2361F0E981FA81E080F1803496FA8378
:100D6000E983349762817381A150B0E0892F869521
:100D70008695835CF801E653FA4F80835527892FC7
:100D800099278370907024E0880F991F2A95E1F7C6
:100D90009A01F4E036952795FA95E1F7822B835C6A
:100DA000F801E553FA4F80834F705070440F551F80
:100DB000440F551F8D2D8295869586958370842BC3
:100DC000835CF801E453FA4F80838FE3D8228DE3EC
:100DD000D80EF801E353FA4FD0820C5F1F4F611514
:100DE000710509F074CF04C040E0B0E0DD24BECF4F
:100DF000C8010E94200522960FB6F894DEBF0FBEF0
:100E0000CDBFDF91CF911F910F91FF90EF90DF90B9
:100E1000089580910201882309F471C18091C00373
:100E20008823F1F0809102018823D1F08AE090E0DC
:100E30009F938F9383E795E09F938F9381E08F93A8
:100E40008F9386E58F930E9435061092C0032DB7CD
:100E50003EB7295F3F4F0FB6F8943EBF0FBE2DBF80
:100E60008091C2038823C1F1809102018823A1F1FE
:100E70000E94401384E190E09F938F938091C70379
:100E800024E1829FC0011124865E9C4F9F938F9323
:100E900081E090E09F938F9387EC93E09F938F93F3
:100EA00082E08F9381E08F9388E48F930E943506D0
:100EB0008091C7038F5F8093C7032DB73EB7255F2F
:100EC0003F4F0FB6F8943EBF0FBE2DBF843010F0D9
:100ED0001092C7031092C2038091C303882371F15B
:100EE00080910201882351F10E94401380E590E037
:100EF0009F938F938AE193E09F938F9321E030E05B
:100F00003F932F9389E193E09F938F933F932F9388
:100F100082E094E09F938F9383E08F9381E08F939F
:100F20008CE48F930E9435061092C3038DB79EB751
:100F30000F960FB6F8949EBF0FBE8DBF2091010192
:100F40002F3F59F180E190E09F938F93822F992753
:100F500034E0880F991F3A95E1F78A5F9E4F9F937F
:100F60008F9381E090E09F938F9381E091E09F9336
:100F70008F9382E08F9381E08F9381E48F930E941F
:100F800035068FEF809301012DB73EB7255F3F4FA8
:100F90000FB6F8943EBF0FBE2DBF80916206882326
:100FA000E9F0809102018823C9F081E090E09F93ED
:100FB0008F9382E696E09F938F9381E08F938F9338
:100FC00082E48F930E943506109262068DB79EB719
:100FD00007960FB6F8949EBF0FBE8DBF8091040197
:100FE00090910501892B41F08091600690916106F6
:100FF0000E949D0D882321F48091C403882341F130
:1010000080910201882321F182E490E09F938F93E5
:1010100088E895E09F938F9381E08F938F9384E48A
:101020008F930E94350680910401909105010E94E2
:10103000940D90936106809360061092C4032DB7BF
:101040003EB7295F3F4F0FB6F8943EBF0FBE2DBF8E
:101050008091C1038823E9F0809102018823C9F0BF
:101060008BE090E09F938F938DE795E09F938F9314
:1010700081E08F938F9387E48F930E9435061092BF
:10108000C1038DB79EB707960FB6F8949EBF0FBEEB
:101090008DBF8091C603882381F08091020188234F
:1010A00061F01F9281E08F9384E58F930E94350653
:1010B0001092C6030F900F900F908091C503882364
:1010C000F1F0809102018823D1F08EE190E09F93AE
:1010D0008F938FE696E09F938F9381E08F938F930A
:1010E00080E58F930E9435061092C5032DB73EB759
:1010F000295F3F4F0FB6F8943EBF0FBE2DBF089536
:101100000F931F93CF93DF93CDB7DEB722970FB620
:10111000F894DEBF0FBECDBF8091C803882309F4C9
:1011200062C10E944E058091DE04823609F0DDC066
:101130008091DF04813721F1823720F4803709F074
:10114000D4C01AC0833709F470C0843709F0CDC009
:10115000E091CA03F091CB0380819181A281B38198
:101160008093CD039093CE03A093CF03B093D0038D
:101170008FEF80930301B9C081E08093C503B5C0B0
:101180000091CA031091CB03F80180818F3F29F4AD
:1011900082E00E94153EF8018083E091CA03F0913D
:1011A000CB038081882311F481E004C080818630E4
:1011B00010F085E08083E091CA03F091CB03808139
:1011C0000E94E23BE091CA03F091CB0380818A83C5
:1011D000809102018823E1F389E4898387E590E027
:1011E0009F938F9385ED96E09F938F9321E030E05E
:1011F0003F932F93CE0101969F938F933F932F930D
:10120000CE0102969F938F9383E08F9381E08F931B
:1012100081E58F930E9435068DB79EB70F960FB666
:10122000F8949EBF0FBE8DBF60C0E091CA03F091DD
:10123000CB0380818823E9F180818630D0F58181DC
:101240008934B9F5A5EDB6E0329687E501900D92A7
:101250008150E1F7E091CA03F091CB0380810E94B5
:10126000CA3B6091000777278827992724EC39E04B
:1012700040E050E00E9460436093750370937603F2
:1012800080937703909378036091010777278827ED
:1012900099270E9460436093790370937A03809347
:1012A0007B0390937C030E94AE3B8A830E942F2590
:1012B00001C01A82809102018823E1F381E090E06D
:1012C0009F938F93CE0102969F938F9381E08F938C
:1012D0008F9383E58F930E943506EDB7FEB737965F
:1012E0000FB6F894FEBF0FBEEDBF8091DF048736C6
:1012F00009F45BC0883648F48236E9F0843609F494
:1013000058C0813609F067C009C08C36E1F18637D4
:1013100009F447C0883609F05EC020C0E091CA03D6
:10132000F091CB03808180930101803298F08FE1AE
:10133000809301010FC0ADE7B5E0E091CA03F091E1
:10134000CB038BE001900D928150E1F780918605EF
:10135000809362068FEF809303013DC08FEF8093EF
:101360000301E091CA03F091CB03808190910304C3
:10137000892B80930304882311F01092C70381E026
:101380008093C20328C08FEF80930301E091CA03CA
:10139000F091CB0380818093020481E08093C303AA
:1013A0001AC081E08093C00316C081E08093C1031E
:1013B00012C0E091CA03F091CB0380812AE0829FA2
:1013C000C00111249093050180930401892B19F029
:1013D00081E08093C4031092CB031092CA03109251
:1013E000CC031092C80322960FB6F894DEBF0FBE4E
:1013F000CDBFDF91CF911F910F910895982F8091CC
:101400006306813069F480910404E82FFF27E65ECB
:10141000FC4F90838F5F8093040421E030E005C08F
:10142000892F0E94A805282F3327C90108951F93EB
:10143000182F04C080E30E94FE0911501116D4F346
:101440001F9108951F93182F04C080E20E94FE0987
:1014500011501116D4F31F9108950F931F93CF933A
:10146000DF938C01EB0108C0F8010F5F1F4FE4917F
:101470008E2F0E94FE0921972097B1F7DF91CF911F
:101480001F910F9108950F931F93CF93DF938C01BA
:10149000EB0106C0F80181918F010E94FE0921979E
:1014A0002097C1F7DF91CF911F910F9108952F924F
:1014B0003F924F925F926F927F928F929F92AF92E4
:1014C000BF92CF92DF92EF92FF920F931F93CF9331
:1014D000DF93CDB7DEB7E3970FB6F894DEBF0FBE4C
:1014E000CDBF29968FAD299780936306CE01855B8A
:1014F0009F4F9D838C832B968EAD9FAD2B979FA77F
:101500008EA722243324210102C0130124010EA539
:101510001FA502C00F5F1F4FF801F490FF2019F0C4
:10152000F5E2FF16B9F7B8018EA59FA5681B790BE8
:1015300011F00E942D0AFF2009F442C20F5F1F4FD5
:101540001FA70EA71982AC81BD811BAA1AAA9FEF03
:1015500099ABEEA5FFA5CF0101969FA78EA7B490EA
:1015600095E7B91621F08B2D8062883789F4EBA9B5
:10157000E0FF07C02D903D904D905C90139714961E
:1015800007C08D919C9111971C01442455241296FB
:10159000F0E2BF1621F489818823D9F685C083E261
:1015A000B81609F483C09AE2B91621F0EDE2BE162E
:1015B00069F408C0FD011296E081EAABE7FFC9CFEC
:1015C000E195EAABFBA9F061FF7D72C08BE2B81632
:1015D00009F46AC09EE2B916B1F52EA53FA52F5FAA
:1015E0003F4FEEA5FFA584918A3221F0B82E20E06E
:1015F00030E01BC0FD0112964081518157FF02C0AF
:101600004FEF5FEF49AB3FA72EA7A3CFC90103E080
:10161000880F991F0A95E1F7220F331F280F391FF2
:101620002B0D311D20533040B49031968B2D8053BB
:101630008A3060F3FFA7EEA7A90137FF02C04FEF82
:101640005FEF49AB8DCFF0E3BF1631F48BA984FD7A
:1016500080CF80628BAB7DCF8B2D81538930E8F4B6
:1016600020E030E0C901F3E0880F991FFA95E1F717
:10167000220F331F280F391F2B0D311D20533040EF
:10168000EEA5FFA5CF0101969FA78EA7B4908B2D45
:1016900080538A3038F32AAB63CF98E6B91651F4F9
:1016A000EBA9E460EBAB55CFB98253CFFBA9F8604F
:1016B000FBAB4FCF8CE6B81621F49BA991609BAB96
:1016C00048CFBD83AC83E3E6BE1639F41296BD83E2
:1016D000AC8312978C918E8318C1F4E4BF1639F055
:1016E00084E6B81639F099E6B91659F503C0EBA9A6
:1016F000E160EBABFBA9F0FF08C01496BD83AC839F
:101700005E904E903E902E900AC01296BD83AC83A0
:101710009E918E911C01442437FC4094542C57FC1C
:1017200003C08AE088AB92C05094409430942094D7
:10173000211C311C411C511C8DE289839AE098AB1D
:1017400085C0EFE4BE1629F0FFE6BF1639F488E045
:1017500061C09BA991609BABE8E056C0F0E7BF1663
:1017600071F41296BD83AC839E918E911C0144242A
:1017700055248BA980648BAB78E7B72E5EC0E3E776
:10178000BE16D9F51296BD83AC83DE90CE90C114FF
:10179000D10489F488E28E838EE68F8385E788877B
:1017A0008CE689878A8789E28B871C8666E0C62E4D
:1017B000D12CCC0EDD1EF9A9F7FD13C04F2F5527F4
:1017C00047FD509560E070E0C6010E94EB41009734
:1017D00011F419A90DC08C1919A981174CF4182FEF
:1017E00007C0F60101900020E9F731971E2F1C1960
:1017F00019824201310140E094C085E5B81631F00C
:1018000095E7B91649F4EAE0E8AB1FC0FBA9F1601F
:10181000FBAB8AE088AB19C098E5B91621F0E8E780
:10182000BE1609F06EC0FBA9F3FD02C080E1F2CF45
:10183000211431044104510419F490E198AB05C01E
:10184000EBA9E064EBABF0E1F8AB198289A987FD65
:1018500003C09BA99F7D9BAB21143104410451041B
:1018600061F4E9A9EE2349F46624772443015EE29A
:10187000C52ED12CCC0EDD1E3EC04EE2C42ED12C86
:10188000CC0EDD1EF8A9EF2EFF2400271127C20180
:10189000B101A80197010E94B2436A3020F430E3FD
:1018A000A32EA60E08C027E5A22EA60E88E5B81620
:1018B00011F49FEDA922F601A2926F01C201B101BC
:1018C000A80197010E94B24339014A012E143F0436
:1018D0004006510618F019012A01D9CFF8A9F830AD
:1018E00051F48BA983FF07C090E3A91621F080E390
:1018F000F60182936F01CE018C19182F125D49A950
:1019000010C0BB2009F45CC0BE82198242013101C3
:1019100000E096E0C92ED12CCC0EDD1E11E021E0B6
:1019200005C0212F042F011B07FD00E089818823BA
:1019300019F0812F8F5F07C09BA996FD02C0812FF0
:1019400002C0822F8E5FA82EA00EEBA9EE2EFF24E0
:1019500080E3482E512C4E205F204114510421F485
:101960008AA98A190E94220A8981882329F061E0C4
:1019700070E0CE01019609C0E6FE09C080E38A83CB
:10198000BB8262E070E0CE0102960E94430AF0E260
:101990004F16510421F48AA98A190E94170A802F30
:1019A0000E94170A612F772767FD7095C6010E9474
:1019B000430AE4FEAACD8AA98A190E94220AA5CD6B
:1019C000E3960FB6F894DEBF0FBECDBFDF91CF9187
:1019D0001F910F91FF90EF90DF90CF90BF90AF904D
:1019E0009F908F907F906F905F904F903F902F903F
:1019F00008959FB7F894809100018A3019F4529AA3
:101A00005A9802C03F9A479884B1886184B985B1D9
:101A1000877E85B984B58F7A84BD84B5836A84BD99
:101A200085B5877385BD85B5887F826085BD17BC08
:101A300088E788BD16BC80916E00897F80936E0018
:101A400080916E00816080936E009FBF08951F9209
:101A50000F920FB60F9211242F933F938F939F9362
:101A60008091DD03882329F08091DD0381508093EC
:101A7000DD038091DE0381508093DE038F3FB9F454
:101A800089E08093DE03809108038F5F81708093EB
:101A90000803882319F481E08093D8038091D6034A
:101AA0009091D70301969093D7038093D6038091AA
:101AB000DB039091DC03892BB1F08091DB039091E3
:101AC000DC0301979093DC038093DB038091DB03BD
:101AD0009091DC0320910603309107038223932326
:101AE000892BA1F406C08FEF9FEF9093070380939B
:101AF0000603809100018A3039F404C05A9A0BC061
:101B0000479A09C05A9807C0479805C080910001BC
:101B10008A30B1F7F3CF9F918F913F912F910F9022
:101B20000FBE0F901F9018952091D6033091D703C8
:101B3000280F391FC901019708952091D6033091CC
:101B4000D703821B930B892F990F990B80780895E7
:101B50002091D6033091D703280F391F21503040F0
:101B600005C080917A00886C80937A008091D603BA
:101B70009091D703A901481B590BCA01892F990FCE
:101B8000990B87FFEECF08952091D6033091D703AC
:101B9000280F391F215030408091D6039091D703F0
:101BA000A901481B590BCA01892F990F990B87FF6F
:101BB000F3CF08959FB7F894579A5F983E9A469846
:101BC000E0EBF0E080818F70808380818360808390
:101BD000E1EBF0E080818473808380818460808386
:101BE0001092B2008AE08093B300E0E7F0E08081D9
:101BF0008A7F80838081826080839FBF08951F9247
:101C00000F920FB60F9211240F931F932F933F93B0
:101C10004F935F936F937F938F939F93AF93BF93F4
:101C2000EF93FF9380910001833608F0F4C0809118
:101C3000090390910A038430910520F4019708F07C
:101C4000ADC0D1C0049709F0DDC080E390E090936F
:101C5000E0038093DF0380910B0390910C039C01C0
:101C6000220F331F280F391F809194039927880F63
:101C7000991F280F391F369527953695279530934C
:101C80000C0320930B038091DF039091E003820FFC
:101C9000931F9093E0038093DF0380911B07609173
:101CA000F706209125043091260440912704509195
:101CB000280480FF12C00091DF031091E003772712
:101CC000882799270E94604320E030E440E050E0FC
:101CD0000E94D443020F131F11C00091DF03109123
:101CE000E0037727882799270E94604320E030E4AB
:101CF00040E050E00E94D443021B130B1093E0031A
:101D00000093DF038091DF039091E0032091F806B8
:101D100043E0249F900111248217930728F4309305
:101D2000E0032093DF0310C02091DF033091E00334
:101D30008091F906849FC00111248217930720F433
:101D40009093E0038093DF038091DF039091E003A1
:101D50009093B3058093B2058091DF039091E003E7
:101D60006FEF70E00E948B438D9760F48091DF03EA
:101D70009091E003835B9F4F9093E0038093DF0398
:101D800083E101C080E680930D038091DF03909191
:101D9000E00380958093B30083EC32C08091DF0331
:101DA0009091E0038F3F910581F078F05F9A83E096
:101DB0008093B0008091DF039091E0038F5F9040AB
:101DC0009093E0038093DF031DC083E88093B0000D
:101DD00080910D038093B30081E090E090930A031B
:101DE000809309030FC08091FA069927880F991FE5
:101DF000880F991F90930A03809309035F9883E0EB
:101E00008093B0008091090390910A030197909309
:101E10000A0380930903FF91EF91BF91AF919F91C6
:101E20008F917F916F915F914F913F912F911F9172
:101E30000F910F900FBE0F901F9018959FB7F894B9
:101E400011B812B88FEF80937E00ECE7F0E080814C
:101E50008F7180838081807E8083AAE7B0E087E2F3
:101E60008C93EBE7F0E08081887F80838C91886C95
:101E70008C939FBF08951F920F920FB60F9211245B
:101E8000CF92DF92EF92FF920F931F932F933F9386
:101E90004F935F936F937F938F939F93AF93BF9372
:101EA000CF93DF93EF93FF9380917A0087738093B2
:101EB0007A0080910004C82EC394C092000485303B
:101EC00009F47CC0863090F4823009F440C083303D
:101ED00030F48823F1F0813009F0B8C22FC083308C
:101EE00009F43FC0843009F0B1C258C0883009F409
:101EF000C1C0893038F4863009F471C0873009F0E8
:101F0000A5C29BC0893009F4D2C08A3009F09EC2B4
:101F1000ECC180917800909179009093FF038093B9
:101F2000FE0381E0809301048091F6039091F70312
:101F300001969093F7038093F60378C2809178001E
:101F4000909179009093FD038093FC0391C0809160
:101F50007800909179009093FB038093FA0384E0DA
:101F6000C1C140910E0350910F0380917800909170
:101F700079009A01220F331F240F351F63E070E0B0
:101F80000E948B43260F371F369527953695279548
:101F900030930F0320930E0386E0A4C180911F04A9
:101FA000909120042091780030917900821B930B4E
:101FB0009093ED038093EC0387E094C180917800C7
:101FC0009091790020911D0430911E04821B930B87
:101FD0009093EF038093EE031092010427C2809147
:101FE00000018A3069F48091780090917900209105
:101FF000FE033091FF03820F931F9695879517C0BC
:102000004091FE035091FF03843159F420917800F0
:1020100030917900240F351F8FEF93E0821B930BD3
:1020200006C08091780090917900840F951F90935D
:10203000E8038093E70381E055C18091000120917E
:10204000FC033091FD038A3049F48091780090912F
:102050007900820F931F9695879506C0809178002E
:1020600090917900820F931F9093E6038093E5038C
:1020700082E038C1809100012091FA033091FB0386
:102080008A3049F48091780090917900820F931FF3
:102090009695879506C08091780090917900820F7F
:1020A000931F9093E4038093E30385E01BC1609149
:1020B000780070917900E0902104F0902204009162
:1020C000230410912404882777FD8095982F0E947F
:1020D0009E42A80197010E94F8410E94814270939C
:1020E000F1036093F0032091F0033091F103E0914C
:1020F000EE03F091EF038091EC039091ED0397FFD5
:1021000003C0909581959F4F64E070E00E949F43CB
:10211000EB01CF01F7FF03C0909581959F4F64E0DD
:1021200070E00E949F43260F371F2C0F3D1F3093F6
:10213000F1032093F0038091F0039091F103029753
:102140000CF43EC06091210470912204809123041C
:102150009091240420E030E84BE354E40E94A8422C
:1021600088230CF078C06091210470912204809142
:102170002304909124042AE037ED43EA5CE30E94B3
:10218000F941609321047093220480932304909377
:1021900024048091630490916404845F914008F06A
:1021A0005AC060912104709122048091230490917F
:1021B00024042DEC3CEC4CEC5DE30E94F94143C05F
:1021C0008091F0039091F1038F5F9F4F0CF043C01B
:1021D0006091210470912204809123049091240441
:1021E00020E030E849E054E40E94AB4218169CF528
:1021F0006091210470912204809123049091240421
:102200002AE037ED43EA5CE30E94F8416093210441
:102210007093220480932304909324048091630498
:1022200090916404845F9140B0F4609121047091B6
:10223000220480912304909124042DEC3CEC4CEC7E
:102240005DE30E94F841609321047093220480931F
:1022500023049093240480917800909179009093C6
:10226000E2038093E103209155043091560440919C
:102270005704509158048091F0039091F103AA27DC
:1022800097FDA095BA2F280F391F4A1F5B1F209377
:102290005504309356044093570450935804E090EB
:1022A0005504F09056040091570410915804609121
:1022B000550470915604809157049091580420E081
:1022C00034E040E050E00E94D443E21AF30A040BE9
:1022D000150BE0925504F0925604009357041093A6
:1022E000580483E080930104A1C0E0917800F0914C
:1022F00079008091F8039091F903E80FF91FF093AA
:10230000F903E093F8038091F2038F5F8093F20367
:102310008091F203853008F499C080917800909103
:10232000790090931803809317034091F403509120
:10233000F5038091F303992787FD90952FEF30E007
:10234000829F6001839FD00C929FD00C112420911A
:10235000640630916506CA01A3E0880F991FAA950B
:10236000E1F7841B950B6091830377272C0D3D1DAE
:102370002E1B3F0B40918C0450918D04241B350B78
:10238000A901649F9001659F300D749F300D112449
:10239000820F931F68E070E00E949F437093F503E3
:1023A0006093F403E0901303F0901403009115037D
:1023B00010911603BF01882777FD8095982FA801FB
:1023C0009701220F331F441F551F2E0D3F1D401F25
:1023D000511F620F731F841F951F24E030E040E0FF
:1023E00050E00E94D443209313033093140340938E
:1023F0001503509316032091640630916506809171
:10240000130390911403A0911503B0911603C20E0B
:10241000D31EC81AD90AD0928D04C0928C0410928F
:10242000F2031092F9031092F80310C080917C001F
:10243000807E90910104892B80937C00CC2079F0E0
:1024400080917A00886C80937A0009C01092010410
:102450001092000480917C00807E80937C00FF912C
:10246000EF91DF91CF91BF91AF919F918F917F912C
:102470006F915F914F913F912F911F910F91FF901D
:10248000EF90DF90CF900F900FBE0F901F90189598
:102490000F931F931092E9031092EA031092EB033B
:1024A0000CE810E0133019F40B3008F009E08091CB
:1024B000E3039091E4038C5F934024F48091100334
:1024C00081500CC08091E3039091E40387509440C5
:1024D00014F411E006C0809110038F5F8093100305
:1024E00010E08091E5039091E6038C5F934024F423
:1024F0008091110381500AC08091E5039091E60319
:102500008750944034F0809111038F5F80931103C2
:1025100001C01F5F8091E7039091E8038C5F9340B7
:1025200024F48091120381500AC08091E7039091B6
:10253000E8038750944034F0809112038F5F8093BA
:10254000120301C01F5F87E0809308040E94FC18FB
:10255000809110038A3028F481E08093E9038AE0B7
:1025600006C0863F30F081E08093E90385EF8093D9
:102570001003809111038A3028F481E08093EA03EC
:102580008AE006C0863F30F081E08093EA0385EF61
:1025900080931103809112038A3028F481E08093A4
:1025A000EB038AE006C0863F30F081E08093EB03C6
:1025B00085EF80931203809108048823E1F710923D
:1025C000F20380917A00886C80937A008091F20304
:1025D0008823E1F30A3020F48AE090E00E94A80DFD
:1025E000015009F05FCF86E490E00E94A80D1F9192
:1025F0000F9108951F9383E00E94153E182F853197
:1026000008F01A5017BD1092F30384E690E00E9480
:10261000A80D809117039091180382559340C8F438
:1026200010E017C017BD82E390E00E94A80D8FE371
:1026300091E09F938F931F920E94570A80911703F6
:10264000909118030F900F900F908255934018F0BF
:102650001F5F1A3F38F3612F83E00E94963B10936F
:1026600066068CE291E00E94A80D1F910895EAE1B0
:10267000F3E080E2819393E0EA36F907D9F7089511
:102680001F9380910304282F3327C9018170907014
:10269000682F882351F080910204882311F0815023
:1026A00002C08091190380930204A9014270507006
:1026B00021FF0CC09091020480911903981719F41E
:1026C0001092020403C09F5F90930204662321F0DE
:1026D000452B11F010920204EAE1F3E080E28193CD
:1026E00093E0EA36F907D9F7909119038091020433
:1026F000981710F49093020480910204282F332736
:102700008A3040F481E1809304043F932F9383E85F
:1027100094E007C080E1809304043F932F938EE7F9
:1027200094E09F938F9381E08F930E94570A0F90BC
:102730000F900F900F900F9010910204153009F434
:10274000FBC1163090F4123009F4D0C0133030F4CD
:10275000112309F1113009F0AFC465C0133009F439
:102760001BC1143009F0A8C46BC1183009F47AC336
:10277000193038F4163009F402C3173009F09CC43C
:102780004CC31A3009F408C41A3008F4A9C31B302A
:1027900009F092C43FC4109204048EE694E09F9323
:1027A0008F9311E01F930E94570A84E180930404E1
:1027B0002091000188E690E09F938F9387E490E05A
:1027C0009F938F931F921F92822F6AE00E947F43F4
:1027D000892F99279F938F93822F0E947F43992758
:1027E0009F938F9389E594E09F938F931F930E940B
:1027F000570A88E2809304040E94AE3B99279F9376
:102800008F938CE494E09F938F931F930E94570AB9
:102810008CE3809304048CE394E09F938F931F9345
:102820000E94570A45C48091DD0680FF47C0109280
:10283000040480918C0490918D049F938F938DE27A
:1028400094E09F938F931F930E94570A84E1809393
:10285000040480918E0490918F049F938F938EE156
:1028600094E09F938F931F930E94570A88E280936E
:10287000040480911703909118039F938F938FE026
:1028800094E09F938F931F930E94570A8CE3809349
:1028900004048091660699279F938F9380E094E0CB
:1028A0009F938F931F930E94570A8DB79EB74496AC
:1028B0000FB6F8949EBF0FBE8DBF03C484E1809312
:1028C00004048CEF93E09F938F931F930E94570A09
:1028D00088E2809304048DEE93E09F938F931F937F
:1028E0000E94570A8DB79EB70696E2CF1092040455
:1028F00084EE93E09F938F9311E01F930E94570AF9
:1029000084E18093040460912504709126048091F1
:1029100027049091280420E034E040E050E00E9439
:10292000D4435F934F933F932F9385ED93E09F9311
:102930008F931F930E94570A88E28093040460914A
:102940002D0470912E0480912F049091300420E08A
:1029500034E040E050E00E94D4435F934F933F93B4
:102960002F9386EC93E09F938F931F930E94570AB7
:102970008CE38093040480916F03909170039F9384
:102980008F9387EB93E09F938F931F930E94570A37
:102990008DB79EB746968CCF109204048091730633
:1029A0009091740620917106309172069F938F93D7
:1029B0003F932F9387EA93E09F938F9311E01F93A8
:1029C0000E94570A84E180930404809177069091D5
:1029D000780620917506309176069F938F933F93EA
:1029E0002F9387E993E09F938F931F930E94570A39
:1029F00088E28093040480917B0690917C0620916C
:102A0000790630917A069F938F933F932F9387E8AF
:102A100093E09F938F931F930E94570A8CE38093B8
:102A2000040480917F069091800620917D0630916C
:102A30007E069F938F933F932F9387E793E0A3C2E4
:102A400010920404E091D606FF27EE0FFF1FE15914
:102A5000F94F20813181E091D506FF27EE0FFF1F4E
:102A6000E159F94F808191813F932F939F938F93E9
:102A700087E693E09F938F9311E01F930E94570A7C
:102A800084E180930404E091D806FF27EE0FFF1F36
:102A9000E159F94F20813181E091D706FF27EE0FF0
:102AA000FF1FE159F94F808191813F932F939F93AD
:102AB0008F9387E593E09F938F931F930E94570A0C
:102AC00088E280930404E091DA06FF27EE0FFF1FEF
:102AD000E159F94F20813181E091D906FF27EE0FAE
:102AE000FF1FE159F94F808191813F932F939F936D
:102AF0008F9387E493E09F938F931F930E94570ACD
:102B00008CE380930404E091DC06FF27EE0FFF1FA7
:102B1000E159F94F20813181E091DB06FF27EE0F6B
:102B2000FF1FE159F94F808191813F932F939F932C
:102B30008F9387E393E027C21092040489E293E025
:102B40009F938F9311E01F930E94570A0F900F904D
:102B50000F9080910001E0911304F09114048D30E6
:102B600038F48B3008F04CC08A3009F0A1C004C0A2
:102B7000843109F09DC044C084E180930404209115
:102B80001304309114048091E3039091E4033F9384
:102B90002F93821B930B9F938F938AE193E09F93D4
:102BA0008F931F930E94570A88E280930404209118
:102BB0001504309116048091E5039091E6033F934C
:102BC0002F93821B930B9F938F938BE093E09F93A4
:102BD0008F931F930E94570A8CE380930404809183
:102BE0001704909118042091E7033091E8039F9314
:102BF0008F93821B930B9F938F938CEF92E04FC028
:102C000084E1809304042091E3033091E403CF0135
:102C100062E070E00E949F437F936F932E1B3F0BF7
:102C20003F932F938DEE92E09F938F9311E01F932C
:102C30000E94570A88E280930404E0911504F09101
:102C400016042091E5033091E603CF0162E070E0C5
:102C50000E949F437F936F932E1B3F0B3F932F93B5
:102C60008EED92E09F938F931F930E94570A8CE3FF
:102C7000809304042091170430911804E091E70335
:102C8000F091E803C90162E070E00E949F437F93E6
:102C90006F932E1B3F0B3F932F938FEC92E09F93EC
:102CA0008F931F930E94570A8DB79EB7459600CE0B
:102CB00084E1809304042091E3033091E403809144
:102CC000100399279F938F93CF0162E070E00E94D9
:102CD0009F437F936F932E1B3F0B3F932F938BEB61
:102CE00092E09F938F9311E01F930E94570A88E20E
:102CF00080930404E0911504F09116042091E503FB
:102D00003091E6038091110399279F938F93CF0110
:102D100062E070E00E949F437F936F932E1B3F0BF6
:102D20003F932F9387EA92E09F938F931F930E9484
:102D3000570A8CE3809304042091170430911804FF
:102D4000E091E703F091E8038091120399279F93A4
:102D50008F93C90162E070E00E949F437F936F935D
:102D60002E1B3F0B3F932F9383E992E09F938F930A
:102D70001F930E94570A8DB79EB74B9699CD10921C
:102D8000040486E892E09F938F9311E01F930E94C2
:102D9000570A84E18093040480911D0490911E04DD
:102DA0002091EE033091EF039F938F933F932F93E6
:102DB00085E792E09F938F931F930E94570A88E2C2
:102DC0008093040480911F04909120042091EC03CF
:102DD0003091ED039F938F933F932F9384E692E07E
:102DE0009F938F931F930E94570A8CE38093040450
:102DF0006091210470912204809123049091240415
:102E00000E9481427F936F938091BA069091BB0696
:102E10009F938F9383E592E046C184E180930404FD
:102E200080910E0390910F039F938F9385E492E01E
:102E30009F938F9311E01F930E94570A88E280931B
:102E4000040480910C0490910D049F938F9387E369
:102E500092E09F938F931F930E94570A8DB79EB75E
:102E60000A9626CD1092040488E292E09F938F93F5
:102E700011E01F930E94570A84E18093040480911B
:102E80007103909172039F938F9389E192E09F93D6
:102E90008F931F930E94570A88E2809304048091C5
:102EA0006F03909170039F938F938AE092E09F93BA
:102EB0008F931F930E94570A8CE3809304048091A0
:102EC000590490915A049F938F938BEF91E09F93B5
:102ED0008F931F930E94570A8DB79EB74296E8CCF6
:102EE0001092040480916E0490916F049F938F93CD
:102EF00080916604909167049F938F9389EE91E08F
:102F00009F938F9311E01F930E94570A84E180934F
:102F1000040480917004909171049F938F93809129
:102F20006804909169049F938F9387ED91E09F933C
:102F30008F931F930E94570A88E280930404809124
:102F40007204909173049F938F9380916A0490917F
:102F50006B049F938F9385EC91E09F938F931F93C6
:102F60000E94570A8CE3809304048091740490912A
:102F700075049F938F9380916C0490916D049F933F
:102F80008F9383EB91E09F938F931F930E94570A37
:102F90008DB79EB74C968CCC109204048BEA91E0CE
:102FA0009F938F9311E01F930E94570A84E18093AF
:102FB00004048091940399279F938F938DE991E066
:102FC0009F938F931F930E94570A88E28093040473
:102FD0008091DF039091E0039F938F938FE891E0BE
:102FE0009F938F931F930E94570A8CE3809304044E
:102FF0008091F90699279F938F938091F8069927DE
:103000009F938F9381E891E09F938F931F930E94EA
:10301000570A4BCC1092040481E791E09F938F9361
:1030200011E01F930E94570A84E180930404809169
:103030008105992787FD90959F938F9380918005B7
:10304000992787FD90959F938F9381E691E09F93B9
:103050008F931F930E94570A88E280930404809103
:103060008205992787FD90959F938F938091830583
:1030700099279F938F9381E591E09F938F931F935F
:103080000E94570A8CE38093040480918705992756
:103090009F938F9380918405992787FD90959F93A7
:1030A0008F9381E491E09F938F931F930E94570A1F
:1030B0008DB79EB74896FCCB115010931903109210
:1030C0000204109203041F91089587B18C6087B9A0
:1030D000429843981092050480E880936A03109206
:1030E000060480936B0308958091070481508093B8
:1030F00007048F3F09F068C084E080930704809143
:103100000A078B3F80F080919A03873E28F08091D8
:10311000090788231CF124C08A3028F4809109070C
:103120008823F4F01BC0809105048150809305042E
:103130008F3FB9F480919A03815080930504809168
:103140006A03813011F480E801C0869580936A0398
:1031500080916A0390910907892311F0429A01C076
:10316000429880910C078B3F88F080919B03873EAB
:1031700028F080910B07882324F106C08A3030F4B0
:1031800080910B0787FF1DC0439808958091060426
:103190008150809306048F3FB9F480919B03815046
:1031A0008093060480916B03813011F480E801C0A4
:1031B000869580936B0380916B0390910B07892315
:1031C00011F0439A0895439808959FB7F894399859
:1031D000389A88B1836088B9E9EBF0E080818C7F10
:1031E00080838AE28093B800109208041092090448
:1031F00010920A049FBF089585EA8093BC00089549
:1032000084E98093BC0008958093BB0085E8809397
:10321000BC00089585EC8093BC00089585E88093F8
:10322000BC000895EF92FF920F931F938CEBE82E52
:10323000F12C84E9F7018083109208040BEB10E075
:10324000F8018081809309041092090410920A0405
:1032500080E8F70180831092BD001092BA00F80157
:1032600010821092B9001092B8000E94E51885EA09
:10327000F7018083F801108285E8F70180831F91B0
:103280000F91FF90EF9008951F920F920FB60F923B
:1032900011248F939F93EF93FF93809108048F5F86
:1032A000809308048150853009F465C0863090F41D
:1032B000823009F447C0833030F4882309F181302B
:1032C00009F0B8C022C0833009F44EC0843009F040
:1032D000B1C04FC0883009F478C0893038F48630E6
:1032E00009F452C0873009F0A5C06DC08A3009F4D6
:1032F00083C08A3008F46EC08B3009F09BC07EC05A
:1033000080910904880F8E5A0EC080910904813083
:1033100081F0813030F0823079F0833009F099C04B
:103320000EC08091B3068093BB0085E88093BC00FB
:1033300090C08091C506F7CF8091BC06F4CF8091F4
:10334000D406F1CF84E98093BC00809109048330D6
:1033500040F4809109048F5F80930904109208045F
:1033600062C0109209045FC080910A04880F8D5AD0
:10337000DACF85ECDBCFE0910A04FF278091BB0018
:10338000E959F94F8083D1CFE0910A04FF2780915A
:10339000BB00E559F94F808380910A048F5F8093C9
:1033A0000A0480910A04843010F010920A0484E91F
:1033B0008093BC00109208048AE090E090936D0323
:1033C00080936C0346C088E9AECF80910B04880FD0
:1033D000805FA9CF80910B04813041F0813018F0DB
:1033E0008230B9F506C0809110039DCF8091110302
:1033F0009ACF8091120397CF80E895CF84E980938C
:10340000BC008AE090E090936D0380936C03809100
:103410000B04823050F480910B048F5F80930B0477
:1034200087E08093080485EA81CF10920B04109204
:1034300008040FC084E98093BC00109208048AE05D
:1034400090E090936D0380936C03109209041092A6
:103450000A04FF91EF919F918F910F900FBE0F90F3
:103460001F9018959FB7F89456985E9A8AB180631A
:103470008AB98BB18F7C8BB9809100018A3011F4AD
:10348000539A5B98809180008C708093800080912B
:103490008100837E8093810080918100836C809382
:1034A0008100809182008F738093820080916F00F1
:1034B000897F80936F0080916F00816280936F009D
:1034C00010920D0410920C049FBF08951F920F924A
:1034D0000FB60F9211242F933F935F936F937F93B7
:1034E0008F939F93AF93BF9380910E04882391F4A1
:1034F00020910C0430910D0480910C0490910D04E6
:1035000068E070E00E949F43261B370B30930D0448
:1035100020930C0410920E04BF91AF919F918F9154
:103520007F916F915F913F912F910F900FBE0F9000
:103530001F9018951F920F920FB60F9211240F93A0
:103540001F932F933F934F935F936F937F938F932B
:103550009F93AF93BF93CF93DF93EF93FF9320910C
:1035600086003091870080910F0490911004281BF1
:10357000390B80918600909187009093100480937E
:103580000F04C9018D54944000911104109112044C
:10359000835F9A4188F4043011053CF010926E0369
:1035A00080910E048F5F80930E0481E090E09093F1
:1035B00012048093110498C00E3011050CF094C0D1
:1035C000C9018B5F9040845B914008F072C0E901B3
:1035D000C25DD140F801EE0FFF1FE159F94F808124
:1035E00091819E01281B390BC90137FF03C09095BB
:1035F00081959F4F069784F480910C0490910D045F
:10360000883C91054CF480910C0490910D040A962D
:1036100090930D0480930C04F801EE0FFF1FE15905
:10362000F94F20813181C901880F991F820F931FA3
:103630008C0F9D1F64E070E00E949F439B01CE01B0
:103640000196861797071CF42150304006C0219739
:103650006C177D0714F42F5F3F4F80910C049091FD
:103660000D04E801CC0FDD1F833C9105BCF0FE0189
:10367000E159F94F80819181A901481B590BCA0179
:1036800063E070E00E949F43CB01880F991F860F73
:10369000971FC357D94F9983888304C0C357D94F05
:1036A00019821882F801EE0FFF1FE159F94F31839B
:1036B0002083F8013196F0931204E0931104E53071
:1036C000F10511F45D9A06C05D98E630F10511F43C
:1036D0005C9A01C05C98809100018A3029F4379788
:1036E00011F45B9A01C05B9880910C0490910D04D9
:1036F000892B49F080910C0490910D0401979093CF
:103700000D0480930C04FF91EF91DF91CF91BF9155
:10371000AF919F918F917F916F915F914F913F9169
:103720002F911F910F910F900FBE0F901F90189522
:103730002F923F924F925F926F927F928F929F92C1
:10374000AF92BF92CF92DF92EF92FF920F931F93AF
:10375000CF93DF93CDB7DEB762970FB6F894DEBF95
:103760000FBECDBF8091E7039091E803C09017048E
:10377000D0901804C81AD90AD092C406C092C306C1
:103780008091E5039091E603988B8F87A0911504B3
:10379000B0911604BA8BA98BE091E303F091E40396
:1037A000FE87ED8780911304909114049C878B878A
:1037B0006091EE037091EF03E090AB06F090AC06E1
:1037C0000027F7FC0095102F882777FD8095982F0C
:1037D0002CE030E040E050E00E946043E60EF71E2F
:1037E000081F191FC801B70122E030E040E050E097
:1037F0000E94D4433093AC062093AB066091EC0357
:103800007091ED03E090CE06F090CF060027F7FC14
:103810000095102F882777FD8095982F2CE030E0B9
:1038200040E050E00E946043E60EF71E081F191F9B
:10383000C801B70122E030E040E050E00E94D443EC
:103840003093CF062093CE062091F0033091F10300
:103850006091BA067091BB06882777FD8095982FF6
:10386000442737FD4095542F620F731F841F951F07
:1038700022E030E040E050E00E94D4433093BB06A9
:103880002093BA062091EE033091EF03C901880F0F
:10389000991F820F931F880F991F880F991FAA27BE
:1038A00097FDA095BA2F20914D0430914E04409180
:1038B0004F0450915004280F391F4A1F5B1F20935B
:1038C0004D0430934E0440934F0450935004209184
:1038D000EC033091ED03C901880F991F820F931FEC
:1038E000880F991F880F991FAA2797FDA095BA2FB7
:1038F000209151043091520440915304509154044A
:10390000280F391F4A1F5B1F209351043093520424
:1039100040935304509354042091EE033091EF03ED
:1039200080915D0490915E04820F931F90935E04DA
:1039300080935D042091EC033091ED0380915F044E
:1039400090916004820F931F9093600480935F04B2
:103950008091610490916204019690936204809337
:1039600061043601882477FC8094982C20904904C7
:1039700030904A0440904B0450904C04260C371C65
:10398000481C591C2092490430924A0440924B042E
:1039900050924C048091C6069091C706A091C8062B
:1039A000B091C906860D971DA81DB91D8093C60646
:1039B0009093C706A093C806B093C9068837E7E17D
:1039C0009E07E7E0AE07E0E0BE0764F08857974146
:1039D000A740B0408093C6069093C706A093C80640
:1039E000B093C9068091C6069091C706A091C806FB
:1039F000B091C906B7FF0CC08858984EA84FBF4F6A
:103A00008093C6069093C706A093C806B093C906D4
:103A1000F0919404FA87FF2309F07EC08091950409
:103A2000882309F079C08091DD0686FF75C0E0909B
:103A30009603FF24002711272091390430913A047E
:103A400040913B0450913C04C401B3010E94604387
:103A500020E038E040E050E00E94D443CA01B901C0
:103A6000A80197010E94604320E030E140E050E06F
:103A70000E94D44359016A012093D3043093D404A3
:103A80004093D5045093D6042091410430914204D0
:103A90004091430450914404C401B3010E94604327
:103AA00020E038E040E050E00E94D443CA01B90170
:103AB000A80197010E94604320E030E140E050E01F
:103AC0000E94D4432093CF043093D0044093D10478
:103AD0005093D204D601C501D7FE07C0B095A0957A
:103AE000909581959F4FAF4FBF4F81389105A105AC
:103AF000B10574F457FF07C0509540953095219556
:103B00003F4F4F4F5F4F2138310541055105A4F01C
:103B100081E080935C0410C01092CF041092D00416
:103B20001092D1041092D2041092D3041092D404B3
:103B30001092D5041092D6048091D3049091D404AD
:103B4000A091D504B091D6048E839F83A887B987AE
:103B50008091CF049091D004A091D104B091D2046F
:103B60008A839B83AC83BD8380919703682E7724DF
:103B700088249924EF84F888A989BA89EA1AFB0A6B
:103B8000EE81FF81EE0EFF1E6A817B818C819D811B
:103B9000A40193010E94604320E032E040E050E045
:103BA0000E94D443E20EF31EF092C206E092C106D8
:103BB0009701442737FD4095542F809145049091FB
:103BC0004604A0914704B0914804820F931FA41F9C
:103BD000B51F8093450490934604A0934704B09387
:103BE00048048091900490919104E81AF90A002702
:103BF000F7FC0095102F8091410490914204A09110
:103C00004304B0914404E80EF91E0A1F1B1FE09202
:103C10004104F09242040093430410934404A090A2
:103C20007903B0907A03C0907B03D0907C03AE14EC
:103C3000BF04C006D106C4F480E197E2A0E0B0E082
:103C40008A199B09AC09BD098093410490934204F1
:103C5000A0934304B0934404809345049093460496
:103C6000A0934704B093480422273327A9012A19B7
:103C70003B094C095D098091410490914204A09157
:103C80004304B091440482179307A407B507B4F422
:103C9000D601C50180519742A040B04080934104B5
:103CA00090934204A0934304B0934404809345044A
:103CB00090934604A0934704B09348048091E50391
:103CC0009091E6030F9734F488E19CEF9093C2063D
:103CD0008093C1068091E5039091E603079734F441
:103CE00080E398EF9093C2068093C106F0910001A3
:103CF000F983FA30A9F48091E5039091E603835F9C
:103D0000934034F088EE93E09093C2068093C1060E
:103D10008091E5039091E6038A5F9340DCF014C044
:103D20008091E5039091E603855E974034F088EE3C
:103D300093E09093C2068093C1068091E503909131
:103D4000E603835F974034F080ED97E09093C206DE
:103D50008093C106ED84FE848B859C85E81AF90A60
:103D6000AA81BB81EA1AFB0A6E817F8188859985C9
:103D7000A40193010E94604320E032E040E050E063
:103D80000E94D443E21AF30AF092CD06E092CC06E8
:103D90009701442737FD4095542F80913D04909121
:103DA0003E04A0913F04B0914004820F931FA41FD2
:103DB000B51F80933D0490933E04A0933F04B093BD
:103DC00040048091920490919304E81AF90A002724
:103DD000F7FC0095102F8091390490913A04A0913E
:103DE0003B04B0913C04E80EF91E0A1F1B1FE09231
:103DF0003904F0923A0400933B0410933C04A090E1
:103E00007503B0907603C0907703D0907803AE141A
:103E1000BF04C006D106C4F488EA91E6A0E0B0E091
:103E20008A199B09AC09BD098093390490933A041F
:103E3000A0933B04B0933C0480933D0490933E04D4
:103E4000A0933F04B093400422273327A9012A19E5
:103E50003B094C095D098091390490913A04A09185
:103E60003B04B0913C0482179307A407B507B4F450
:103E7000D601C501885A9146A040B04080933904CC
:103E800090933A04A0933B04B0933C0480933D0488
:103E900090933E04A0933F04B09340048091E303C9
:103EA0009091E4030F9734F488E19CEF9093CD0652
:103EB0008093CC068091E3039091E403079734F458
:103EC00080E398EF9093CD068093CC06B981BA3009
:103ED000A9F48091E3039091E403835F934034F06D
:103EE00088EE93E09093CD068093CC068091E30317
:103EF0009091E4038A5F9340DCF014C08091E30367
:103F00009091E403855E974034F088EE93E09093BF
:103F1000CD068093CC068091E3039091E403835F08
:103F2000974034F080ED97E09093CD068093CC06D7
:103F300080917A00886C80937A00209235043092C8
:103F4000360440923704509238048091390490919D
:103F50003A04A0913B04B0913C04809325049093D3
:103F60002604A0932704B0932804809141049091E3
:103F70004204A0914304B091440480932D04909393
:103F80002E04A0932F04B093300480913D049091AF
:103F90003E04A0913F04B091400480932904909383
:103FA0002A04A0932B04B0932C0480914504909193
:103FB0004604A0914704B091480480933104909343
:103FC0003204A0933304B09334048091DD0687FF5C
:103FD0003FC0BA85BB23E1F5809195048823C1F5E4
:103FE0002091CC063091CD06293C310524F0C90141
:103FF0008052934007C0EFEF28333E076CF4C901AD
:10400000805E9C4F220F331F220F331F280F391F52
:104010003093CD062093CC062091C1063091C20684
:10402000293C310524F0C9018052934007C0FFEFBD
:1040300028333F076CF4C901805E9C4F220F331F69
:10404000220F331F280F391F3093C2062093C10659
:1040500062960FB6F894DEBF0FBECDBFDF91CF9151
:104060001F910F91FF90EF90DF90CF90BF90AF9096
:104070009F908F907F906F905F904F903F902F9088
:1040800008951F9380910C0490910D04813A91053D
:104090000CF4AEC28091E0068B3F98F08B3F19F490
:1040A000809166040EC08C3F19F48091680409C0A9
:1040B0008D3F19F480916A0404C08E3F21F48091F1
:1040C0006C04809384038091DF068B3F98F08B3FD4
:1040D00019F4809166040EC08C3F19F48091680435
:1040E00009C08D3F19F480916A0404C08E3F21F409
:1040F00080916C048093830380918303882319F457
:104100001092830305C0843618F084E680938303FD
:104110008091E1068B3F98F08B3F19F48091660403
:104120000EC08C3F19F48091680409C08D3F19F4CA
:1041300080916A0404C08E3F21F480916C048093C6
:10414000850380918503882319F41092850305C0A7
:10415000843618F084E6809385038091E3068B3FD4
:1041600098F08B3F19F4809166040EC08C3F19F4CF
:104170008091680409C08D3F19F480916A0404C0DD
:104180008E3F21F480916C04809386038091EA062F
:104190008B3F98F08B3F19F4809166040EC08C3FE2
:1041A00019F48091680409C08D3F19F480916A0464
:1041B00004C08E3F21F480916C048093870380912A
:1041C000EB068B3F98F08B3F19F4809166040EC08C
:1041D0008C3F19F48091680409C08D3F19F48091D7
:1041E0006A0404C08E3F21F480916C04809388039C
:1041F000809188038B3010F48AE002C08F3F11F465
:10420000809388038091EC068B3F98F08B3F19F4E4
:10421000809166040EC08C3F19F48091680409C037
:104220008D3F19F480916A0404C08E3F21F480917F
:104230006C04809389038091F1068B3F98F08B3F4B
:1042400019F4809166040EC08C3F19F480916804C3
:1042500009C08D3F19F480916A0404C08E3F21F497
:1042600080916C0480938B038091F2068B3F98F0D1
:104270008B3F19F4809166040EC08C3F19F4809135
:10428000680409C08D3F19F480916A0404C08E3F10
:1042900021F480916C0480938C038091F3068B3F12
:1042A00098F08B3F19F4809166040EC08C3F19F48E
:1042B0008091680409C08D3F19F480916A0404C09C
:1042C0008E3F21F480916C0480938D038091F406DD
:1042D0008B3F98F08B3F19F4809166040EC08C3FA1
:1042E00019F48091680409C08D3F19F480916A0423
:1042F00004C08E3F21F480916C0480938E038091E2
:10430000F5068B3F98F08B3F19F4809166040EC040
:104310008C3F19F48091680409C08D3F19F4809195
:104320006A0404C08E3F21F480916C0480938F0353
:10433000809105078B3F98F08B3F19F480916604BC
:104340000EC08C3F19F48091680409C08D3F19F4A8
:1043500080916A0404C08E3F21F480916C048093A4
:104360009003809106078B3F98F08B3F19F4809162
:1043700066040EC08C3F19F48091680409C08D3F1B
:1043800019F480916A0404C08E3F21F480916C047A
:1043900080939103809107078B3F98F08B3F19F42E
:1043A000809166040EC08C3F19F48091680409C0A6
:1043B0008D3F19F480916A0404C08E3F21F48091EE
:1043C0006C0480939203809108078B3F98F08B3F99
:1043D00019F4809166040EC08C3F19F48091680432
:1043E00009C08D3F19F480916A0404C08E3F21F406
:1043F00080916C04809393038091F6068B3F98F034
:104400008B3F19F4809166040EC08C3F19F48091A3
:10441000680409C08D3F19F480916A0404C08E3F7E
:1044200021F480916C04809394038091FB068B3F70
:1044300098F08B3F19F4809166040EC08C3F19F4FC
:104440008091680409C08D3F19F480916A0404C00A
:104450008E3F21F480916C04809395038091FE0639
:104460008B3F98F08B3F19F4809166040EC08C3F0F
:1044700019F48091680409C08D3F19F480916A0491
:1044800004C08E3F21F480916C0480939603809148
:10449000FF068B3F98F08B3F19F4809166040EC0A5
:1044A0008C3F19F48091680409C08D3F19F4809104
:1044B0006A0404C08E3F21F480916C0480939703BA
:1044C000809104078B3F98F08B3F19F4809166042C
:1044D0000EC08C3F19F48091680409C08D3F19F417
:1044E00080916A0404C08E3F21F480916C04809313
:1044F000980380910A078B3F98F08B3F19F48091C5
:1045000066040EC08C3F19F48091680409C08D3F89
:1045100019F480916A0404C08E3F21F480916C04E8
:1045200080939A0380919A03823010F481E002C054
:104530008F3F11F480939A0380910C078B3F98F082
:104540008B3F19F4809166040EC08C3F19F4809162
:10455000680409C08D3F19F480916A0404C08E3F3D
:1045600021F480916C0480939B0380919B038230A3
:1045700010F481E002C08F3F11F480939B0380917F
:1045800019078B3F98F08B3F19F4809166040EC099
:104590008C3F19F48091680409C08D3F19F4809113
:1045A0006A0404C08E3F21F480916C0480939903C7
:1045B00010918B03612F772767FD7095872F972FB9
:1045C0000E949E4217FF06C020E030E040E853E41E
:1045D0000E94F94127E137EB41ED58E30E9418436F
:1045E00060937F0370938003809381039093820391
:1045F0001F9108958091650480FD25C01092C50625
:104600001092B3061092BC061092D4068091CD038E
:10461000882311F08093B3068091CE03882311F094
:104620008093C5068091CF03882311F08093D40630
:104630008091D003882311F08093BC06809165049B
:10464000857F809365048091B30699279093A30595
:104650008093A2058091C50699279093A505809324
:10466000A4058091D40699279093A7058093A60569
:104670008091BC0699279093A9058093A805109274
:1046800008040E94FC180895809100018D3011F4F7
:104690000E94481280917A00877380937A008091FB
:1046A000E3039091E4039093CD068093CC06809130
:1046B000E5039091E6039093C2068093C106809132
:1046C000E7039091E8039093C4068093C30660913A
:1046D000EE037091EF03882777FD8095982F2CE0EB
:1046E00030E040E050E00E9460437093AC0660937D
:1046F000AB066091EC037091ED03882777FD809500
:10470000982F0E9460437093CF066093CE068091ED
:10471000F0039091F1039093BB068093BA068091C9
:104720007A00886C80937A00609100077727882749
:10473000992724EC39E040E050E00E946043609308
:104740007503709376038093770390937803609159
:1047500001077727882799270E9460436093790390
:1047600070937A0380937B0390937C030895109257
:104770001E0410921D041092200410921F0480E069
:1047800090E0A0E0B0E08093210490932204A093F5
:104790002304B09324041092140410921304109272
:1047A0001604109215041092180410921704109217
:1047B0009603109297031092F3030E94442384E619
:1047C00090E00E94A80D0E9444238091DD0680FFA6
:1047D00010C08091170390911803875B934038F4C1
:1047E00080911703909118038E5E924010F40E94FE
:1047F000FA124091E3035091E40350931404409360
:1048000013042091E5033091E603309316042093BE
:1048100015048091E7039091E80390931804809326
:10482000170430931A042093190450931C044093E6
:104830001B0484E00E949E3B8050944058F180917C
:10484000CE069091CF0697FF03C0909581959F4F1C
:104850006CE070E00E949F437093200460931F04FB
:104860008091AB069091AC0697FF03C0909581951F
:104870009F4F6CE070E00E949F4370931E04609312
:104880001D046091E1037091E203882777FD809514
:10489000982F17C084E00E949E3B90931E04809343
:1048A0001D0486E00E949E3B9093200480931F0489
:1048B00088E00E949E3BAA2797FDA095BA2FBC01D5
:1048C000CD010E949E426093210470932204809344
:1048D0002304909324041092390410923A04109205
:1048E0003B0410923C0410923D0410923E0410923E
:1048F0003F0410924004109241041092420410921E
:1049000043041092440410924504109246041092FD
:104910004704109248041092490410924A041092DD
:104920004B0410924C041092CD061092CC061092BB
:10493000C2061092C1061092C4061092C30684E605
:1049400090E00E94A80D8091130390911403A09110
:104950001503B09116039093650680936406109238
:10496000F5031092F403109255041092560410921D
:1049700057041092580480916F03909170039093A4
:1049800072038093710382E390E09093DC03809341
:10499000DB036091000777278827992724EC39E00B
:1049A00040E050E00E9460436856754C8F4F9F4F27
:1049B00060937503709376038093770390937803E5
:1049C000609101077727882799270E9460436856DE
:1049D000754C8F4F9F4F6093790370937A03809348
:1049E0007B0390937C0310927E0310927D031092C0
:1049F0007F0410927E0410928104109280046091D2
:104A00006F0370917003882777FD8095982F2BE0B6
:104A100035E040E050E00E9460436093C60670932A
:104A2000C7068093C8069093C9061092CB061092D1
:104A3000CA06809165048460809365048FEF80933B
:104A40009C03809103079927A4E0880F991FAA95DA
:104A5000E1F780939D0380E280939E0308951F9366
:104A6000182F0EC08091650480FD0CC084E690E094
:104A70009093DC038093DB038AEF90E00E94C40DE7
:104A8000115080F71F9108958091D506E82FFF27D8
:104A9000EE0FFF1FE159F94F808191818D5E9F4F8D
:104AA00014F01092A003808191818A5B9F4FDCF407
:104AB0008091A0038823B9F481E08093A0038091C2
:104AC0005B048F5F80935B0480915B04853028F4E6
:104AD00080915B040E942F25089588EE93E09093C7
:104AE000DC038093DB0308952F923F924F925F92F5
:104AF0006F927F928F929F92AF92BF92CF92DF92EE
:104B0000EF92FF920F931F93CF93DF93CDB7DEB752
:104B1000A3970FB6F894DEBF0FBECDBF0E94981BBF
:104B2000409100014C3010F4299A01C0299820913D
:104B30007C0430917D048091E706682F7727665FBB
:104B40007F4F7C836B836217730714F43C832B8342
:104B500080910C0490910D04883791050CF074C07D
:104B600080910301882399F48091060390910703B3
:104B70008F5F9F4F61F488E99AE39093DC03809301
:104B8000DB0380E09CE09093070380930603809111
:104B9000B9049091BA04009731F001979093BA0448
:104BA0008093B90405C0809165048E7E809365046E
:104BB0004A3011F0443111F4289A01C028988091AC
:104BC000630490916404895E934008F42BC480913F
:104BD000EE06E82FFF27FC83EB838091650480615C
:104BE00080936504E091D5062E2F3327220F331FC3
:104BF000F901E357F94F11821082A091D606BB2725
:104C0000AA0FBB1FFD01E357F94F11821082E091FB
:104C1000D8064E2F5527440F551FCA018357994F69
:104C2000FC01118210822159394FF9011182108241
:104C3000A159B94F11961C921E924159594FDA0150
:104C400011961C921E92F6C380910C0490910D0453
:104C50008D3891050CF4EEC3809165048F7E8093AE
:104C600065048091EF0622E3829FC0011124909396
:104C7000BA048093B904EB81FC81B9978CF08091E0
:104C8000650480FF0DC08091630490916404FFEF80
:104C90008F3F9F07D9F1019690936404809363043A
:104CA00080916304909164048F3F910509F070F541
:104CB0001092CB041092CC041092CD041092CE042A
:104CC0001092C7041092C8041092C9041092CA042A
:104CD00010927B0410927A048A3F9105E1F481E0FE
:104CE00090E09093B1048093B00410924904109224
:104CF0004A0410924B0410924C041092C304109278
:104D0000C4041092C5041092C60405C080916504C5
:104D100082608093650420916604309167048091DD
:104D2000D906E82FFF27EE0FFF1FE159F94F8081C9
:104D3000918182599F4F281739071CF42F5F3F4FED
:104D40000CC08081918182599F4F821793074CF448
:104D50002115310531F02150304030936704209304
:104D6000660420916804309169048091DA06E82F86
:104D7000FF27EE0FFF1FE159F94F80819181825982
:104D80009F4F281739071CF42F5F3F4F0CC08081BD
:104D9000918182599F4F821793074CF42115310559
:104DA00031F0215030403093690420936804209101
:104DB0006A0430916B048091DB06E82FFF27EE0F29
:104DC000FF1FE159F94F8081918182599F4F281728
:104DD00039071CF42F5F3F4F0CC0808191818259AD
:104DE0009F4F821793074CF42115310531F0215064
:104DF000304030936B0420936A0420916C0430910E
:104E00006D048091DC06E82FFF27EE0FFF1FE159AC
:104E1000F94F8081918182599F4F281739071CF4DF
:104E20002F5F3F4F0CC08081918182599F4F821725
:104E300093074CF42115310531F021503040309367
:104E40006D0420936C0420916E0430916F04809166
:104E500081069091820682599F4F281739071CF4CA
:104E60002F5F3F4F0EC0809181069091820682593C
:104E70009F4F821793074CF42115310531F02150D3
:104E8000304030936F0420936E0420917004309171
:104E90007104809183069091840682599F4F281750
:104EA00039071CF42F5F3F4F0EC08091830690910D
:104EB000840682599F4F821793074CF421153105C0
:104EC00031F02150304030937104209370042091D0
:104ED0007204309173048091850690918606825900
:104EE0009F4F281739071CF42F5F3F4F0EC080914A
:104EF00085069091860682599F4F821793074CF43E
:104F00002115310531F02150304030937304209346
:104F100072042091740430917504809187069091F9
:104F2000880682599F4F281739071CF42F5F3F4F7F
:104F30000EC0809187069091880682599F4F8217F4
:104F400093074CF42115310531F021503040309356
:104F5000750420937404809166049091670497FF10
:104F600005C010926704109266040AC08F3F910535
:104F700039F034F08FEF90E09093670480936604EB
:104F8000809168049091690497FF05C010926904AC
:104F9000109268040AC08F3F910539F034F08FEF0A
:104FA00090E0909369048093680480916A049091E2
:104FB0006B0497FF05C010926B0410926A040AC03C
:104FC0008F3F910539F034F08FEF90E090936B04B0
:104FD00080936A0480916C0490916D0497FF05C0E2
:104FE00010926D0410926C040AC08F3F910539F045
:104FF00034F08FEF90E090936D0480936C04809177
:105000006E0490916F0497FF05C010926F04109288
:105010006E040AC08F3F910539F034F08FEF90E0B5
:1050200090936F0480936E0480917004909171044A
:1050300097FF05C010927104109270040AC08F3F50
:10504000910539F034F08FEF90E0909371048093E4
:105050007004809172049091730497FF05C01092C0
:105060007304109272040AC08F3F910539F034F036
:105070008FEF90E090937304809372048091740496
:105080009091750497FF05C01092750410927404F6
:105090000AC08F3F910539F034F08FEF90E0909384
:1050A000750480937404E091D706FF27EE0FFF1F6D
:1050B000E159F94F80819181813591050CF415C139
:1050C0008091650480FD11C18091D806E82FFF27EB
:1050D000EE0FFF1FE159F94F808191818C349105CA
:1050E0000CF4C3C08091B8048F5F8093B804893CEE
:1050F00008F4FBC01092B8044C3010F4299801C099
:10510000299A10926404109263048091D506282F86
:105110003327D901AA0FBB1FA159B94F8D919C917B
:105120001197873491059CF48091D606E82FFF27CC
:10513000EE0FFF1FE159F94F8081918197FF03C066
:10514000909581959F4F873491050CF46BC08091A9
:10515000D606682F7727DB01AA0FBB1FA159B94FCD
:105160008D919C911197873491053CF0F901EE0FD8
:10517000FF1FE159F94F808191818D919C91873476
:10518000910564F0F901EE0FFF1FE159F94F80819D
:1051900091818734910514F042E001C041E0FB01A8
:1051A000EE0FFF1FE159F94F8081918186349105FF
:1051B0005CF4F901EE0FFF1FE159F94F80819181F5
:1051C000873491050CF043E0FB01EE0FFF1FE1591E
:1051D000F94F808191818A5B9F4F5CF4F901EE0F5A
:1051E000FF1FE159F94F80819181873491050CF0BF
:1051F00044E0660F771F6159794FDB018D919C91D7
:105200008A5B9F4F5CF4220F331F2159394FF901FC
:1052100080819181863491050CF445E0842F0E94B1
:10522000BD3B1CC08091DD068872C1F080819181F8
:1052300097FF03C0909581959F4F4E977CF48D9179
:105240009C918A5B9F4F54F481E080935B0488EECD
:1052500093E09093DC038093DB0347C00E94AE3B56
:105260000E94E23B0E94B72339C080819181855B17
:105270009F4FCCF58091B8048F5F8093B804893C30
:10528000A0F11092B8044C3010F4299801C0299A6A
:105290006FEF7FEF84E00E94A63B109264041092AF
:1052A00063040E94B72360911D0470911E0484E082
:1052B0000E94A63B60911F047091200486E00E942A
:1052C000A63B609121047091220480912304909167
:1052D00024040E94814288E00E94A63B0E94AE3BCB
:1052E0000E942F2502C01092B804E091D706FF2734
:1052F000EE0FFF1FE159F94F808191818B5A9F4F2B
:105300000CF098C08091D806482F5527FA01EE0F6F
:10531000FF1FE159F94F80819181855B9F4F0CF010
:1053200067C08091B7048F5F8093B704893C08F40D
:1053300061C088EC8093B70481E090E090936404AE
:105340008093630480916504896080936504109262
:10535000C3041092C4041092C5041092C6041092A3
:10536000490410924A0410924B0410924C0410927B
:10537000390410923A0410923B0410923C041092AB
:10538000410410924204109243041092440480910C
:10539000250490912604A0912704B09128048093BD
:1053A0003D0490933E04A0933F04B0934004809149
:1053B0002D0490912E04A0912F04B091300480937D
:1053C000450490934604A0934704B0934804109278
:1053D000CB041092CC041092CD041092CE04109203
:1053E000C7041092C8041092C9041092CA0402C0E3
:1053F0001092B704440F551F4159594FDA018D914E
:105400009C918C349105A4F08091B6048F5F8093B9
:10541000B604893C78F088EC8093B604109264045A
:1054200010926304809165048E7F8093650402C0AE
:105430001092B60480916E03815080936E03809128
:105440006E038F3F21F08091650484FFC8C20E94E3
:1054500041208091D506682E77248301000F111F0B
:10546000F801E159F94F408151818091E406E82F1C
:10547000FF27FF8BEE8B2091760430917704C901D2
:10548000880F991F820F931F4E9F90014F9F300DE1
:105490005E9F300D1124820F931F64E070E00E9424
:1054A0009F436B010357194FD8018D919C91E09058
:1054B000E506FF24FC01EE9DC001EF9D900DFE9DD1
:1054C000900D1124C80ED91E80917E0490917F0406
:1054D000C81AD90AD0927704C09276048091D60671
:1054E000882E99248401000F111FF801E159F94F0A
:1054F000408151812091780430917904C901880F4D
:10550000991F820F931F6E897F89469F9001479F45
:10551000300D569F300D1124820F931F64E070E010
:105520000E949F430357194FD8018D919C91FC0114
:10553000EE9DC001EF9D900DFE9D900D1124680F12
:10554000791F8091800490918104681B790B7BA363
:105550006AA37093790460937804E091D806FF27DA
:10556000EE0FFF1FE159F94F80819181EE24FF2456
:10557000E81AF90AF0927B04E0927A04E091D706E7
:10558000FF27EE0FFF1FE159F94FA080B18028E7F8
:1055900030E0A20EB31EB0927D04A0927C04109164
:1055A0008803612F772767FD7095872F972F0E94BB
:1055B0009E4217FF06C020E030E040E853E40E941E
:1055C000F94120E030E040E251E40E94F94120E05E
:1055D00030E040E85CE30E9418431B012C0160931B
:1055E000D0067093D1068093D2069093D306109183
:1055F0008903612F772767FD7095872F972F0E946A
:105600009E4217FF06C020E030E040E853E40E94CD
:10561000F94120E030EE4BE256E40E943B426093B9
:10562000BD067093BE068093BF069093C00680911E
:10563000870580FF58C080919903813808F453C0D2
:1056400080918005992787FD9095AC016E897F89AF
:10565000469FC001479F900D569F900D1124C80E84
:10566000D91ED0927704C092760480918105992743
:1056700087FD9095DC01A69FC001A79F900DB69F66
:10568000900D1124EAA1FBA1E80FF91FF093790412
:10569000E093780480918205992787FD9095E80E24
:1056A000F91EF0927B04E0927A042091840533275E
:1056B00027FD30958091E2069927AC01249FC00117
:1056C000259F900D349F900D112490937E0380931D
:1056D0007D038091830599278A159B0524F4909377
:1056E0007D0480937C0480917C0490917D0497FFDD
:1056F00004C010927D0410927C048091DD0682FF2C
:105700000CC080E090E0A0E0B0E08093BD069093F4
:10571000BE06A093BF06B093C00620E030E040E094
:1057200050E0C201B1010E94A842882364F480E0E5
:1057300090E0A0E0B0E08093D0069093D106A093D3
:10574000D206B093D30620E030E040E050E0609114
:10575000BD067091BE068091BF069091C0060E9462
:10576000A842882364F480E090E0A0E0B0E0809359
:10577000BD069093BE06A093BF06B093C006E0910D
:105780007604F09177042091820430918304CF0154
:1057900064E070E00E949F4377FF03C070956195BD
:1057A0007F4F26173707C4F4CF01F7FF03C090954A
:1057B00081959F4F64E070E00E949F437093830443
:1057C00060938204653671056CF084E690E09093F6
:1057D00083048093820406C02150304030938304B8
:1057E00020938204E0917804F0917904209184045C
:1057F00030918504CF0164E070E00E949F4377FF01
:1058000003C0709561957F4F26173707C4F4CF0109
:10581000F7FF03C0909581959F4F64E070E00E9470
:105820009F437093850460938404653671056CF022
:1058300084E690E0909385048093840406C0215010
:1058400030403093850420938404F401EE0FFF1F51
:10585000E159F94F208131818091FC06482F55276D
:105860004217530744F480911A0782FF04C081E075
:105870008093960415C080919604882389F0F401E2
:10588000EE0FFF1FE159F94F208131818091FD0614
:10589000BA01681B71092617370714F41092960491
:1058A000F401EE0FFF1FE159F94F808191816627C6
:1058B0007727641B750B8617970744F480911A07A6
:1058C00083FF04C081E08093970417C08091970400
:1058D000882399F0880C991C8FE696E0880E991E13
:1058E000D4012D913C918091FD069927841B950B45
:1058F0008217930714F410929704F301EE0FFF1F21
:10590000E159F94F808191814817590744F48091FA
:105910001A0780FF04C081E08093990415C080912C
:105920009904882389F0F301EE0FFF1FE159F94F25
:10593000208131818091FD06FA01E81BF1092E17C3
:105940003F0714F410929904F301EE0FFF1FE15981
:10595000F94F808191818617970744F480911A0747
:1059600081FF04C081E08093980417C0809198045F
:10597000882399F0660C771C2FE636E0620E731EC2
:10598000D3012D913C918091FD069927841B950BA5
:105990008217930714F41092980480919604882338
:1059A00021F480919704882321F081E0809395046D
:1059B00002C01092950480919904882321F480916B
:1059C0009804882351F081E0809394041092950408
:1059D00010929604109297040AC010929404809139
:1059E0009504882321F480919404882351F08091B8
:1059F000FB069927EB81FC818E179F0714F49C838B
:105A00008B83809165042091250430912604409178
:105A1000270450912804288F398F4A8F5B8F40913B
:105A20002D0450912E0460912F04709130044C8FFE
:105A30005D8F6E8F7F8F2091AD063091AE064091C5
:105A4000AF065091B006E090B406F090B506009114
:105A5000B6061091B70684FF52C010927B041092D4
:105A60007A041092770410927604109279041092BE
:105A7000780480E090E0A8ECBFE38093D006909398
:105A8000D106A093D206B093D3068BE09CEBA2E3A1
:105A9000BCE38093BD069093BE06A093BF06B0936F
:105AA000C0061092950410929404109283041092F0
:105AB00082041092850410928404688D798D8A8DF9
:105AC0009B8D260F371F481F591F2093AD0630931B
:105AD000AE064093AF065093B0068C8D9D8DAE8D73
